{
  "_format": "hh-sol-artifact-1",
  "contractName": "PawPool",
  "sourceName": "contracts/PawPool.sol",
  "abi": [
    {
      "inputs": [
        {
          "internalType": "address",
          "name": "_petNFTAddress",
          "type": "address"
        },
        {
          "internalType": "address",
          "name": "_pawTokenAddress",
          "type": "address"
        },
        {
          "internalType": "address",
          "name": "_guardTokenAddress",
          "type": "address"
        },
        {
          "internalType": "address",
          "name": "_vetCredentialAddress",
          "type": "address"
        },
        {
          "internalType": "address",
          "name": "_juryIdentityAddress",
          "type": "address"
        }
      ],
      "stateMutability": "nonpayable",
      "type": "constructor"
    },
    {
      "inputs": [
        {
          "internalType": "address",
          "name": "owner",
          "type": "address"
        }
      ],
      "name": "OwnableInvalidOwner",
      "type": "error"
    },
    {
      "inputs": [
        {
          "internalType": "address",
          "name": "account",
          "type": "address"
        }
      ],
      "name": "OwnableUnauthorizedAccount",
      "type": "error"
    },
    {
      "anonymous": false,
      "inputs": [
        {
          "indexed": true,
          "internalType": "uint256",
          "name": "claimId",
          "type": "uint256"
        },
        {
          "indexed": false,
          "internalType": "address[]",
          "name": "recipients",
          "type": "address[]"
        },
        {
          "indexed": false,
          "internalType": "uint256[]",
          "name": "amounts",
          "type": "uint256[]"
        }
      ],
      "name": "ClaimPayout",
      "type": "event"
    },
    {
      "anonymous": false,
      "inputs": [
        {
          "indexed": true,
          "internalType": "uint256",
          "name": "claimId",
          "type": "uint256"
        },
        {
          "indexed": false,
          "internalType": "enum PawPool.ClaimStatus",
          "name": "newStatus",
          "type": "uint8"
        }
      ],
      "name": "ClaimStatusUpdated",
      "type": "event"
    },
    {
      "anonymous": false,
      "inputs": [
        {
          "indexed": true,
          "internalType": "uint256",
          "name": "claimId",
          "type": "uint256"
        },
        {
          "indexed": true,
          "internalType": "uint256",
          "name": "petId",
          "type": "uint256"
        },
        {
          "indexed": true,
          "internalType": "address",
          "name": "owner",
          "type": "address"
        },
        {
          "indexed": false,
          "internalType": "uint256",
          "name": "requestedAmount",
          "type": "uint256"
        }
      ],
      "name": "ClaimSubmitted",
      "type": "event"
    },
    {
      "anonymous": false,
      "inputs": [
        {
          "indexed": true,
          "internalType": "uint256",
          "name": "claimId",
          "type": "uint256"
        },
        {
          "indexed": false,
          "internalType": "uint256[]",
          "name": "juryMemberIds",
          "type": "uint256[]"
        }
      ],
      "name": "JurySelected",
      "type": "event"
    },
    {
      "anonymous": false,
      "inputs": [
        {
          "indexed": true,
          "internalType": "address",
          "name": "previousOwner",
          "type": "address"
        },
        {
          "indexed": true,
          "internalType": "address",
          "name": "newOwner",
          "type": "address"
        }
      ],
      "name": "OwnershipTransferred",
      "type": "event"
    },
    {
      "anonymous": false,
      "inputs": [
        {
          "indexed": true,
          "internalType": "address",
          "name": "staker",
          "type": "address"
        },
        {
          "indexed": false,
          "internalType": "uint256",
          "name": "amount",
          "type": "uint256"
        }
      ],
      "name": "PawStaked",
      "type": "event"
    },
    {
      "anonymous": false,
      "inputs": [
        {
          "indexed": true,
          "internalType": "address",
          "name": "staker",
          "type": "address"
        },
        {
          "indexed": false,
          "internalType": "uint256",
          "name": "amount",
          "type": "uint256"
        }
      ],
      "name": "PawUnstaked",
      "type": "event"
    },
    {
      "anonymous": false,
      "inputs": [
        {
          "indexed": true,
          "internalType": "address",
          "name": "donor",
          "type": "address"
        },
        {
          "indexed": false,
          "internalType": "uint256",
          "name": "amount",
          "type": "uint256"
        }
      ],
      "name": "PoolDonation",
      "type": "event"
    },
    {
      "anonymous": false,
      "inputs": [
        {
          "indexed": true,
          "internalType": "uint256",
          "name": "petId",
          "type": "uint256"
        },
        {
          "indexed": true,
          "internalType": "address",
          "name": "payer",
          "type": "address"
        },
        {
          "indexed": false,
          "internalType": "uint256",
          "name": "amount",
          "type": "uint256"
        }
      ],
      "name": "PremiumPaid",
      "type": "event"
    },
    {
      "anonymous": false,
      "inputs": [
        {
          "indexed": true,
          "internalType": "uint256",
          "name": "claimId",
          "type": "uint256"
        },
        {
          "indexed": true,
          "internalType": "address",
          "name": "juror",
          "type": "address"
        },
        {
          "indexed": false,
          "internalType": "bool",
          "name": "approved",
          "type": "bool"
        }
      ],
      "name": "VoteRecorded",
      "type": "event"
    },
    {
      "inputs": [],
      "name": "MAJORITY_THRESHOLD",
      "outputs": [
        {
          "internalType": "uint256",
          "name": "",
          "type": "uint256"
        }
      ],
      "stateMutability": "view",
      "type": "function"
    },
    {
      "inputs": [],
      "name": "PAW_REWARD_PER_JUROR",
      "outputs": [
        {
          "internalType": "uint256",
          "name": "",
          "type": "uint256"
        }
      ],
      "stateMutability": "view",
      "type": "function"
    },
    {
      "inputs": [],
      "name": "REQUIRED_JURY_VOTES",
      "outputs": [
        {
          "internalType": "uint256",
          "name": "",
          "type": "uint256"
        }
      ],
      "stateMutability": "view",
      "type": "function"
    },
    {
      "inputs": [],
      "name": "basePremium",
      "outputs": [
        {
          "internalType": "uint256",
          "name": "",
          "type": "uint256"
        }
      ],
      "stateMutability": "view",
      "type": "function"
    },
    {
      "inputs": [
        {
          "internalType": "uint256",
          "name": "",
          "type": "uint256"
        },
        {
          "internalType": "address",
          "name": "",
          "type": "address"
        }
      ],
      "name": "claimHasVoted",
      "outputs": [
        {
          "internalType": "bool",
          "name": "",
          "type": "bool"
        }
      ],
      "stateMutability": "view",
      "type": "function"
    },
    {
      "inputs": [],
      "name": "claimSubmissionFee",
      "outputs": [
        {
          "internalType": "uint256",
          "name": "",
          "type": "uint256"
        }
      ],
      "stateMutability": "view",
      "type": "function"
    },
    {
      "inputs": [
        {
          "internalType": "uint256",
          "name": "",
          "type": "uint256"
        },
        {
          "internalType": "address",
          "name": "",
          "type": "address"
        }
      ],
      "name": "claimVoteApproved",
      "outputs": [
        {
          "internalType": "bool",
          "name": "",
          "type": "bool"
        }
      ],
      "stateMutability": "view",
      "type": "function"
    },
    {
      "inputs": [
        {
          "internalType": "uint256",
          "name": "",
          "type": "uint256"
        }
      ],
      "name": "claims",
      "outputs": [
        {
          "internalType": "uint256",
          "name": "petId",
          "type": "uint256"
        },
        {
          "internalType": "address",
          "name": "owner",
          "type": "address"
        },
        {
          "internalType": "address",
          "name": "treatingVet",
          "type": "address"
        },
        {
          "internalType": "string",
          "name": "vetDiagnosisIPFSHash",
          "type": "string"
        },
        {
          "internalType": "uint256",
          "name": "submissionTimestamp",
          "type": "uint256"
        },
        {
          "internalType": "uint256",
          "name": "requestedPayoutAmount",
          "type": "uint256"
        },
        {
          "internalType": "enum PawPool.ClaimStatus",
          "name": "status",
          "type": "uint8"
        },
        {
          "internalType": "uint256",
          "name": "approveVotes",
          "type": "uint256"
        },
        {
          "internalType": "uint256",
          "name": "rejectVotes",
          "type": "uint256"
        }
      ],
      "stateMutability": "view",
      "type": "function"
    },
    {
      "inputs": [
        {
          "internalType": "uint256",
          "name": "_amount",
          "type": "uint256"
        }
      ],
      "name": "contributeToPool",
      "outputs": [],
      "stateMutability": "nonpayable",
      "type": "function"
    },
    {
      "inputs": [
        {
          "internalType": "uint256",
          "name": "_claimId",
          "type": "uint256"
        }
      ],
      "name": "finalizeClaimVoting",
      "outputs": [],
      "stateMutability": "nonpayable",
      "type": "function"
    },
    {
      "inputs": [
        {
          "internalType": "uint256",
          "name": "_petId",
          "type": "uint256"
        }
      ],
      "name": "getPetPremium",
      "outputs": [
        {
          "internalType": "uint256",
          "name": "",
          "type": "uint256"
        }
      ],
      "stateMutability": "view",
      "type": "function"
    },
    {
      "inputs": [],
      "name": "guardToken",
      "outputs": [
        {
          "internalType": "contract IERC20",
          "name": "",
          "type": "address"
        }
      ],
      "stateMutability": "view",
      "type": "function"
    },
    {
      "inputs": [],
      "name": "immediatePayoutPool",
      "outputs": [
        {
          "internalType": "uint256",
          "name": "",
          "type": "uint256"
        }
      ],
      "stateMutability": "view",
      "type": "function"
    },
    {
      "inputs": [],
      "name": "juryDepositAmount",
      "outputs": [
        {
          "internalType": "uint256",
          "name": "",
          "type": "uint256"
        }
      ],
      "stateMutability": "view",
      "type": "function"
    },
    {
      "inputs": [],
      "name": "juryIdentityContract",
      "outputs": [
        {
          "internalType": "contract JuryIdentity",
          "name": "",
          "type": "address"
        }
      ],
      "stateMutability": "view",
      "type": "function"
    },
    {
      "inputs": [],
      "name": "juryVotingPeriod",
      "outputs": [
        {
          "internalType": "uint256",
          "name": "",
          "type": "uint256"
        }
      ],
      "stateMutability": "view",
      "type": "function"
    },
    {
      "inputs": [],
      "name": "owner",
      "outputs": [
        {
          "internalType": "address",
          "name": "",
          "type": "address"
        }
      ],
      "stateMutability": "view",
      "type": "function"
    },
    {
      "inputs": [
        {
          "internalType": "address",
          "name": "",
          "type": "address"
        }
      ],
      "name": "pawStakes",
      "outputs": [
        {
          "internalType": "uint256",
          "name": "",
          "type": "uint256"
        }
      ],
      "stateMutability": "view",
      "type": "function"
    },
    {
      "inputs": [],
      "name": "pawToken",
      "outputs": [
        {
          "internalType": "contract IERC20",
          "name": "",
          "type": "address"
        }
      ],
      "stateMutability": "view",
      "type": "function"
    },
    {
      "inputs": [
        {
          "internalType": "uint256",
          "name": "_petId",
          "type": "uint256"
        },
        {
          "internalType": "uint256",
          "name": "_amount",
          "type": "uint256"
        }
      ],
      "name": "payPremium",
      "outputs": [],
      "stateMutability": "nonpayable",
      "type": "function"
    },
    {
      "inputs": [],
      "name": "petNFT",
      "outputs": [
        {
          "internalType": "contract PetNFT",
          "name": "",
          "type": "address"
        }
      ],
      "stateMutability": "view",
      "type": "function"
    },
    {
      "inputs": [],
      "name": "renounceOwnership",
      "outputs": [],
      "stateMutability": "nonpayable",
      "type": "function"
    },
    {
      "inputs": [],
      "name": "riskReservePool",
      "outputs": [
        {
          "internalType": "uint256",
          "name": "",
          "type": "uint256"
        }
      ],
      "stateMutability": "view",
      "type": "function"
    },
    {
      "inputs": [
        {
          "internalType": "uint256",
          "name": "_claimId",
          "type": "uint256"
        }
      ],
      "name": "selectJury",
      "outputs": [],
      "stateMutability": "nonpayable",
      "type": "function"
    },
    {
      "inputs": [],
      "name": "stableYieldPool",
      "outputs": [
        {
          "internalType": "uint256",
          "name": "",
          "type": "uint256"
        }
      ],
      "stateMutability": "view",
      "type": "function"
    },
    {
      "inputs": [
        {
          "internalType": "uint256",
          "name": "_amount",
          "type": "uint256"
        }
      ],
      "name": "stakePaw",
      "outputs": [],
      "stateMutability": "nonpayable",
      "type": "function"
    },
    {
      "inputs": [
        {
          "internalType": "uint256",
          "name": "_petId",
          "type": "uint256"
        },
        {
          "internalType": "address",
          "name": "_treatingVetAddress",
          "type": "address"
        },
        {
          "internalType": "string",
          "name": "_vetDiagnosisIPFSHash",
          "type": "string"
        },
        {
          "internalType": "uint256",
          "name": "_requestedPayoutAmount",
          "type": "uint256"
        }
      ],
      "name": "submitClaim",
      "outputs": [],
      "stateMutability": "nonpayable",
      "type": "function"
    },
    {
      "inputs": [
        {
          "internalType": "address",
          "name": "newOwner",
          "type": "address"
        }
      ],
      "name": "transferOwnership",
      "outputs": [],
      "stateMutability": "nonpayable",
      "type": "function"
    },
    {
      "inputs": [
        {
          "internalType": "uint256",
          "name": "_amount",
          "type": "uint256"
        }
      ],
      "name": "unstakePaw",
      "outputs": [],
      "stateMutability": "nonpayable",
      "type": "function"
    },
    {
      "inputs": [],
      "name": "vetCredentialContract",
      "outputs": [
        {
          "internalType": "contract VeterinarianCredential",
          "name": "",
          "type": "address"
        }
      ],
      "stateMutability": "view",
      "type": "function"
    },
    {
      "inputs": [
        {
          "internalType": "uint256",
          "name": "_claimId",
          "type": "uint256"
        },
        {
          "internalType": "bool",
          "name": "_approved",
          "type": "bool"
        }
      ],
      "name": "voteOnClaim",
      "outputs": [],
      "stateMutability": "nonpayable",
      "type": "function"
    }
  ],
  "bytecode": "0x60806040523480156200001157600080fd5b5060405162002fde38038062002fde83398101604081905262000034916200015c565b33806200005b57604051631e4fbdf760e01b81526000600482015260240160405180910390fd5b6200006681620000ef565b50600180546001600160a01b03199081166001600160a01b0397881617909155600280548216958716959095179094556003805485169386169390931790925560048054841691851691909117905560058054909216921691909117905568056bc75e2d631000006006819055600755678ac7230489e800006008556203f480600955620001cc565b600080546001600160a01b038381166001600160a01b0319831681178455604051919092169283917f8be0079c531659141344cd1fd0a4f28419497f9722a3daafe3b4186f6b6457e09190a35050565b80516001600160a01b03811681146200015757600080fd5b919050565b600080600080600060a086880312156200017557600080fd5b62000180866200013f565b945062000190602087016200013f565b9350620001a0604087016200013f565b9250620001b0606087016200013f565b9150620001c0608087016200013f565b90509295509295909350565b612e0280620001dc6000396000f3fe608060405234801561001057600080fd5b50600436106101e55760003560e01c806386315b701161010f578063c29a5831116100a2578063f032574311610071578063f0325743146103fc578063f076b4f01461042a578063f2fde38b1461043d578063fda7e2e31461045057600080fd5b8063c29a583114610390578063cbbc4a23146103a3578063db9b9542146103e1578063e56588ef146103e957600080fd5b80638fb47de7116100de5780638fb47de71461034d578063a5bd798214610356578063a888c2cd1461035f578063a99a50f41461038757600080fd5b806386315b701461030357806386eb241c146103165780638da5cb5b146103295780638e5815df1461033a57600080fd5b80633b7c13351161018757806362e0621b1161015657806362e0621b146102d65780636dd98867146102df578063707b3642146102f2578063715018a6146102fb57600080fd5b80633b7c1335146102925780634d55a58d1461029a57806350b312a6146102a357806351fb8370146102c357600080fd5b80632d95ada9116101c35780632d95ada9146102385780632ec1765b1461026357806331b7f77d1461027657806334332ce71461028957600080fd5b80630ed6a89c146101ea57806321725b67146101ff578063299f429f14610212575b600080fd5b6101fd6101f83660046126fd565b61045f565b005b6101fd61020d36600461272d565b610723565b61022561022036600461272d565b610979565b6040519081526020015b60405180910390f35b60055461024b906001600160a01b031681565b6040516001600160a01b03909116815260200161022f565b60025461024b906001600160a01b031681565b60045461024b906001600160a01b031681565b610225600c5481565b610225601581565b61022560085481565b6102256102b136600461275b565b60116020526000908152604090205481565b6101fd6102d136600461272d565b610a77565b61022560075481565b60015461024b906001600160a01b031681565b61022560095481565b6101fd610c74565b6101fd61031136600461272d565b610c88565b6101fd6103243660046127ee565b6110c8565b6000546001600160a01b031661024b565b6101fd61034836600461272d565b6115d0565b610225600b5481565b61022560065481565b61037261036d36600461272d565b6117d5565b60405161022f999897969594939291906128ee565b610225600a5481565b6101fd61039e36600461272d565b6118b6565b6103d16103b136600461296f565b600d60209081526000928352604080842090915290825290205460ff1681565b604051901515815260200161022f565b610225600281565b60035461024b906001600160a01b031681565b6103d161040a36600461296f565b600e60209081526000928352604080842090915290825290205460ff1681565b6101fd610438366004612994565b611c2b565b6101fd61044b36600461275b565b611f0b565b610225674563918244f4000081565b60008281526010602052604090206001600682015460ff166004811115610488576104886128b6565b146104ae5760405162461bcd60e51b81526004016104a5906129b6565b60405180910390fd5b60095481600401546104c09190612a11565b42111561050f5760405162461bcd60e51b815260206004820181905260248201527f506177506f6f6c3a20566f74696e6720706572696f642068617320656e64656460448201526064016104a5565b6000805b600783015481101561057357336001600160a01b031683600701828154811061053e5761053e612a2a565b6000918252602090912001546001600160a01b0316036105615760019150610573565b8061056b81612a40565b915050610513565b50806105dd5760405162461bcd60e51b815260206004820152603360248201527f506177506f6f6c3a2043616c6c6572206973206e6f742061206a757279206d656044820152726d62657220666f72207468697320636c61696d60681b60648201526084016104a5565b6000848152600d6020908152604080832033845290915290205460ff16156106405760405162461bcd60e51b815260206004820152601660248201527514185dd41bdbdb0e88105b1c9958591e481d9bdd195960521b60448201526064016104a5565b6000848152600d6020908152604080832033808552908352818420805460ff19908116600117909155888552600e84528285209185529252909120805485158015919093161790556106a85760088201805490600061069e83612a40565b91905055506106c0565b6009820180549060006106ba83612a40565b91905055505b6040518315158152339085907fc6b0caf0039f6dcd1cf9e0c5ce6d527392c56b3363d20f4bf20a0ea906d23a4a9060200160405180910390a360158260090154836008015461070f9190612a11565b0361071d5761071d84611f49565b50505050565b6000811161078b5760405162461bcd60e51b815260206004820152602f60248201527f506177506f6f6c3a205374616b6520616d6f756e74206d75737420626520677260448201526e6561746572207468616e207a65726f60881b60648201526084016104a5565b6002546040516323b872dd60e01b81526001600160a01b03909116906323b872dd906107bf90339030908690600401612a59565b6020604051808303816000875af11580156107de573d6000803e3d6000fd5b505050506040513d601f19601f820116820180604052508101906108029190612a7d565b61084e5760405162461bcd60e51b815260206004820152601960248201527f506177506f6f6c3a20504157207374616b65206661696c65640000000000000060448201526064016104a5565b3360009081526011602052604081205490036108a757601280546001810182556000919091527fbb8a6a4669ba250d26cd7a459eca9d215f8307e33aebe50379bc5a3617ec34440180546001600160a01b031916331790555b33600090815260116020526040812080548392906108c6908490612a11565b90915550506005543360008181526011602052604090819020549051639f65080b60e01b8152600481019290925260248201526001600160a01b0390911690639f65080b90604401600060405180830381600087803b15801561092857600080fd5b505af115801561093c573d6000803e3d6000fd5b50506040518381523392507f5d5e9d9429dce74b13b42e5365d7b54d01e1859421af27283a156ac9802dcf4b91506020015b60405180910390a250565b600154604051634c9d585d60e11b81526004810183905260009182916001600160a01b039091169063993ab0ba90602401600060405180830381865afa1580156109c7573d6000803e3d6000fd5b505050506040513d6000823e601f3d908101601f191682016040526109ef9190810190612a9a565b5090506001600160a01b038116610a485760405162461bcd60e51b815260206004820152601e60248201527f506177506f6f6c3a205065744e465420646f6573206e6f74206578697374000060448201526064016104a5565b6000610a5384612073565b9050606481600654610a659190612b27565b610a6f9190612b3e565b949350505050565b60008181526010602052604090206001600682015460ff166004811115610aa057610aa06128b6565b14610abd5760405162461bcd60e51b81526004016104a5906129b6565b6009548160040154610acf9190612a11565b4211610b295760405162461bcd60e51b8152602060048201526024808201527f506177506f6f6c3a20566f74696e6720706572696f64206e6f7420656e646564604482015263081e595d60e21b60648201526084016104a5565b610b3282611f49565b60006002600683015460ff166004811115610b4f57610b4f6128b6565b14905060005b600783015481101561071d576000836007018281548110610b7857610b78612a2a565b6000918252602080832090910154878352600d825260408084206001600160a01b039092168085529190925291205490915060ff1615610c61576000858152600e602090815260408083206001600160a01b038086168552925291829020546005549251637b61eef360e11b815260ff909116928315158715151492169063f6c3dde690610c2c9086908b9086906004016001600160a01b0393909316835260208301919091521515604082015260600190565b600060405180830381600087803b158015610c4657600080fd5b505af1158015610c5a573d6000803e3d6000fd5b5050505050505b5080610c6c81612a40565b915050610b55565b610c7c6120fe565b610c86600061212b565b565b610c906120fe565b600081815260106020526040812090600682015460ff166004811115610cb857610cb86128b6565b14610d115760405162461bcd60e51b8152602060048201526024808201527f506177506f6f6c3a20436c61696d206e6f7420696e2050656e64696e672073746044820152636174757360e01b60648201526084016104a5565b60125460151115610d7b5760405162461bcd60e51b815260206004820152602e60248201527f506177506f6f6c3a204e6f7420656e6f756768207374616b65727320666f722060448201526d353ab93c9039b2b632b1ba34b7b760911b60648201526084016104a5565b601254600090819067ffffffffffffffff811115610d9b57610d9b61277f565b604051908082528060200260200182016040528015610dc4578160200160208202803683370190505b50905060005b601254811015610ef257600554601280546001600160a01b039092169163d4f7ba12919084908110610dfe57610dfe612a2a565b60009182526020909120015460405160e083901b6001600160e01b03191681526001600160a01b039091166004820152602401602060405180830381865afa158015610e4e573d6000803e3d6000fd5b505050506040513d601f19601f82011682018060405250810190610e729190612a7d565b15610ee05760128181548110610e8a57610e8a612a2a565b9060005260206000200160009054906101000a90046001600160a01b0316828481518110610eba57610eba612a2a565b6001600160a01b039092166020928302919091019091015282610edc81612a40565b9350505b80610eea81612a40565b915050610dca565b506015821015610f505760405162461bcd60e51b815260206004820152602360248201527f506177506f6f6c3a204e6f7420656e6f75676820656c696769626c65206a75726044820152626f727360e81b60648201526084016104a5565b60005b6015811015610fbf5783600701828281518110610f7257610f72612a2a565b60209081029190910181015182546001810184556000938452919092200180546001600160a01b0319166001600160a01b0390921691909117905580610fb781612a40565b915050610f53565b5060068301805460ff19166001179055600783015460009067ffffffffffffffff811115610fef57610fef61277f565b604051908082528060200260200182016040528015611018578160200160208202803683370190505b50905060005b60078501548110156110885784600701818154811061103f5761103f612a2a565b60009182526020909120015482516001600160a01b039091169083908390811061106b5761106b612a2a565b60209081029190910101528061108081612a40565b91505061101e565b50847ff012679c4bedfb86fcf004a7f18dd929a2b8765502fc39d9561052a9c1b5b380826040516110b99190612b60565b60405180910390a25050505050565b600154604051634c9d585d60e11b8152600481018690526000916001600160a01b03169063993ab0ba90602401600060405180830381865afa158015611112573d6000803e3d6000fd5b505050506040513d6000823e601f3d908101601f1916820160405261113a9190810190612a9a565b5090506001600160a01b03811633146111a65760405162461bcd60e51b815260206004820152602860248201527f506177506f6f6c3a204f6e6c7920706574206f776e65722063616e207375626d604482015267697420636c61696d60c01b60648201526084016104a5565b600154604051631afb29a760e01b8152600481018790526001600160a01b03868116602483015290911690631afb29a790604401602060405180830381865afa1580156111f7573d6000803e3d6000fd5b505050506040513d601f19601f8201168201806040525081019061121b9190612a7d565b6112845760405162461bcd60e51b815260206004820152603460248201527f506177506f6f6c3a205472656174696e6720766574206973206e6f74206175746044820152731a1bdc9a5e995908199bdc881d1a1a5cc81c195d60621b60648201526084016104a5565b6004805460405163edf9384560e01b81526001600160a01b038781169382019390935291169063edf9384590602401602060405180830381865afa1580156112d0573d6000803e3d6000fd5b505050506040513d601f19601f820116820180604052508101906112f49190612a7d565b6113555760405162461bcd60e51b815260206004820152602c60248201527f506177506f6f6c3a2056657420646f6573206e6f7420686176652076616c696460448201526b2063726564656e7469616c7360a01b60648201526084016104a5565b60008351116113bf5760405162461bcd60e51b815260206004820152603060248201527f506177506f6f6c3a2056657420646961676e6f7369732049504653206861736860448201526f2063616e6e6f7420626520656d70747960801b60648201526084016104a5565b600082116114285760405162461bcd60e51b815260206004820152603060248201527f506177506f6f6c3a205061796f757420616d6f756e74206d757374206265206760448201526f726561746572207468616e207a65726f60801b60648201526084016104a5565b6003546008546040516323b872dd60e01b81526001600160a01b03909216916323b872dd9161145d9133913091600401612a59565b6020604051808303816000875af115801561147c573d6000803e3d6000fd5b505050506040513d601f19601f820116820180604052508101906114a09190612a7d565b6115025760405162461bcd60e51b815260206004820152602d60248201527f506177506f6f6c3a20436c61696d207375626d697373696f6e2066656520747260448201526c185b9cd9995c8819985a5b1959609a1b60648201526084016104a5565b600f805490600061151283612a40565b9091555050600f546000818152601060205260409020868155600181018054336001600160a01b0319918216179091556002820180549091166001600160a01b038816179055600381016115668682612c2d565b504260048201556005810184905560068101805460ff1916905560006008820181905560098201556040518481523390889084907f3a30d1c4069e097873e77443df9683e8de5c7ba3674315b8670a0211e31301959060200160405180910390a450505050505050565b6000811161163f5760405162461bcd60e51b815260206004820152603660248201527f506177506f6f6c3a20436f6e747269627574696f6e20616d6f756e74206d7573604482015275742062652067726561746572207468616e207a65726f60501b60648201526084016104a5565b6003546040516323b872dd60e01b81526001600160a01b03909116906323b872dd9061167390339030908690600401612a59565b6020604051808303816000875af1158015611692573d6000803e3d6000fd5b505050506040513d601f19601f820116820180604052508101906116b69190612a7d565b6117025760405162461bcd60e51b815260206004820152601e60248201527f506177506f6f6c3a204755415244207472616e73666572206661696c6564000060448201526064016104a5565b6000606461171183601e612b27565b61171b9190612b3e565b90506000606461172c84603c612b27565b6117369190612b3e565b90506000816117458486612ced565b61174f9190612ced565b905082600a60008282546117639190612a11565b9250508190555081600b600082825461177c9190612a11565b9250508190555080600c60008282546117959190612a11565b909155505060405184815233907f29a047f6fd84d8cae8b3b33dbfe103e58528cfd4af40aab48f111b019ed380a39060200160405180910390a250505050565b601060205260009081526040902080546001820154600283015460038401805493946001600160a01b0393841694939092169261181190612ba4565b80601f016020809104026020016040519081016040528092919081815260200182805461183d90612ba4565b801561188a5780601f1061185f5761010080835404028352916020019161188a565b820191906000526020600020905b81548152906001019060200180831161186d57829003601f168201915b50505060048401546005850154600686015460088701546009909701549596929591945060ff16925089565b600081116119205760405162461bcd60e51b815260206004820152603160248201527f506177506f6f6c3a20556e7374616b6520616d6f756e74206d7573742062652060448201527067726561746572207468616e207a65726f60781b60648201526084016104a5565b3360009081526011602052604090205481111561197f5760405162461bcd60e51b815260206004820181905260248201527f506177506f6f6c3a20496e73756666696369656e74207374616b65642050415760448201526064016104a5565b336000908152601160205260408120805483929061199e908490612ced565b9091555050336000908152601160205260408120549003611ac35760005b601254811015611ac157336001600160a01b0316601282815481106119e3576119e3612a2a565b6000918252602090912001546001600160a01b031603611aaf5760128054611a0d90600190612ced565b81548110611a1d57611a1d612a2a565b600091825260209091200154601280546001600160a01b039092169183908110611a4957611a49612a2a565b9060005260206000200160006101000a8154816001600160a01b0302191690836001600160a01b031602179055506012805480611a8857611a88612d00565b600082815260209020810160001990810180546001600160a01b0319169055019055611ac1565b80611ab981612a40565b9150506119bc565b505b6005543360008181526011602052604090819020549051639f65080b60e01b8152600481019290925260248201526001600160a01b0390911690639f65080b90604401600060405180830381600087803b158015611b2057600080fd5b505af1158015611b34573d6000803e3d6000fd5b505060025460405163a9059cbb60e01b8152336004820152602481018590526001600160a01b03909116925063a9059cbb91506044016020604051808303816000875af1158015611b89573d6000803e3d6000fd5b505050506040513d601f19601f82011682018060405250810190611bad9190612a7d565b611bf95760405162461bcd60e51b815260206004820152601b60248201527f506177506f6f6c3a2050415720756e7374616b65206661696c6564000000000060448201526064016104a5565b60405181815233907f8b8260be5f6a219a1416bfd82b27266cde89f38c8372cbab419f9ace74f4f5829060200161096e565b600154604051634c9d585d60e11b8152600481018490526000916001600160a01b03169063993ab0ba90602401600060405180830381865afa158015611c75573d6000803e3d6000fd5b505050506040513d6000823e601f3d908101601f19168201604052611c9d9190810190612a9a565b5090506001600160a01b0381163314611d085760405162461bcd60e51b815260206004820152602760248201527f506177506f6f6c3a204f6e6c7920706574206f776e65722063616e20706179206044820152667072656d69756d60c81b60648201526084016104a5565b6000611d1384610979565b905080831015611d705760405162461bcd60e51b815260206004820152602260248201527f506177506f6f6c3a20496e73756666696369656e74207072656d69756d2070616044820152611a5960f21b60648201526084016104a5565b6003546040516323b872dd60e01b81526001600160a01b03909116906323b872dd90611da490339030908890600401612a59565b6020604051808303816000875af1158015611dc3573d6000803e3d6000fd5b505050506040513d601f19601f82011682018060405250810190611de79190612a7d565b611e335760405162461bcd60e51b815260206004820152601e60248201527f506177506f6f6c3a204755415244207472616e73666572206661696c6564000060448201526064016104a5565b60006064611e4285601e612b27565b611e4c9190612b3e565b905060006064611e5d86603c612b27565b611e679190612b3e565b9050600081611e768488612ced565b611e809190612ced565b905082600a6000828254611e949190612a11565b9250508190555081600b6000828254611ead9190612a11565b9250508190555080600c6000828254611ec69190612a11565b9091555050604051868152339088907ffbf1458fbbddabb878de144276216e8ccda619cbac2d598e6ee37ff72173afb19060200160405180910390a350505050505050565b611f136120fe565b6001600160a01b038116611f3d57604051631e4fbdf760e01b8152600060048201526024016104a5565b611f468161212b565b50565b60008181526010602052604090206001600682015460ff166004811115611f7257611f726128b6565b14611f8f5760405162461bcd60e51b81526004016104a5906129b6565b601581600901548260080154611fa59190612a11565b108015611fc357506009548160040154611fbf9190612a11565b4211155b15611fcc575050565b80600901548160080154611fe09190612a11565b611feb906002612b27565b6008820154611ffb906003612b27565b111561201e5760068101805460ff191660021790556120198261217b565b61202e565b60068101805460ff191660031790555b600681015460405183917f2e7de2377c1e6f85a268dbe00519c60d65c9e38570a118be0eb07feb07fc89be916120679160ff1690612d16565b60405180910390a25050565b6001546040516318d6f64d60e31b81526004810183905260009182916001600160a01b039091169063c6b7b26890602401602060405180830381865afa1580156120c1573d6000803e3d6000fd5b505050506040513d601f19601f820116820180604052508101906120e59190612d24565b905060646120f482600a612b27565b610a6f9082612a11565b6000546001600160a01b03163314610c865760405163118cdaa760e01b81523360048201526024016104a5565b600080546001600160a01b038381166001600160a01b0319831681178455604051919092169283917f8be0079c531659141344cd1fd0a4f28419497f9722a3daafe3b4186f6b6457e09190a35050565b60008181526010602052604090206002600682015460ff1660048111156121a4576121a46128b6565b146122005760405162461bcd60e51b815260206004820152602660248201527f506177506f6f6c3a20436c61696d206e6f7420617070726f76656420666f72206044820152651c185e5bdd5d60d21b60648201526084016104a5565b60058101546003546040516370a0823160e01b815230600482015282916001600160a01b0316906370a0823190602401602060405180830381865afa15801561224d573d6000803e3d6000fd5b505050506040513d601f19601f820116820180604052508101906122719190612d24565b10156122cb5760405162461bcd60e51b815260206004820152602360248201527f506177506f6f6c3a20496e73756666696369656e7420475541524420696e20706044820152621bdbdb60ea1b60648201526084016104a5565b600282015460018301546001600160a01b039182169116600060646122f1856050612b27565b6122fb9190612b3e565b905060006123098286612ced565b60035460405163a9059cbb60e01b81526001600160a01b0387811660048301526024820186905292935091169063a9059cbb906044016020604051808303816000875af115801561235e573d6000803e3d6000fd5b505050506040513d601f19601f820116820180604052508101906123829190612a7d565b6123ce5760405162461bcd60e51b815260206004820152601d60248201527f506177506f6f6c3a205061796f757420746f20766574206661696c656400000060448201526064016104a5565b60035460405163a9059cbb60e01b81526001600160a01b038581166004830152602482018490529091169063a9059cbb906044016020604051808303816000875af1158015612421573d6000803e3d6000fd5b505050506040513d601f19601f820116820180604052508101906124459190612a7d565b6124915760405162461bcd60e51b815260206004820152601f60248201527f506177506f6f6c3a205061796f757420746f206f776e6572206661696c65640060448201526064016104a5565b600a86018054600181810183556000838152602080822093840180546001600160a01b03808c166001600160a01b031992831617909255865480860188559095018054918a169190951617909355600b8a01805480840182558183529390912092830186905580549182018155910183905560405189927f2d6bcb17224bb74d43e8a649ff255ccb43ef55c19e1dea8abbc50945cb06db649261253392612d3d565b60405180910390a260048054604051632f3c5f0960e01b81526001600160a01b0387811693820193909352911690632f3c5f0990602401600060405180830381600087803b15801561258457600080fd5b505af1158015612598573d6000803e3d6000fd5b5050505060005b60078701548110156126e55760008760070182815481106125c2576125c2612a2a565b60009182526020808320909101548b8352600e825260408084206001600160a01b039092168085529190925291205490915060ff16156126d25760025460405163a9059cbb60e01b81526001600160a01b038381166004830152674563918244f4000060248301529091169063a9059cbb906044016020604051808303816000875af1158015612656573d6000803e3d6000fd5b505050506040513d601f19601f8201168201806040525081019061267a9190612a7d565b6126d25760405162461bcd60e51b815260206004820152602360248201527f506177506f6f6c3a2050415720726577617264207472616e73666572206661696044820152621b195960ea1b60648201526084016104a5565b50806126dd81612a40565b91505061259f565b5050505050505050565b8015158114611f4657600080fd5b6000806040838503121561271057600080fd5b823591506020830135612722816126ef565b809150509250929050565b60006020828403121561273f57600080fd5b5035919050565b6001600160a01b0381168114611f4657600080fd5b60006020828403121561276d57600080fd5b813561277881612746565b9392505050565b634e487b7160e01b600052604160045260246000fd5b604051601f8201601f1916810167ffffffffffffffff811182821017156127be576127be61277f565b604052919050565b600067ffffffffffffffff8211156127e0576127e061277f565b50601f01601f191660200190565b6000806000806080858703121561280457600080fd5b84359350602085013561281681612746565b9250604085013567ffffffffffffffff81111561283257600080fd5b8501601f8101871361284357600080fd5b8035612856612851826127c6565b612795565b81815288602083850101111561286b57600080fd5b81602084016020830137600091810160200191909152949793965093946060013593505050565b60005b838110156128ad578181015183820152602001612895565b50506000910152565b634e487b7160e01b600052602160045260246000fd5b600581106128ea57634e487b7160e01b600052602160045260246000fd5b9052565b60006101208b835260018060a01b03808c166020850152808b166040850152508060608401528851808285015261014091506129308183860160208d01612892565b6080840189905260a08401889052601f01601f1916830101905061295760c08301866128cc565b60e08201939093526101000152979650505050505050565b6000806040838503121561298257600080fd5b82359150602083013561272281612746565b600080604083850312156129a757600080fd5b50508035926020909101359150565b60208082526025908201527f506177506f6f6c3a20436c61696d206e6f7420696e20496e5265766965772073604082015264746174757360d81b606082015260800190565b634e487b7160e01b600052601160045260246000fd5b80820180821115612a2457612a246129fb565b92915050565b634e487b7160e01b600052603260045260246000fd5b600060018201612a5257612a526129fb565b5060010190565b6001600160a01b039384168152919092166020820152604081019190915260600190565b600060208284031215612a8f57600080fd5b8151612778816126ef565b60008060408385031215612aad57600080fd5b8251612ab881612746565b602084015190925067ffffffffffffffff811115612ad557600080fd5b8301601f81018513612ae657600080fd5b8051612af4612851826127c6565b818152866020838501011115612b0957600080fd5b612b1a826020830160208601612892565b8093505050509250929050565b8082028115828204841417612a2457612a246129fb565b600082612b5b57634e487b7160e01b600052601260045260246000fd5b500490565b6020808252825182820181905260009190848201906040850190845b81811015612b9857835183529284019291840191600101612b7c565b50909695505050505050565b600181811c90821680612bb857607f821691505b602082108103612bd857634e487b7160e01b600052602260045260246000fd5b50919050565b601f821115612c2857600081815260208120601f850160051c81016020861015612c055750805b601f850160051c820191505b81811015612c2457828155600101612c11565b5050505b505050565b815167ffffffffffffffff811115612c4757612c4761277f565b612c5b81612c558454612ba4565b84612bde565b602080601f831160018114612c905760008415612c785750858301515b600019600386901b1c1916600185901b178555612c24565b600085815260208120601f198616915b82811015612cbf57888601518255948401946001909101908401612ca0565b5085821015612cdd5787850151600019600388901b60f8161c191681555b5050505050600190811b01905550565b81810381811115612a2457612a246129fb565b634e487b7160e01b600052603160045260246000fd5b60208101612a2482846128cc565b600060208284031215612d3657600080fd5b5051919050565b60006040820160408352808554808352606085019150600092508683526020808420845b83811015612d865781546001600160a01b031685529382019360019182019101612d61565b505085830381870152865480845287855281852093820192505b80851015612dbf57835483526001948501949093019291810191612da0565b509097965050505050505056fea2646970667358221220dba751f6388550fabbb3cc089970a5494922bf94368efa872e3224a57e4cca3564736f6c63430008140033",
  "linkReferences": {},
  "deployedLinkReferences": {}
}