{
  "_format": "hh-sol-artifact-1",
  "contractName": "PawPool",
  "sourceName": "contracts/PawPool.sol",
  "abi": [
    {
      "inputs": [
        {
          "internalType": "address",
          "name": "_petNFTAddress",
          "type": "address"
        },
        {
          "internalType": "address",
          "name": "_pawTokenAddress",
          "type": "address"
        },
        {
          "internalType": "address",
          "name": "_guardTokenAddress",
          "type": "address"
        },
        {
          "internalType": "address",
          "name": "_vetCredentialAddress",
          "type": "address"
        },
        {
          "internalType": "address",
          "name": "_juryIdentityAddress",
          "type": "address"
        }
      ],
      "stateMutability": "nonpayable",
      "type": "constructor"
    },
    {
      "inputs": [
        {
          "internalType": "address",
          "name": "owner",
          "type": "address"
        }
      ],
      "name": "OwnableInvalidOwner",
      "type": "error"
    },
    {
      "inputs": [
        {
          "internalType": "address",
          "name": "account",
          "type": "address"
        }
      ],
      "name": "OwnableUnauthorizedAccount",
      "type": "error"
    },
    {
      "anonymous": false,
      "inputs": [
        {
          "indexed": true,
          "internalType": "uint256",
          "name": "claimId",
          "type": "uint256"
        },
        {
          "indexed": false,
          "internalType": "address[]",
          "name": "recipients",
          "type": "address[]"
        },
        {
          "indexed": false,
          "internalType": "uint256[]",
          "name": "amounts",
          "type": "uint256[]"
        }
      ],
      "name": "ClaimPayout",
      "type": "event"
    },
    {
      "anonymous": false,
      "inputs": [
        {
          "indexed": true,
          "internalType": "uint256",
          "name": "claimId",
          "type": "uint256"
        },
        {
          "indexed": false,
          "internalType": "enum PawPool.ClaimStatus",
          "name": "newStatus",
          "type": "uint8"
        }
      ],
      "name": "ClaimStatusUpdated",
      "type": "event"
    },
    {
      "anonymous": false,
      "inputs": [
        {
          "indexed": true,
          "internalType": "uint256",
          "name": "claimId",
          "type": "uint256"
        },
        {
          "indexed": true,
          "internalType": "uint256",
          "name": "petId",
          "type": "uint256"
        },
        {
          "indexed": true,
          "internalType": "address",
          "name": "owner",
          "type": "address"
        },
        {
          "indexed": false,
          "internalType": "uint256",
          "name": "requestedAmount",
          "type": "uint256"
        }
      ],
      "name": "ClaimSubmitted",
      "type": "event"
    },
    {
      "anonymous": false,
      "inputs": [
        {
          "indexed": true,
          "internalType": "uint256",
          "name": "claimId",
          "type": "uint256"
        },
        {
          "indexed": false,
          "internalType": "uint256[]",
          "name": "juryMemberIds",
          "type": "uint256[]"
        }
      ],
      "name": "JurySelected",
      "type": "event"
    },
    {
      "anonymous": false,
      "inputs": [
        {
          "indexed": true,
          "internalType": "address",
          "name": "previousOwner",
          "type": "address"
        },
        {
          "indexed": true,
          "internalType": "address",
          "name": "newOwner",
          "type": "address"
        }
      ],
      "name": "OwnershipTransferred",
      "type": "event"
    },
    {
      "anonymous": false,
      "inputs": [
        {
          "indexed": true,
          "internalType": "address",
          "name": "staker",
          "type": "address"
        },
        {
          "indexed": false,
          "internalType": "uint256",
          "name": "amount",
          "type": "uint256"
        }
      ],
      "name": "PawStaked",
      "type": "event"
    },
    {
      "anonymous": false,
      "inputs": [
        {
          "indexed": true,
          "internalType": "address",
          "name": "staker",
          "type": "address"
        },
        {
          "indexed": false,
          "internalType": "uint256",
          "name": "amount",
          "type": "uint256"
        }
      ],
      "name": "PawUnstaked",
      "type": "event"
    },
    {
      "anonymous": false,
      "inputs": [
        {
          "indexed": true,
          "internalType": "uint256",
          "name": "petId",
          "type": "uint256"
        },
        {
          "indexed": true,
          "internalType": "address",
          "name": "payer",
          "type": "address"
        },
        {
          "indexed": false,
          "internalType": "uint256",
          "name": "amount",
          "type": "uint256"
        }
      ],
      "name": "PremiumPaid",
      "type": "event"
    },
    {
      "anonymous": false,
      "inputs": [
        {
          "indexed": true,
          "internalType": "uint256",
          "name": "claimId",
          "type": "uint256"
        },
        {
          "indexed": true,
          "internalType": "address",
          "name": "juror",
          "type": "address"
        },
        {
          "indexed": false,
          "internalType": "bool",
          "name": "approved",
          "type": "bool"
        }
      ],
      "name": "VoteRecorded",
      "type": "event"
    },
    {
      "inputs": [],
      "name": "MAJORITY_THRESHOLD",
      "outputs": [
        {
          "internalType": "uint256",
          "name": "",
          "type": "uint256"
        }
      ],
      "stateMutability": "view",
      "type": "function"
    },
    {
      "inputs": [],
      "name": "PAW_REWARD_PER_JUROR",
      "outputs": [
        {
          "internalType": "uint256",
          "name": "",
          "type": "uint256"
        }
      ],
      "stateMutability": "view",
      "type": "function"
    },
    {
      "inputs": [],
      "name": "REQUIRED_JURY_VOTES",
      "outputs": [
        {
          "internalType": "uint256",
          "name": "",
          "type": "uint256"
        }
      ],
      "stateMutability": "view",
      "type": "function"
    },
    {
      "inputs": [],
      "name": "basePremium",
      "outputs": [
        {
          "internalType": "uint256",
          "name": "",
          "type": "uint256"
        }
      ],
      "stateMutability": "view",
      "type": "function"
    },
    {
      "inputs": [
        {
          "internalType": "uint256",
          "name": "",
          "type": "uint256"
        },
        {
          "internalType": "address",
          "name": "",
          "type": "address"
        }
      ],
      "name": "claimHasVoted",
      "outputs": [
        {
          "internalType": "bool",
          "name": "",
          "type": "bool"
        }
      ],
      "stateMutability": "view",
      "type": "function"
    },
    {
      "inputs": [],
      "name": "claimSubmissionFee",
      "outputs": [
        {
          "internalType": "uint256",
          "name": "",
          "type": "uint256"
        }
      ],
      "stateMutability": "view",
      "type": "function"
    },
    {
      "inputs": [
        {
          "internalType": "uint256",
          "name": "",
          "type": "uint256"
        },
        {
          "internalType": "address",
          "name": "",
          "type": "address"
        }
      ],
      "name": "claimVoteApproved",
      "outputs": [
        {
          "internalType": "bool",
          "name": "",
          "type": "bool"
        }
      ],
      "stateMutability": "view",
      "type": "function"
    },
    {
      "inputs": [
        {
          "internalType": "uint256",
          "name": "",
          "type": "uint256"
        }
      ],
      "name": "claims",
      "outputs": [
        {
          "internalType": "uint256",
          "name": "petId",
          "type": "uint256"
        },
        {
          "internalType": "address",
          "name": "owner",
          "type": "address"
        },
        {
          "internalType": "address",
          "name": "treatingVet",
          "type": "address"
        },
        {
          "internalType": "string",
          "name": "vetDiagnosisIPFSHash",
          "type": "string"
        },
        {
          "internalType": "uint256",
          "name": "submissionTimestamp",
          "type": "uint256"
        },
        {
          "internalType": "uint256",
          "name": "requestedPayoutAmount",
          "type": "uint256"
        },
        {
          "internalType": "enum PawPool.ClaimStatus",
          "name": "status",
          "type": "uint8"
        },
        {
          "internalType": "uint256",
          "name": "approveVotes",
          "type": "uint256"
        },
        {
          "internalType": "uint256",
          "name": "rejectVotes",
          "type": "uint256"
        }
      ],
      "stateMutability": "view",
      "type": "function"
    },
    {
      "inputs": [
        {
          "internalType": "uint256",
          "name": "_claimId",
          "type": "uint256"
        }
      ],
      "name": "finalizeClaimVoting",
      "outputs": [],
      "stateMutability": "nonpayable",
      "type": "function"
    },
    {
      "inputs": [
        {
          "internalType": "uint256",
          "name": "_petId",
          "type": "uint256"
        }
      ],
      "name": "getPetPremium",
      "outputs": [
        {
          "internalType": "uint256",
          "name": "",
          "type": "uint256"
        }
      ],
      "stateMutability": "view",
      "type": "function"
    },
    {
      "inputs": [],
      "name": "guardToken",
      "outputs": [
        {
          "internalType": "contract IERC20",
          "name": "",
          "type": "address"
        }
      ],
      "stateMutability": "view",
      "type": "function"
    },
    {
      "inputs": [],
      "name": "immediatePayoutPool",
      "outputs": [
        {
          "internalType": "uint256",
          "name": "",
          "type": "uint256"
        }
      ],
      "stateMutability": "view",
      "type": "function"
    },
    {
      "inputs": [],
      "name": "juryDepositAmount",
      "outputs": [
        {
          "internalType": "uint256",
          "name": "",
          "type": "uint256"
        }
      ],
      "stateMutability": "view",
      "type": "function"
    },
    {
      "inputs": [],
      "name": "juryIdentityContract",
      "outputs": [
        {
          "internalType": "contract JuryIdentity",
          "name": "",
          "type": "address"
        }
      ],
      "stateMutability": "view",
      "type": "function"
    },
    {
      "inputs": [],
      "name": "juryVotingPeriod",
      "outputs": [
        {
          "internalType": "uint256",
          "name": "",
          "type": "uint256"
        }
      ],
      "stateMutability": "view",
      "type": "function"
    },
    {
      "inputs": [],
      "name": "owner",
      "outputs": [
        {
          "internalType": "address",
          "name": "",
          "type": "address"
        }
      ],
      "stateMutability": "view",
      "type": "function"
    },
    {
      "inputs": [
        {
          "internalType": "address",
          "name": "",
          "type": "address"
        }
      ],
      "name": "pawStakes",
      "outputs": [
        {
          "internalType": "uint256",
          "name": "",
          "type": "uint256"
        }
      ],
      "stateMutability": "view",
      "type": "function"
    },
    {
      "inputs": [],
      "name": "pawToken",
      "outputs": [
        {
          "internalType": "contract IERC20",
          "name": "",
          "type": "address"
        }
      ],
      "stateMutability": "view",
      "type": "function"
    },
    {
      "inputs": [
        {
          "internalType": "uint256",
          "name": "_petId",
          "type": "uint256"
        },
        {
          "internalType": "uint256",
          "name": "_amount",
          "type": "uint256"
        }
      ],
      "name": "payPremium",
      "outputs": [],
      "stateMutability": "nonpayable",
      "type": "function"
    },
    {
      "inputs": [],
      "name": "petNFT",
      "outputs": [
        {
          "internalType": "contract PetNFT",
          "name": "",
          "type": "address"
        }
      ],
      "stateMutability": "view",
      "type": "function"
    },
    {
      "inputs": [],
      "name": "renounceOwnership",
      "outputs": [],
      "stateMutability": "nonpayable",
      "type": "function"
    },
    {
      "inputs": [],
      "name": "riskReservePool",
      "outputs": [
        {
          "internalType": "uint256",
          "name": "",
          "type": "uint256"
        }
      ],
      "stateMutability": "view",
      "type": "function"
    },
    {
      "inputs": [
        {
          "internalType": "uint256",
          "name": "_claimId",
          "type": "uint256"
        }
      ],
      "name": "selectJury",
      "outputs": [],
      "stateMutability": "nonpayable",
      "type": "function"
    },
    {
      "inputs": [],
      "name": "stableYieldPool",
      "outputs": [
        {
          "internalType": "uint256",
          "name": "",
          "type": "uint256"
        }
      ],
      "stateMutability": "view",
      "type": "function"
    },
    {
      "inputs": [
        {
          "internalType": "uint256",
          "name": "_amount",
          "type": "uint256"
        }
      ],
      "name": "stakePaw",
      "outputs": [],
      "stateMutability": "nonpayable",
      "type": "function"
    },
    {
      "inputs": [
        {
          "internalType": "uint256",
          "name": "_petId",
          "type": "uint256"
        },
        {
          "internalType": "address",
          "name": "_treatingVetAddress",
          "type": "address"
        },
        {
          "internalType": "string",
          "name": "_vetDiagnosisIPFSHash",
          "type": "string"
        },
        {
          "internalType": "uint256",
          "name": "_requestedPayoutAmount",
          "type": "uint256"
        }
      ],
      "name": "submitClaim",
      "outputs": [],
      "stateMutability": "nonpayable",
      "type": "function"
    },
    {
      "inputs": [
        {
          "internalType": "address",
          "name": "newOwner",
          "type": "address"
        }
      ],
      "name": "transferOwnership",
      "outputs": [],
      "stateMutability": "nonpayable",
      "type": "function"
    },
    {
      "inputs": [
        {
          "internalType": "uint256",
          "name": "_amount",
          "type": "uint256"
        }
      ],
      "name": "unstakePaw",
      "outputs": [],
      "stateMutability": "nonpayable",
      "type": "function"
    },
    {
      "inputs": [],
      "name": "vetCredentialContract",
      "outputs": [
        {
          "internalType": "contract VeterinarianCredential",
          "name": "",
          "type": "address"
        }
      ],
      "stateMutability": "view",
      "type": "function"
    },
    {
      "inputs": [
        {
          "internalType": "uint256",
          "name": "_claimId",
          "type": "uint256"
        },
        {
          "internalType": "bool",
          "name": "_approved",
          "type": "bool"
        }
      ],
      "name": "voteOnClaim",
      "outputs": [],
      "stateMutability": "nonpayable",
      "type": "function"
    }
  ],
  "bytecode": "0x60806040523480156200001157600080fd5b5060405162002da638038062002da683398101604081905262000034916200015c565b33806200005b57604051631e4fbdf760e01b81526000600482015260240160405180910390fd5b6200006681620000ef565b50600180546001600160a01b03199081166001600160a01b0397881617909155600280548216958716959095179094556003805485169386169390931790925560048054841691851691909117905560058054909216921691909117905568056bc75e2d631000006006819055600755678ac7230489e800006008556203f480600955620001cc565b600080546001600160a01b038381166001600160a01b0319831681178455604051919092169283917f8be0079c531659141344cd1fd0a4f28419497f9722a3daafe3b4186f6b6457e09190a35050565b80516001600160a01b03811681146200015757600080fd5b919050565b600080600080600060a086880312156200017557600080fd5b62000180866200013f565b945062000190602087016200013f565b9350620001a0604087016200013f565b9250620001b0606087016200013f565b9150620001c0608087016200013f565b90509295509295909350565b612bca80620001dc6000396000f3fe608060405234801561001057600080fd5b50600436106101da5760003560e01c806386315b7011610104578063c29a5831116100a2578063f032574311610071578063f0325743146103de578063f076b4f01461040c578063f2fde38b1461041f578063fda7e2e31461043257600080fd5b8063c29a583114610372578063cbbc4a2314610385578063db9b9542146103c3578063e56588ef146103cb57600080fd5b80638fb47de7116100de5780638fb47de71461032f578063a5bd798214610338578063a888c2cd14610341578063a99a50f41461036957600080fd5b806386315b70146102f857806386eb241c1461030b5780638da5cb5b1461031e57600080fd5b80633b7c13351161017c57806362e0621b1161014b57806362e0621b146102cb5780636dd98867146102d4578063707b3642146102e7578063715018a6146102f057600080fd5b80633b7c1335146102875780634d55a58d1461028f57806350b312a61461029857806351fb8370146102b857600080fd5b80632d95ada9116101b85780632d95ada91461022d5780632ec1765b1461025857806331b7f77d1461026b57806334332ce71461027e57600080fd5b80630ed6a89c146101df57806321725b67146101f4578063299f429f14610207575b600080fd5b6101f26101ed3660046124e9565b610441565b005b6101f2610202366004612519565b610705565b61021a610215366004612519565b61095f565b6040519081526020015b60405180910390f35b600554610240906001600160a01b031681565b6040516001600160a01b039091168152602001610224565b600254610240906001600160a01b031681565b600454610240906001600160a01b031681565b61021a600c5481565b61021a601581565b61021a60085481565b61021a6102a6366004612547565b60116020526000908152604090205481565b6101f26102c6366004612519565b610a5d565b61021a60075481565b600154610240906001600160a01b031681565b61021a60095481565b6101f2610c5a565b6101f2610306366004612519565b610c6e565b6101f26103193660046125da565b6110ae565b6000546001600160a01b0316610240565b61021a600b5481565b61021a60065481565b61035461034f366004612519565b6115bd565b604051610224999897969594939291906126da565b61021a600a5481565b6101f2610380366004612519565b61169e565b6103b361039336600461275b565b600d60209081526000928352604080842090915290825290205460ff1681565b6040519015158152602001610224565b61021a600281565b600354610240906001600160a01b031681565b6103b36103ec36600461275b565b600e60209081526000928352604080842090915290825290205460ff1681565b6101f261041a366004612780565b611a13565b6101f261042d366004612547565b611cf7565b61021a674563918244f4000081565b60008281526010602052604090206001600682015460ff16600481111561046a5761046a6126a2565b146104905760405162461bcd60e51b8152600401610487906127a2565b60405180910390fd5b60095481600401546104a291906127fd565b4211156104f15760405162461bcd60e51b815260206004820181905260248201527f506177506f6f6c3a20566f74696e6720706572696f642068617320656e6465646044820152606401610487565b6000805b600783015481101561055557336001600160a01b031683600701828154811061052057610520612816565b6000918252602090912001546001600160a01b0316036105435760019150610555565b8061054d8161282c565b9150506104f5565b50806105bf5760405162461bcd60e51b815260206004820152603360248201527f506177506f6f6c3a2043616c6c6572206973206e6f742061206a757279206d656044820152726d62657220666f72207468697320636c61696d60681b6064820152608401610487565b6000848152600d6020908152604080832033845290915290205460ff16156106225760405162461bcd60e51b815260206004820152601660248201527514185dd41bdbdb0e88105b1c9958591e481d9bdd195960521b6044820152606401610487565b6000848152600d6020908152604080832033808552908352818420805460ff19908116600117909155888552600e845282852091855292529091208054851580159190931617905561068a576008820180549060006106808361282c565b91905055506106a2565b60098201805490600061069c8361282c565b91905055505b6040518315158152339085907fc6b0caf0039f6dcd1cf9e0c5ce6d527392c56b3363d20f4bf20a0ea906d23a4a9060200160405180910390a36015826009015483600801546106f191906127fd565b036106ff576106ff84611d35565b50505050565b6000811161076d5760405162461bcd60e51b815260206004820152602f60248201527f506177506f6f6c3a205374616b6520616d6f756e74206d75737420626520677260448201526e6561746572207468616e207a65726f60881b6064820152608401610487565b6002546040516323b872dd60e01b8152336004820152306024820152604481018390526001600160a01b03909116906323b872dd906064016020604051808303816000875af11580156107c4573d6000803e3d6000fd5b505050506040513d601f19601f820116820180604052508101906107e89190612845565b6108345760405162461bcd60e51b815260206004820152601960248201527f506177506f6f6c3a20504157207374616b65206661696c6564000000000000006044820152606401610487565b33600090815260116020526040812054900361088d57601280546001810182556000919091527fbb8a6a4669ba250d26cd7a459eca9d215f8307e33aebe50379bc5a3617ec34440180546001600160a01b031916331790555b33600090815260116020526040812080548392906108ac9084906127fd565b90915550506005543360008181526011602052604090819020549051639f65080b60e01b8152600481019290925260248201526001600160a01b0390911690639f65080b90604401600060405180830381600087803b15801561090e57600080fd5b505af1158015610922573d6000803e3d6000fd5b50506040518381523392507f5d5e9d9429dce74b13b42e5365d7b54d01e1859421af27283a156ac9802dcf4b91506020015b60405180910390a250565b600154604051634c9d585d60e11b81526004810183905260009182916001600160a01b039091169063993ab0ba90602401600060405180830381865afa1580156109ad573d6000803e3d6000fd5b505050506040513d6000823e601f3d908101601f191682016040526109d59190810190612862565b5090506001600160a01b038116610a2e5760405162461bcd60e51b815260206004820152601e60248201527f506177506f6f6c3a205065744e465420646f6573206e6f7420657869737400006044820152606401610487565b6000610a3984611e5f565b9050606481600654610a4b91906128ef565b610a559190612906565b949350505050565b60008181526010602052604090206001600682015460ff166004811115610a8657610a866126a2565b14610aa35760405162461bcd60e51b8152600401610487906127a2565b6009548160040154610ab591906127fd565b4211610b0f5760405162461bcd60e51b8152602060048201526024808201527f506177506f6f6c3a20566f74696e6720706572696f64206e6f7420656e646564604482015263081e595d60e21b6064820152608401610487565b610b1882611d35565b60006002600683015460ff166004811115610b3557610b356126a2565b14905060005b60078301548110156106ff576000836007018281548110610b5e57610b5e612816565b6000918252602080832090910154878352600d825260408084206001600160a01b039092168085529190925291205490915060ff1615610c47576000858152600e602090815260408083206001600160a01b038086168552925291829020546005549251637b61eef360e11b815260ff909116928315158715151492169063f6c3dde690610c129086908b9086906004016001600160a01b0393909316835260208301919091521515604082015260600190565b600060405180830381600087803b158015610c2c57600080fd5b505af1158015610c40573d6000803e3d6000fd5b5050505050505b5080610c528161282c565b915050610b3b565b610c62611eea565b610c6c6000611f17565b565b610c76611eea565b600081815260106020526040812090600682015460ff166004811115610c9e57610c9e6126a2565b14610cf75760405162461bcd60e51b8152602060048201526024808201527f506177506f6f6c3a20436c61696d206e6f7420696e2050656e64696e672073746044820152636174757360e01b6064820152608401610487565b60125460151115610d615760405162461bcd60e51b815260206004820152602e60248201527f506177506f6f6c3a204e6f7420656e6f756768207374616b65727320666f722060448201526d353ab93c9039b2b632b1ba34b7b760911b6064820152608401610487565b601254600090819067ffffffffffffffff811115610d8157610d8161256b565b604051908082528060200260200182016040528015610daa578160200160208202803683370190505b50905060005b601254811015610ed857600554601280546001600160a01b039092169163d4f7ba12919084908110610de457610de4612816565b60009182526020909120015460405160e083901b6001600160e01b03191681526001600160a01b039091166004820152602401602060405180830381865afa158015610e34573d6000803e3d6000fd5b505050506040513d601f19601f82011682018060405250810190610e589190612845565b15610ec65760128181548110610e7057610e70612816565b9060005260206000200160009054906101000a90046001600160a01b0316828481518110610ea057610ea0612816565b6001600160a01b039092166020928302919091019091015282610ec28161282c565b9350505b80610ed08161282c565b915050610db0565b506015821015610f365760405162461bcd60e51b815260206004820152602360248201527f506177506f6f6c3a204e6f7420656e6f75676820656c696769626c65206a75726044820152626f727360e81b6064820152608401610487565b60005b6015811015610fa55783600701828281518110610f5857610f58612816565b60209081029190910181015182546001810184556000938452919092200180546001600160a01b0319166001600160a01b0390921691909117905580610f9d8161282c565b915050610f39565b5060068301805460ff19166001179055600783015460009067ffffffffffffffff811115610fd557610fd561256b565b604051908082528060200260200182016040528015610ffe578160200160208202803683370190505b50905060005b600785015481101561106e5784600701818154811061102557611025612816565b60009182526020909120015482516001600160a01b039091169083908390811061105157611051612816565b6020908102919091010152806110668161282c565b915050611004565b50847ff012679c4bedfb86fcf004a7f18dd929a2b8765502fc39d9561052a9c1b5b3808260405161109f9190612928565b60405180910390a25050505050565b600154604051634c9d585d60e11b8152600481018690526000916001600160a01b03169063993ab0ba90602401600060405180830381865afa1580156110f8573d6000803e3d6000fd5b505050506040513d6000823e601f3d908101601f191682016040526111209190810190612862565b5090506001600160a01b038116331461118c5760405162461bcd60e51b815260206004820152602860248201527f506177506f6f6c3a204f6e6c7920706574206f776e65722063616e207375626d604482015267697420636c61696d60c01b6064820152608401610487565b600154604051631afb29a760e01b8152600481018790526001600160a01b03868116602483015290911690631afb29a790604401602060405180830381865afa1580156111dd573d6000803e3d6000fd5b505050506040513d601f19601f820116820180604052508101906112019190612845565b61126a5760405162461bcd60e51b815260206004820152603460248201527f506177506f6f6c3a205472656174696e6720766574206973206e6f74206175746044820152731a1bdc9a5e995908199bdc881d1a1a5cc81c195d60621b6064820152608401610487565b6004805460405163edf9384560e01b81526001600160a01b038781169382019390935291169063edf9384590602401602060405180830381865afa1580156112b6573d6000803e3d6000fd5b505050506040513d601f19601f820116820180604052508101906112da9190612845565b61133b5760405162461bcd60e51b815260206004820152602c60248201527f506177506f6f6c3a2056657420646f6573206e6f7420686176652076616c696460448201526b2063726564656e7469616c7360a01b6064820152608401610487565b60008351116113a55760405162461bcd60e51b815260206004820152603060248201527f506177506f6f6c3a2056657420646961676e6f7369732049504653206861736860448201526f2063616e6e6f7420626520656d70747960801b6064820152608401610487565b6000821161140e5760405162461bcd60e51b815260206004820152603060248201527f506177506f6f6c3a205061796f757420616d6f756e74206d757374206265206760448201526f726561746572207468616e207a65726f60801b6064820152608401610487565b6003546008546040516323b872dd60e01b815233600482015230602482015260448101919091526001600160a01b03909116906323b872dd906064016020604051808303816000875af1158015611469573d6000803e3d6000fd5b505050506040513d601f19601f8201168201806040525081019061148d9190612845565b6114ef5760405162461bcd60e51b815260206004820152602d60248201527f506177506f6f6c3a20436c61696d207375626d697373696f6e2066656520747260448201526c185b9cd9995c8819985a5b1959609a1b6064820152608401610487565b600f80549060006114ff8361282c565b9091555050600f546000818152601060205260409020868155600181018054336001600160a01b0319918216179091556002820180549091166001600160a01b0388161790556003810161155386826129f5565b504260048201556005810184905560068101805460ff1916905560006008820181905560098201556040518481523390889084907f3a30d1c4069e097873e77443df9683e8de5c7ba3674315b8670a0211e31301959060200160405180910390a450505050505050565b601060205260009081526040902080546001820154600283015460038401805493946001600160a01b039384169493909216926115f99061296c565b80601f01602080910402602001604051908101604052809291908181526020018280546116259061296c565b80156116725780601f1061164757610100808354040283529160200191611672565b820191906000526020600020905b81548152906001019060200180831161165557829003601f168201915b50505060048401546005850154600686015460088701546009909701549596929591945060ff16925089565b600081116117085760405162461bcd60e51b815260206004820152603160248201527f506177506f6f6c3a20556e7374616b6520616d6f756e74206d7573742062652060448201527067726561746572207468616e207a65726f60781b6064820152608401610487565b336000908152601160205260409020548111156117675760405162461bcd60e51b815260206004820181905260248201527f506177506f6f6c3a20496e73756666696369656e74207374616b6564205041576044820152606401610487565b3360009081526011602052604081208054839290611786908490612ab5565b90915550503360009081526011602052604081205490036118ab5760005b6012548110156118a957336001600160a01b0316601282815481106117cb576117cb612816565b6000918252602090912001546001600160a01b03160361189757601280546117f590600190612ab5565b8154811061180557611805612816565b600091825260209091200154601280546001600160a01b03909216918390811061183157611831612816565b9060005260206000200160006101000a8154816001600160a01b0302191690836001600160a01b03160217905550601280548061187057611870612ac8565b600082815260209020810160001990810180546001600160a01b03191690550190556118a9565b806118a18161282c565b9150506117a4565b505b6005543360008181526011602052604090819020549051639f65080b60e01b8152600481019290925260248201526001600160a01b0390911690639f65080b90604401600060405180830381600087803b15801561190857600080fd5b505af115801561191c573d6000803e3d6000fd5b505060025460405163a9059cbb60e01b8152336004820152602481018590526001600160a01b03909116925063a9059cbb91506044016020604051808303816000875af1158015611971573d6000803e3d6000fd5b505050506040513d601f19601f820116820180604052508101906119959190612845565b6119e15760405162461bcd60e51b815260206004820152601b60248201527f506177506f6f6c3a2050415720756e7374616b65206661696c656400000000006044820152606401610487565b60405181815233907f8b8260be5f6a219a1416bfd82b27266cde89f38c8372cbab419f9ace74f4f58290602001610954565b600154604051634c9d585d60e11b8152600481018490526000916001600160a01b03169063993ab0ba90602401600060405180830381865afa158015611a5d573d6000803e3d6000fd5b505050506040513d6000823e601f3d908101601f19168201604052611a859190810190612862565b5090506001600160a01b0381163314611af05760405162461bcd60e51b815260206004820152602760248201527f506177506f6f6c3a204f6e6c7920706574206f776e65722063616e20706179206044820152667072656d69756d60c81b6064820152608401610487565b6000611afb8461095f565b905080831015611b585760405162461bcd60e51b815260206004820152602260248201527f506177506f6f6c3a20496e73756666696369656e74207072656d69756d2070616044820152611a5960f21b6064820152608401610487565b6003546040516323b872dd60e01b8152336004820152306024820152604481018590526001600160a01b03909116906323b872dd906064016020604051808303816000875af1158015611baf573d6000803e3d6000fd5b505050506040513d601f19601f82011682018060405250810190611bd39190612845565b611c1f5760405162461bcd60e51b815260206004820152601e60248201527f506177506f6f6c3a204755415244207472616e73666572206661696c656400006044820152606401610487565b60006064611c2e85601e6128ef565b611c389190612906565b905060006064611c4986603c6128ef565b611c539190612906565b9050600081611c628488612ab5565b611c6c9190612ab5565b905082600a6000828254611c8091906127fd565b9250508190555081600b6000828254611c9991906127fd565b9250508190555080600c6000828254611cb291906127fd565b9091555050604051868152339088907ffbf1458fbbddabb878de144276216e8ccda619cbac2d598e6ee37ff72173afb19060200160405180910390a350505050505050565b611cff611eea565b6001600160a01b038116611d2957604051631e4fbdf760e01b815260006004820152602401610487565b611d3281611f17565b50565b60008181526010602052604090206001600682015460ff166004811115611d5e57611d5e6126a2565b14611d7b5760405162461bcd60e51b8152600401610487906127a2565b601581600901548260080154611d9191906127fd565b108015611daf57506009548160040154611dab91906127fd565b4211155b15611db8575050565b80600901548160080154611dcc91906127fd565b611dd79060026128ef565b6008820154611de79060036128ef565b1115611e0a5760068101805460ff19166002179055611e0582611f67565b611e1a565b60068101805460ff191660031790555b600681015460405183917f2e7de2377c1e6f85a268dbe00519c60d65c9e38570a118be0eb07feb07fc89be91611e539160ff1690612ade565b60405180910390a25050565b6001546040516318d6f64d60e31b81526004810183905260009182916001600160a01b039091169063c6b7b26890602401602060405180830381865afa158015611ead573d6000803e3d6000fd5b505050506040513d601f19601f82011682018060405250810190611ed19190612aec565b90506064611ee082600a6128ef565b610a5590826127fd565b6000546001600160a01b03163314610c6c5760405163118cdaa760e01b8152336004820152602401610487565b600080546001600160a01b038381166001600160a01b0319831681178455604051919092169283917f8be0079c531659141344cd1fd0a4f28419497f9722a3daafe3b4186f6b6457e09190a35050565b60008181526010602052604090206002600682015460ff166004811115611f9057611f906126a2565b14611fec5760405162461bcd60e51b815260206004820152602660248201527f506177506f6f6c3a20436c61696d206e6f7420617070726f76656420666f72206044820152651c185e5bdd5d60d21b6064820152608401610487565b60058101546003546040516370a0823160e01b815230600482015282916001600160a01b0316906370a0823190602401602060405180830381865afa158015612039573d6000803e3d6000fd5b505050506040513d601f19601f8201168201806040525081019061205d9190612aec565b10156120b75760405162461bcd60e51b815260206004820152602360248201527f506177506f6f6c3a20496e73756666696369656e7420475541524420696e20706044820152621bdbdb60ea1b6064820152608401610487565b600282015460018301546001600160a01b039182169116600060646120dd8560506128ef565b6120e79190612906565b905060006120f58286612ab5565b60035460405163a9059cbb60e01b81526001600160a01b0387811660048301526024820186905292935091169063a9059cbb906044016020604051808303816000875af115801561214a573d6000803e3d6000fd5b505050506040513d601f19601f8201168201806040525081019061216e9190612845565b6121ba5760405162461bcd60e51b815260206004820152601d60248201527f506177506f6f6c3a205061796f757420746f20766574206661696c65640000006044820152606401610487565b60035460405163a9059cbb60e01b81526001600160a01b038581166004830152602482018490529091169063a9059cbb906044016020604051808303816000875af115801561220d573d6000803e3d6000fd5b505050506040513d601f19601f820116820180604052508101906122319190612845565b61227d5760405162461bcd60e51b815260206004820152601f60248201527f506177506f6f6c3a205061796f757420746f206f776e6572206661696c6564006044820152606401610487565b600a86018054600181810183556000838152602080822093840180546001600160a01b03808c166001600160a01b031992831617909255865480860188559095018054918a169190951617909355600b8a01805480840182558183529390912092830186905580549182018155910183905560405189927f2d6bcb17224bb74d43e8a649ff255ccb43ef55c19e1dea8abbc50945cb06db649261231f92612b05565b60405180910390a260048054604051632f3c5f0960e01b81526001600160a01b0387811693820193909352911690632f3c5f0990602401600060405180830381600087803b15801561237057600080fd5b505af1158015612384573d6000803e3d6000fd5b5050505060005b60078701548110156124d15760008760070182815481106123ae576123ae612816565b60009182526020808320909101548b8352600e825260408084206001600160a01b039092168085529190925291205490915060ff16156124be5760025460405163a9059cbb60e01b81526001600160a01b038381166004830152674563918244f4000060248301529091169063a9059cbb906044016020604051808303816000875af1158015612442573d6000803e3d6000fd5b505050506040513d601f19601f820116820180604052508101906124669190612845565b6124be5760405162461bcd60e51b815260206004820152602360248201527f506177506f6f6c3a2050415720726577617264207472616e73666572206661696044820152621b195960ea1b6064820152608401610487565b50806124c98161282c565b91505061238b565b5050505050505050565b8015158114611d3257600080fd5b600080604083850312156124fc57600080fd5b82359150602083013561250e816124db565b809150509250929050565b60006020828403121561252b57600080fd5b5035919050565b6001600160a01b0381168114611d3257600080fd5b60006020828403121561255957600080fd5b813561256481612532565b9392505050565b634e487b7160e01b600052604160045260246000fd5b604051601f8201601f1916810167ffffffffffffffff811182821017156125aa576125aa61256b565b604052919050565b600067ffffffffffffffff8211156125cc576125cc61256b565b50601f01601f191660200190565b600080600080608085870312156125f057600080fd5b84359350602085013561260281612532565b9250604085013567ffffffffffffffff81111561261e57600080fd5b8501601f8101871361262f57600080fd5b803561264261263d826125b2565b612581565b81815288602083850101111561265757600080fd5b81602084016020830137600091810160200191909152949793965093946060013593505050565b60005b83811015612699578181015183820152602001612681565b50506000910152565b634e487b7160e01b600052602160045260246000fd5b600581106126d657634e487b7160e01b600052602160045260246000fd5b9052565b60006101208b835260018060a01b03808c166020850152808b1660408501525080606084015288518082850152610140915061271c8183860160208d0161267e565b6080840189905260a08401889052601f01601f1916830101905061274360c08301866126b8565b60e08201939093526101000152979650505050505050565b6000806040838503121561276e57600080fd5b82359150602083013561250e81612532565b6000806040838503121561279357600080fd5b50508035926020909101359150565b60208082526025908201527f506177506f6f6c3a20436c61696d206e6f7420696e20496e5265766965772073604082015264746174757360d81b606082015260800190565b634e487b7160e01b600052601160045260246000fd5b80820180821115612810576128106127e7565b92915050565b634e487b7160e01b600052603260045260246000fd5b60006001820161283e5761283e6127e7565b5060010190565b60006020828403121561285757600080fd5b8151612564816124db565b6000806040838503121561287557600080fd5b825161288081612532565b602084015190925067ffffffffffffffff81111561289d57600080fd5b8301601f810185136128ae57600080fd5b80516128bc61263d826125b2565b8181528660208385010111156128d157600080fd5b6128e282602083016020860161267e565b8093505050509250929050565b8082028115828204841417612810576128106127e7565b60008261292357634e487b7160e01b600052601260045260246000fd5b500490565b6020808252825182820181905260009190848201906040850190845b8181101561296057835183529284019291840191600101612944565b50909695505050505050565b600181811c9082168061298057607f821691505b6020821081036129a057634e487b7160e01b600052602260045260246000fd5b50919050565b601f8211156129f057600081815260208120601f850160051c810160208610156129cd5750805b601f850160051c820191505b818110156129ec578281556001016129d9565b5050505b505050565b815167ffffffffffffffff811115612a0f57612a0f61256b565b612a2381612a1d845461296c565b846129a6565b602080601f831160018114612a585760008415612a405750858301515b600019600386901b1c1916600185901b1785556129ec565b600085815260208120601f198616915b82811015612a8757888601518255948401946001909101908401612a68565b5085821015612aa55787850151600019600388901b60f8161c191681555b5050505050600190811b01905550565b81810381811115612810576128106127e7565b634e487b7160e01b600052603160045260246000fd5b6020810161281082846126b8565b600060208284031215612afe57600080fd5b5051919050565b60006040820160408352808554808352606085019150600092508683526020808420845b83811015612b4e5781546001600160a01b031685529382019360019182019101612b29565b505085830381870152865480845287855281852093820192505b80851015612b8757835483526001948501949093019291810191612b68565b509097965050505050505056fea26469706673582212205290c63fad15a158c2219d7cf15688c38d42f2ab7165f1ab699c8e2160a9272764736f6c63430008140033",
  "linkReferences": {},
  "deployedLinkReferences": {}
}