{
  "_format": "hh-sol-artifact-1",
  "contractName": "VeterinarianCredential",
  "sourceName": "contracts/VeterinarianCredential.sol",
  "abi": [
    {
      "inputs": [],
      "stateMutability": "nonpayable",
      "type": "constructor"
    },
    {
      "inputs": [],
      "name": "InvalidShortString",
      "type": "error"
    },
    {
      "inputs": [
        {
          "internalType": "address",
          "name": "owner",
          "type": "address"
        }
      ],
      "name": "OwnableInvalidOwner",
      "type": "error"
    },
    {
      "inputs": [
        {
          "internalType": "address",
          "name": "account",
          "type": "address"
        }
      ],
      "name": "OwnableUnauthorizedAccount",
      "type": "error"
    },
    {
      "inputs": [
        {
          "internalType": "string",
          "name": "str",
          "type": "string"
        }
      ],
      "name": "StringTooLong",
      "type": "error"
    },
    {
      "anonymous": false,
      "inputs": [
        {
          "indexed": true,
          "internalType": "address",
          "name": "vetAddress",
          "type": "address"
        },
        {
          "indexed": false,
          "internalType": "string",
          "name": "did",
          "type": "string"
        },
        {
          "indexed": false,
          "internalType": "string",
          "name": "licenseNumber",
          "type": "string"
        },
        {
          "indexed": false,
          "internalType": "uint256",
          "name": "expirationDate",
          "type": "uint256"
        }
      ],
      "name": "CredentialIssued",
      "type": "event"
    },
    {
      "anonymous": false,
      "inputs": [
        {
          "indexed": true,
          "internalType": "address",
          "name": "vetAddress",
          "type": "address"
        }
      ],
      "name": "CredentialReactivated",
      "type": "event"
    },
    {
      "anonymous": false,
      "inputs": [
        {
          "indexed": true,
          "internalType": "address",
          "name": "vetAddress",
          "type": "address"
        },
        {
          "indexed": false,
          "internalType": "string",
          "name": "reason",
          "type": "string"
        }
      ],
      "name": "CredentialRevoked",
      "type": "event"
    },
    {
      "anonymous": false,
      "inputs": [
        {
          "indexed": true,
          "internalType": "address",
          "name": "vetAddress",
          "type": "address"
        },
        {
          "indexed": false,
          "internalType": "string",
          "name": "reason",
          "type": "string"
        }
      ],
      "name": "CredentialSuspended",
      "type": "event"
    },
    {
      "anonymous": false,
      "inputs": [
        {
          "indexed": true,
          "internalType": "address",
          "name": "vetAddress",
          "type": "address"
        },
        {
          "indexed": true,
          "internalType": "address",
          "name": "verifier",
          "type": "address"
        }
      ],
      "name": "CredentialVerified",
      "type": "event"
    },
    {
      "anonymous": false,
      "inputs": [],
      "name": "EIP712DomainChanged",
      "type": "event"
    },
    {
      "anonymous": false,
      "inputs": [
        {
          "indexed": true,
          "internalType": "address",
          "name": "issuer",
          "type": "address"
        }
      ],
      "name": "IssuerAuthorized",
      "type": "event"
    },
    {
      "anonymous": false,
      "inputs": [
        {
          "indexed": true,
          "internalType": "address",
          "name": "issuer",
          "type": "address"
        }
      ],
      "name": "IssuerRevoked",
      "type": "event"
    },
    {
      "anonymous": false,
      "inputs": [
        {
          "indexed": true,
          "internalType": "address",
          "name": "previousOwner",
          "type": "address"
        },
        {
          "indexed": true,
          "internalType": "address",
          "name": "newOwner",
          "type": "address"
        }
      ],
      "name": "OwnershipTransferred",
      "type": "event"
    },
    {
      "anonymous": false,
      "inputs": [
        {
          "indexed": true,
          "internalType": "address",
          "name": "vetAddress",
          "type": "address"
        },
        {
          "indexed": false,
          "internalType": "uint256",
          "name": "newScore",
          "type": "uint256"
        },
        {
          "indexed": false,
          "internalType": "string",
          "name": "reason",
          "type": "string"
        }
      ],
      "name": "ReputationUpdated",
      "type": "event"
    },
    {
      "inputs": [
        {
          "internalType": "address",
          "name": "_issuer",
          "type": "address"
        }
      ],
      "name": "authorizeIssuer",
      "outputs": [],
      "stateMutability": "nonpayable",
      "type": "function"
    },
    {
      "inputs": [
        {
          "internalType": "address[]",
          "name": "_vetAddresses",
          "type": "address[]"
        }
      ],
      "name": "batchCheckValidity",
      "outputs": [
        {
          "internalType": "bool[]",
          "name": "",
          "type": "bool[]"
        }
      ],
      "stateMutability": "view",
      "type": "function"
    },
    {
      "inputs": [
        {
          "internalType": "address",
          "name": "",
          "type": "address"
        }
      ],
      "name": "credentials",
      "outputs": [
        {
          "internalType": "string",
          "name": "did",
          "type": "string"
        },
        {
          "internalType": "address",
          "name": "vetAddress",
          "type": "address"
        },
        {
          "internalType": "string",
          "name": "licenseNumber",
          "type": "string"
        },
        {
          "internalType": "string",
          "name": "credentialIPFSHash",
          "type": "string"
        },
        {
          "internalType": "uint256",
          "name": "issuanceDate",
          "type": "uint256"
        },
        {
          "internalType": "uint256",
          "name": "expirationDate",
          "type": "uint256"
        },
        {
          "internalType": "enum VeterinarianCredential.CredentialStatus",
          "name": "status",
          "type": "uint8"
        },
        {
          "internalType": "address",
          "name": "issuer",
          "type": "address"
        },
        {
          "internalType": "uint256",
          "name": "reputationScore",
          "type": "uint256"
        },
        {
          "internalType": "uint256",
          "name": "totalRecordsIssued",
          "type": "uint256"
        },
        {
          "internalType": "uint256",
          "name": "totalClaimsApproved",
          "type": "uint256"
        }
      ],
      "stateMutability": "view",
      "type": "function"
    },
    {
      "inputs": [
        {
          "internalType": "string",
          "name": "",
          "type": "string"
        }
      ],
      "name": "didToAddress",
      "outputs": [
        {
          "internalType": "address",
          "name": "",
          "type": "address"
        }
      ],
      "stateMutability": "view",
      "type": "function"
    },
    {
      "inputs": [],
      "name": "eip712Domain",
      "outputs": [
        {
          "internalType": "bytes1",
          "name": "fields",
          "type": "bytes1"
        },
        {
          "internalType": "string",
          "name": "name",
          "type": "string"
        },
        {
          "internalType": "string",
          "name": "version",
          "type": "string"
        },
        {
          "internalType": "uint256",
          "name": "chainId",
          "type": "uint256"
        },
        {
          "internalType": "address",
          "name": "verifyingContract",
          "type": "address"
        },
        {
          "internalType": "bytes32",
          "name": "salt",
          "type": "bytes32"
        },
        {
          "internalType": "uint256[]",
          "name": "extensions",
          "type": "uint256[]"
        }
      ],
      "stateMutability": "view",
      "type": "function"
    },
    {
      "inputs": [
        {
          "internalType": "string",
          "name": "_did",
          "type": "string"
        }
      ],
      "name": "getAddressByDID",
      "outputs": [
        {
          "internalType": "address",
          "name": "",
          "type": "address"
        }
      ],
      "stateMutability": "view",
      "type": "function"
    },
    {
      "inputs": [
        {
          "internalType": "address",
          "name": "_vetAddress",
          "type": "address"
        }
      ],
      "name": "getCredential",
      "outputs": [
        {
          "components": [
            {
              "internalType": "string",
              "name": "did",
              "type": "string"
            },
            {
              "internalType": "address",
              "name": "vetAddress",
              "type": "address"
            },
            {
              "internalType": "string",
              "name": "licenseNumber",
              "type": "string"
            },
            {
              "internalType": "string",
              "name": "credentialIPFSHash",
              "type": "string"
            },
            {
              "internalType": "uint256",
              "name": "issuanceDate",
              "type": "uint256"
            },
            {
              "internalType": "uint256",
              "name": "expirationDate",
              "type": "uint256"
            },
            {
              "internalType": "enum VeterinarianCredential.CredentialStatus",
              "name": "status",
              "type": "uint8"
            },
            {
              "internalType": "address",
              "name": "issuer",
              "type": "address"
            },
            {
              "internalType": "uint256",
              "name": "reputationScore",
              "type": "uint256"
            },
            {
              "internalType": "uint256",
              "name": "totalRecordsIssued",
              "type": "uint256"
            },
            {
              "internalType": "uint256",
              "name": "totalClaimsApproved",
              "type": "uint256"
            }
          ],
          "internalType": "struct VeterinarianCredential.Credential",
          "name": "",
          "type": "tuple"
        }
      ],
      "stateMutability": "view",
      "type": "function"
    },
    {
      "inputs": [
        {
          "internalType": "address",
          "name": "_vetAddress",
          "type": "address"
        }
      ],
      "name": "getReputationScore",
      "outputs": [
        {
          "internalType": "uint256",
          "name": "",
          "type": "uint256"
        }
      ],
      "stateMutability": "view",
      "type": "function"
    },
    {
      "inputs": [
        {
          "internalType": "address",
          "name": "_vetAddress",
          "type": "address"
        }
      ],
      "name": "incrementClaimsApproved",
      "outputs": [],
      "stateMutability": "nonpayable",
      "type": "function"
    },
    {
      "inputs": [
        {
          "internalType": "address",
          "name": "_vetAddress",
          "type": "address"
        }
      ],
      "name": "incrementRecordsIssued",
      "outputs": [],
      "stateMutability": "nonpayable",
      "type": "function"
    },
    {
      "inputs": [
        {
          "internalType": "address",
          "name": "_vetAddress",
          "type": "address"
        }
      ],
      "name": "isExpired",
      "outputs": [
        {
          "internalType": "bool",
          "name": "",
          "type": "bool"
        }
      ],
      "stateMutability": "view",
      "type": "function"
    },
    {
      "inputs": [
        {
          "internalType": "address",
          "name": "",
          "type": "address"
        }
      ],
      "name": "isIssuer",
      "outputs": [
        {
          "internalType": "bool",
          "name": "",
          "type": "bool"
        }
      ],
      "stateMutability": "view",
      "type": "function"
    },
    {
      "inputs": [
        {
          "internalType": "address",
          "name": "_vetAddress",
          "type": "address"
        }
      ],
      "name": "isValidCredential",
      "outputs": [
        {
          "internalType": "bool",
          "name": "",
          "type": "bool"
        }
      ],
      "stateMutability": "view",
      "type": "function"
    },
    {
      "inputs": [
        {
          "internalType": "address",
          "name": "_vetAddress",
          "type": "address"
        },
        {
          "internalType": "string",
          "name": "_did",
          "type": "string"
        },
        {
          "internalType": "string",
          "name": "_licenseNumber",
          "type": "string"
        },
        {
          "internalType": "string",
          "name": "_credentialIPFSHash",
          "type": "string"
        },
        {
          "internalType": "uint256",
          "name": "_expirationDate",
          "type": "uint256"
        }
      ],
      "name": "issueCredential",
      "outputs": [],
      "stateMutability": "nonpayable",
      "type": "function"
    },
    {
      "inputs": [],
      "name": "owner",
      "outputs": [
        {
          "internalType": "address",
          "name": "",
          "type": "address"
        }
      ],
      "stateMutability": "view",
      "type": "function"
    },
    {
      "inputs": [
        {
          "internalType": "address",
          "name": "",
          "type": "address"
        },
        {
          "internalType": "uint256",
          "name": "",
          "type": "uint256"
        }
      ],
      "name": "proofs",
      "outputs": [
        {
          "internalType": "bytes",
          "name": "signature",
          "type": "bytes"
        },
        {
          "internalType": "uint256",
          "name": "timestamp",
          "type": "uint256"
        },
        {
          "internalType": "address",
          "name": "signer",
          "type": "address"
        }
      ],
      "stateMutability": "view",
      "type": "function"
    },
    {
      "inputs": [
        {
          "internalType": "address",
          "name": "_vetAddress",
          "type": "address"
        }
      ],
      "name": "reactivateCredential",
      "outputs": [],
      "stateMutability": "nonpayable",
      "type": "function"
    },
    {
      "inputs": [
        {
          "internalType": "address",
          "name": "_vetAddress",
          "type": "address"
        },
        {
          "internalType": "uint256",
          "name": "_newExpirationDate",
          "type": "uint256"
        }
      ],
      "name": "renewCredential",
      "outputs": [],
      "stateMutability": "nonpayable",
      "type": "function"
    },
    {
      "inputs": [],
      "name": "renounceOwnership",
      "outputs": [],
      "stateMutability": "nonpayable",
      "type": "function"
    },
    {
      "inputs": [
        {
          "internalType": "address",
          "name": "_vetAddress",
          "type": "address"
        },
        {
          "internalType": "string",
          "name": "_reason",
          "type": "string"
        }
      ],
      "name": "revokeCredential",
      "outputs": [],
      "stateMutability": "nonpayable",
      "type": "function"
    },
    {
      "inputs": [
        {
          "internalType": "address",
          "name": "_issuer",
          "type": "address"
        }
      ],
      "name": "revokeIssuer",
      "outputs": [],
      "stateMutability": "nonpayable",
      "type": "function"
    },
    {
      "inputs": [
        {
          "internalType": "address",
          "name": "_vetAddress",
          "type": "address"
        },
        {
          "internalType": "string",
          "name": "_reason",
          "type": "string"
        }
      ],
      "name": "suspendCredential",
      "outputs": [],
      "stateMutability": "nonpayable",
      "type": "function"
    },
    {
      "inputs": [
        {
          "internalType": "address",
          "name": "newOwner",
          "type": "address"
        }
      ],
      "name": "transferOwnership",
      "outputs": [],
      "stateMutability": "nonpayable",
      "type": "function"
    },
    {
      "inputs": [
        {
          "internalType": "address",
          "name": "_vetAddress",
          "type": "address"
        },
        {
          "internalType": "uint256",
          "name": "_newScore",
          "type": "uint256"
        },
        {
          "internalType": "string",
          "name": "_reason",
          "type": "string"
        }
      ],
      "name": "updateReputation",
      "outputs": [],
      "stateMutability": "nonpayable",
      "type": "function"
    },
    {
      "inputs": [
        {
          "internalType": "address",
          "name": "_vetAddress",
          "type": "address"
        },
        {
          "internalType": "bytes",
          "name": "_signature",
          "type": "bytes"
        }
      ],
      "name": "verifyCredentialWithProof",
      "outputs": [],
      "stateMutability": "nonpayable",
      "type": "function"
    }
  ],
  "bytecode": "0x6101606040523480156200001257600080fd5b50604080518082018252601681527f5665746572696e617269616e43726564656e7469616c00000000000000000000602080830191909152825180840190935260018352603160f81b908301529033806200008857604051631e4fbdf760e01b8152600060048201526024015b60405180910390fd5b620000938162000169565b50620000a1826001620001b9565b61012052620000b2816002620001b9565b61014052815160208084019190912060e052815190820120610100524660a0526200014060e05161010051604080517f8b73c3c69bb8fe3d512ecc4cf759cc79239f7b179b0ffacaa9a75d522b39400f60208201529081019290925260608201524660808201523060a082015260009060c00160405160208183030381529060405280519060200120905090565b60805250503060c052336000908152600560205260409020805460ff191660011790556200041b565b600080546001600160a01b038381166001600160a01b0319831681178455604051919092169283917f8be0079c531659141344cd1fd0a4f28419497f9722a3daafe3b4186f6b6457e09190a35050565b6000602083511015620001d957620001d183620001f2565b9050620001ec565b81620001e68482620002da565b5060ff90505b92915050565b600080829050601f8151111562000220578260405163305a27a960e01b81526004016200007f9190620003a6565b80516200022d82620003f6565b179392505050565b634e487b7160e01b600052604160045260246000fd5b600181811c908216806200026057607f821691505b6020821081036200028157634e487b7160e01b600052602260045260246000fd5b50919050565b601f821115620002d557600081815260208120601f850160051c81016020861015620002b05750805b601f850160051c820191505b81811015620002d157828155600101620002bc565b5050505b505050565b81516001600160401b03811115620002f657620002f662000235565b6200030e816200030784546200024b565b8462000287565b602080601f8311600181146200034657600084156200032d5750858301515b600019600386901b1c1916600185901b178555620002d1565b600085815260208120601f198616915b82811015620003775788860151825594840194600190910190840162000356565b5085821015620003965787850151600019600388901b60f8161c191681555b5050505050600190811b01905550565b600060208083528351808285015260005b81811015620003d557858101830151858201604001528201620003b7565b506000604082860101526040601f19601f8301168501019250505092915050565b80516020808301519190811015620002815760001960209190910360031b1b16919050565b60805160a05160c05160e051610100516101205161014051612b5f620004676000396000611fef01526000611fbd01526000505060005050600050506000505060005050612b5f6000f3fe608060405234801561001057600080fd5b50600436106101725760003560e01c806375a67d5c116100de578063b94f550c11610097578063ccdad14b11610071578063ccdad14b146103a2578063edf93845146103c2578063f2fde38b146103d5578063f3cf1fd9146103e857600080fd5b8063b94f550c14610369578063ba2eb5411461037c578063bdd6f7a71461038f57600080fd5b806375a67d5c146102c357806384b0196e146102e4578063877b9a67146102ff5780638da5cb5b1461033257806395275732146103435780639b3472691461035657600080fd5b8063436693d511610130578063436693d5146102175780634e46d22b1461022a5780636016dd4a1461024a578063661cb229146102745780636ba1f4a414610287578063715018a6146102bb57600080fd5b806262967914610177578063061b193d1461018c5780630caed23b1461019f5780632f3c5f09146101b2578063393f2dc5146101c55780633d856fff146101f5575b600080fd5b61018a6101853660046121bd565b6103fb565b005b61018a61019a3660046121bd565b61044c565b61018a6101ad36600461229e565b610518565b61018a6101c03660046121bd565b61069f565b6101d86101d33660046122ec565b610758565b6040516001600160a01b0390911681526020015b60405180910390f35b610208610203366004612329565b6107e7565b6040516101ec939291906123a3565b61018a6102253660046121bd565b6108c0565b61023d6102383660046123d6565b610981565b6040516101ec9190612483565b61025d6102583660046121bd565b610a34565b6040516101ec9b9a99989796959493929190612501565b61018a6102823660046121bd565b610c3e565b6101d86102953660046122ec565b80516020818301810180516004825292820191909301209152546001600160a01b031681565b61018a610dbc565b6102d66102d13660046121bd565b610dd0565b6040519081526020016101ec565b6102ec610e33565b6040516101ec9796959493929190612597565b61032261030d3660046121bd565b60056020526000908152604090205460ff1681565b60405190151581526020016101ec565b6000546001600160a01b03166101d8565b61018a61035136600461262d565b610e79565b61018a610364366004612685565b610fe6565b61018a61037736600461229e565b6114ef565b61032261038a3660046121bd565b6115c5565b61018a61039d366004612726565b611626565b6103b56103b03660046121bd565b61177c565b6040516101ec919061277d565b6103226103d03660046121bd565b611a34565b61018a6103e33660046121bd565b611d05565b61018a6103f6366004612329565b611d43565b610403611f39565b6001600160a01b038116600081815260056020526040808220805460ff19169055517f95a4c2ae425bb769549aa1a911911ff57c17ae811ae8c8962d0b9746fcb153979190a250565b6001600160a01b038082166000908152600360205260409020600101548291166104915760405162461bcd60e51b815260040161048890612863565b60405180910390fd5b6001600160a01b03821660009081526003602052604081206008018054916104b8836128ca565b90915550506001600160a01b0382166000908152600360205260409020600701546103e81115610514576001600160a01b038216600090815260036020526040812060070180546001929061050e9084906128e3565b90915550505b5050565b3360009081526005602052604090205460ff168061054057506000546001600160a01b031633145b61055c5760405162461bcd60e51b8152600401610488906128f6565b6001600160a01b038083166000908152600360205260409020600101548391166105985760405162461bcd60e51b815260040161048890612863565b6001600160a01b038316600090815260036020819052604082206006015460ff16908111156105c9576105c96124c9565b1461063c5760405162461bcd60e51b815260206004820152603b60248201527f5665746572696e617269616e43726564656e7469616c3a2043616e206f6e6c7960448201527f2073757370656e64206163746976652063726564656e7469616c7300000000006064820152608401610488565b6001600160a01b03831660008181526003602052604090819020600601805460ff19166001179055517fb985f55626d4a4dc222fee54e5df2e7eba882f7930b672f3d1a6f159bcff573090610692908590612953565b60405180910390a2505050565b6001600160a01b038082166000908152600360205260409020600101548291166106db5760405162461bcd60e51b815260040161048890612863565b6001600160a01b0382166000908152600360205260408120600901805491610702836128ca565b90915550506001600160a01b0382166000908152600360205260409020600701546103e81115610514576001600160a01b038216600090815260036020526040812060070180546002929061050e9084906128e3565b60008060048360405161076b9190612966565b908152604051908190036020019020546001600160a01b03169050806107e15760405162461bcd60e51b815260206004820152602560248201527f5665746572696e617269616e43726564656e7469616c3a20444944206e6f7420604482015264199bdd5b9960da1b6064820152608401610488565b92915050565b6006602052816000526040600020818154811061080357600080fd5b90600052602060002090600302016000915091505080600001805461082790612982565b80601f016020809104026020016040519081016040528092919081815260200182805461085390612982565b80156108a05780601f10610875576101008083540402835291602001916108a0565b820191906000526020600020905b81548152906001019060200180831161088357829003601f168201915b5050505060018301546002909301549192916001600160a01b0316905083565b6108c8611f39565b6001600160a01b0381166109355760405162461bcd60e51b815260206004820152602e60248201527f5665746572696e617269616e43726564656e7469616c3a20496e76616c69642060448201526d697373756572206164647265737360901b6064820152608401610488565b6001600160a01b038116600081815260056020526040808220805460ff19166001179055517f8b4006ca14f23d4e7aa8d120d1ab7c3761d650eefac1a5d6732dbea94b54ea249190a250565b60606000825167ffffffffffffffff81111561099f5761099f6121df565b6040519080825280602002602001820160405280156109c8578160200160208202803683370190505b50905060005b8351811015610a2d576109f98482815181106109ec576109ec6129b6565b6020026020010151611a34565b828281518110610a0b57610a0b6129b6565b9115156020928302919091019091015280610a25816128ca565b9150506109ce565b5092915050565b600360205260009081526040902080548190610a4f90612982565b80601f0160208091040260200160405190810160405280929190818152602001828054610a7b90612982565b8015610ac85780601f10610a9d57610100808354040283529160200191610ac8565b820191906000526020600020905b815481529060010190602001808311610aab57829003601f168201915b505050600184015460028501805494956001600160a01b03909216949193509150610af290612982565b80601f0160208091040260200160405190810160405280929190818152602001828054610b1e90612982565b8015610b6b5780601f10610b4057610100808354040283529160200191610b6b565b820191906000526020600020905b815481529060010190602001808311610b4e57829003601f168201915b505050505090806003018054610b8090612982565b80601f0160208091040260200160405190810160405280929190818152602001828054610bac90612982565b8015610bf95780601f10610bce57610100808354040283529160200191610bf9565b820191906000526020600020905b815481529060010190602001808311610bdc57829003601f168201915b50505050600483015460058401546006850154600786015460088701546009909701549596939592945060ff8216936101009092046001600160a01b0316929091908b565b3360009081526005602052604090205460ff1680610c6657506000546001600160a01b031633145b610c825760405162461bcd60e51b8152600401610488906128f6565b6001600160a01b03808216600090815260036020526040902060010154829116610cbe5760405162461bcd60e51b815260040161048890612863565b60016001600160a01b03831660009081526003602081905260409091206006015460ff1690811115610cf257610cf26124c9565b14610d6f5760405162461bcd60e51b815260206004820152604160248201527f5665746572696e617269616e43726564656e7469616c3a2043616e206f6e6c7960448201527f20726561637469766174652073757370656e6465642063726564656e7469616c6064820152607360f81b608482015260a401610488565b6001600160a01b038216600081815260036020526040808220600601805460ff19169055517f06b0bc771214598af5047d28294445a4531b2db1f549151e6cb8985b553d059e9190a25050565b610dc4611f39565b610dce6000611f66565b565b6001600160a01b038082166000908152600360205260408120600101549091839116610e0e5760405162461bcd60e51b815260040161048890612863565b6001600160a01b03831660009081526003602052604090206007015491505b50919050565b600060608060008060006060610e47611fb6565b610e4f611fe8565b60408051600080825260208201909252600f60f81b9b939a50919850469750309650945092509050565b6001600160a01b03808316600090815260036020526040902060010154839116610eb55760405162461bcd60e51b815260040161048890612863565b610ebe83611a34565b610f295760405162461bcd60e51b815260206004820152603660248201527f5665746572696e617269616e43726564656e7469616c3a20496e76616c6964206044820152751bdc881a5b9858dd1a5d994818dc9959195b9d1a585b60521b6064820152608401610488565b604080516060810182528381524260208083019190915233828401526001600160a01b038616600090815260068252928320805460018101825590845292208151919283926003909102909101908190610f839082612a1a565b5060208201516001820155604091820151600290910180546001600160a01b0319166001600160a01b03928316179055905133918616907fd48dee176f610b25d55ce869a41f31b3e895db7373551d2627b369114774072c90600090a350505050565b3360009081526005602052604090205460ff168061100e57506000546001600160a01b031633145b61102a5760405162461bcd60e51b8152600401610488906128f6565b6001600160a01b0385166110945760405162461bcd60e51b815260206004820152602b60248201527f5665746572696e617269616e43726564656e7469616c3a20496e76616c69642060448201526a766574206164647265737360a81b6064820152608401610488565b6001600160a01b0385811660009081526003602052604090206001015416156111195760405162461bcd60e51b815260206004820152603160248201527f5665746572696e617269616e43726564656e7469616c3a2043726564656e7469604482015270616c20616c72656164792065786973747360781b6064820152608401610488565b60006001600160a01b03166004856040516111349190612966565b908152604051908190036020019020546001600160a01b0316146111b15760405162461bcd60e51b815260206004820152602e60248201527f5665746572696e617269616e43726564656e7469616c3a2044494420616c726560448201526d18591e481c9959da5cdd195c995960921b6064820152608401610488565b4281116112265760405162461bcd60e51b815260206004820152603d60248201527f5665746572696e617269616e43726564656e7469616c3a20457870697261746960448201527f6f6e2064617465206d75737420626520696e20746865206675747572650000006064820152608401610488565b600084511161128b5760405162461bcd60e51b815260206004820152602b60248201527f5665746572696e617269616e43726564656e7469616c3a204449442063616e6e60448201526a6f7420626520656d70747960a81b6064820152608401610488565b60008351116112fb5760405162461bcd60e51b815260206004820152603660248201527f5665746572696e617269616e43726564656e7469616c3a204c6963656e7365206044820152756e756d6265722063616e6e6f7420626520656d70747960501b6064820152608401610488565b604051806101600160405280858152602001866001600160a01b0316815260200184815260200183815260200142815260200182815260200160006003811115611347576113476124c9565b8152336020808301919091526101f460408084019190915260006060840181905260809093018390526001600160a01b038916835260039091529020815181906113919082612a1a565b5060208201516001820180546001600160a01b0319166001600160a01b03909216919091179055604082015160028201906113cc9082612a1a565b50606082015160038201906113e19082612a1a565b506080820151600482015560a0820151600582015560c082015160068201805460ff19166001836003811115611419576114196124c9565b021790555060e08201518160060160016101000a8154816001600160a01b0302191690836001600160a01b03160217905550610100820151816007015561012082015181600801556101408201518160090155905050846004856040516114809190612966565b90815260405190819003602001812080546001600160a01b039384166001600160a01b0319909116179055908616907f05db00e9e9b4cfbd4e49cb03d5c32aaa180a3c8b29c7d3a11470ca874af714cd906114e090879087908690612ada565b60405180910390a25050505050565b3360009081526005602052604090205460ff168061151757506000546001600160a01b031633145b6115335760405162461bcd60e51b8152600401610488906128f6565b6001600160a01b0380831660009081526003602052604090206001015483911661156f5760405162461bcd60e51b815260040161048890612863565b6001600160a01b03831660008181526003602052604090819020600601805460ff19166002179055517f47b59d3599ed2ba34f6334425c05eff11ba50848c9b4c4a10d73ddcc9c8c8d0290610692908590612953565b6001600160a01b0380821660009081526003602052604081206001015490918391166116035760405162461bcd60e51b815260040161048890612863565b50506001600160a01b031660009081526003602052604090206005015442101590565b3360009081526005602052604090205460ff168061164e57506000546001600160a01b031633145b61166a5760405162461bcd60e51b8152600401610488906128f6565b6001600160a01b038084166000908152600360205260409020600101548491166116a65760405162461bcd60e51b815260040161048890612863565b6103e883111561171e5760405162461bcd60e51b815260206004820152603860248201527f5665746572696e617269616e43726564656e7469616c3a2053636f7265206d7560448201527f7374206265206265747765656e203020616e64203130303000000000000000006064820152608401610488565b6001600160a01b03841660008181526003602052604090819020600701859055517fc17e77081800e4bec45161da763d23d62f41146fb2629ee32a8fea0765743a129061176e9086908690612b10565b60405180910390a250505050565b611784612124565b6001600160a01b038083166000908152600360205260409020600101548391166117c05760405162461bcd60e51b815260040161048890612863565b6001600160a01b03831660009081526003602052604090819020815161016081019092528054829082906117f390612982565b80601f016020809104026020016040519081016040528092919081815260200182805461181f90612982565b801561186c5780601f106118415761010080835404028352916020019161186c565b820191906000526020600020905b81548152906001019060200180831161184f57829003601f168201915b505050918352505060018201546001600160a01b0316602082015260028201805460409092019161189c90612982565b80601f01602080910402602001604051908101604052809291908181526020018280546118c890612982565b80156119155780601f106118ea57610100808354040283529160200191611915565b820191906000526020600020905b8154815290600101906020018083116118f857829003601f168201915b5050505050815260200160038201805461192e90612982565b80601f016020809104026020016040519081016040528092919081815260200182805461195a90612982565b80156119a75780601f1061197c576101008083540402835291602001916119a7565b820191906000526020600020905b81548152906001019060200180831161198a57829003601f168201915b50505091835250506004820154602082015260058201546040820152600682015460609091019060ff1660038111156119e2576119e26124c9565b60038111156119f3576119f36124c9565b8152600682015461010090046001600160a01b0316602082015260078201546040820152600882015460608201526009909101546080909101529392505050565b6001600160a01b0381166000908152600360205260408082208151610160810190925280548392919082908290611a6a90612982565b80601f0160208091040260200160405190810160405280929190818152602001828054611a9690612982565b8015611ae35780601f10611ab857610100808354040283529160200191611ae3565b820191906000526020600020905b815481529060010190602001808311611ac657829003601f168201915b505050918352505060018201546001600160a01b03166020820152600282018054604090920191611b1390612982565b80601f0160208091040260200160405190810160405280929190818152602001828054611b3f90612982565b8015611b8c5780601f10611b6157610100808354040283529160200191611b8c565b820191906000526020600020905b815481529060010190602001808311611b6f57829003601f168201915b50505050508152602001600382018054611ba590612982565b80601f0160208091040260200160405190810160405280929190818152602001828054611bd190612982565b8015611c1e5780601f10611bf357610100808354040283529160200191611c1e565b820191906000526020600020905b815481529060010190602001808311611c0157829003601f168201915b50505091835250506004820154602082015260058201546040820152600682015460609091019060ff166003811115611c5957611c596124c9565b6003811115611c6a57611c6a6124c9565b815260068201546001600160a01b03610100909104811660208084019190915260078401546040840152600884015460608401526009909301546080909201919091529082015191925016611cc25750600092915050565b60008160c001516003811115611cda57611cda6124c9565b14611ce85750600092915050565b428160a0015111611cfc5750600092915050565b50600192915050565b611d0d611f39565b6001600160a01b038116611d3757604051631e4fbdf760e01b815260006004820152602401610488565b611d4081611f66565b50565b3360009081526005602052604090205460ff1680611d6b57506000546001600160a01b031633145b611d875760405162461bcd60e51b8152600401610488906128f6565b6001600160a01b03808316600090815260036020526040902060010154839116611dc35760405162461bcd60e51b815260040161048890612863565b428211611e385760405162461bcd60e51b815260206004820152603c60248201527f5665746572696e617269616e43726564656e7469616c3a204e6577206578706960448201527f726174696f6e206d75737420626520696e2074686520667574757265000000006064820152608401610488565b6001600160a01b0383166000908152600360205260409020600501548211611ed25760405162461bcd60e51b815260206004820152604160248201527f5665746572696e617269616e43726564656e7469616c3a204e6577206578706960448201527f726174696f6e206d757374206265206c61746572207468616e2063757272656e6064820152601d60fa1b608482015260a401610488565b6001600160a01b0383166000908152600360208190526040909120600581018490556006015460ff1681811115611f0b57611f0b6124c9565b03611f34576001600160a01b0383166000908152600360205260409020600601805460ff191690555b505050565b6000546001600160a01b03163314610dce5760405163118cdaa760e01b8152336004820152602401610488565b600080546001600160a01b038381166001600160a01b0319831681178455604051919092169283917f8be0079c531659141344cd1fd0a4f28419497f9722a3daafe3b4186f6b6457e09190a35050565b6060611fe37f00000000000000000000000000000000000000000000000000000000000000006001612011565b905090565b6060611fe37f000000000000000000000000000000000000000000000000000000000000000060025b606060ff831461202b57612024836120bd565b90506107e1565b81805461203790612982565b80601f016020809104026020016040519081016040528092919081815260200182805461206390612982565b80156120b05780601f10612085576101008083540402835291602001916120b0565b820191906000526020600020905b81548152906001019060200180831161209357829003601f168201915b5050505050905092915050565b606060006120ca836120fc565b604080516020808252818301909252919250600091906020820181803683375050509182525060208101929092525090565b600060ff8216601f8111156107e157604051632cd44ac360e21b815260040160405180910390fd5b6040518061016001604052806060815260200160006001600160a01b031681526020016060815260200160608152602001600081526020016000815260200160006003811115612176576121766124c9565b815260200160006001600160a01b031681526020016000815260200160008152602001600081525090565b80356001600160a01b03811681146121b857600080fd5b919050565b6000602082840312156121cf57600080fd5b6121d8826121a1565b9392505050565b634e487b7160e01b600052604160045260246000fd5b604051601f8201601f1916810167ffffffffffffffff8111828210171561221e5761221e6121df565b604052919050565b600067ffffffffffffffff831115612240576122406121df565b612253601f8401601f19166020016121f5565b905082815283838301111561226757600080fd5b828260208301376000602084830101529392505050565b600082601f83011261228f57600080fd5b6121d883833560208501612226565b600080604083850312156122b157600080fd5b6122ba836121a1565b9150602083013567ffffffffffffffff8111156122d657600080fd5b6122e28582860161227e565b9150509250929050565b6000602082840312156122fe57600080fd5b813567ffffffffffffffff81111561231557600080fd5b6123218482850161227e565b949350505050565b6000806040838503121561233c57600080fd5b612345836121a1565b946020939093013593505050565b60005b8381101561236e578181015183820152602001612356565b50506000910152565b6000815180845261238f816020860160208601612353565b601f01601f19169290920160200192915050565b6060815260006123b66060830186612377565b6020830194909452506001600160a01b0391909116604090910152919050565b600060208083850312156123e957600080fd5b823567ffffffffffffffff8082111561240157600080fd5b818501915085601f83011261241557600080fd5b813581811115612427576124276121df565b8060051b91506124388483016121f5565b818152918301840191848101908884111561245257600080fd5b938501935b8385101561247757612468856121a1565b82529385019390850190612457565b98975050505050505050565b6020808252825182820181905260009190848201906040850190845b818110156124bd57835115158352928401929184019160010161249f565b50909695505050505050565b634e487b7160e01b600052602160045260246000fd5b600481106124fd57634e487b7160e01b600052602160045260246000fd5b9052565b60006101608083526125158184018f612377565b6001600160a01b038e81166020860152848203604086015290915061253a828e612377565b9150838203606085015261254e828d612377565b92508a60808501528960a085015261256960c085018a6124df565b9690961660e08301526101008201949094526101208101929092526101409091015298975050505050505050565b60ff60f81b881681526000602060e0818401526125b760e084018a612377565b83810360408501526125c9818a612377565b606085018990526001600160a01b038816608086015260a0850187905284810360c0860152855180825283870192509083019060005b8181101561261b578351835292840192918401916001016125ff565b50909c9b505050505050505050505050565b6000806040838503121561264057600080fd5b612649836121a1565b9150602083013567ffffffffffffffff81111561266557600080fd5b8301601f8101851361267657600080fd5b6122e285823560208401612226565b600080600080600060a0868803121561269d57600080fd5b6126a6866121a1565b9450602086013567ffffffffffffffff808211156126c357600080fd5b6126cf89838a0161227e565b955060408801359150808211156126e557600080fd5b6126f189838a0161227e565b9450606088013591508082111561270757600080fd5b506127148882890161227e565b95989497509295608001359392505050565b60008060006060848603121561273b57600080fd5b612744846121a1565b925060208401359150604084013567ffffffffffffffff81111561276757600080fd5b6127738682870161227e565b9150509250925092565b602081526000825161016080602085015261279c610180850183612377565b915060208501516127b860408601826001600160a01b03169052565b506040850151601f19808685030160608701526127d58483612377565b93506060870151915080868503016080870152506127f38382612377565b925050608085015160a085015260a085015160c085015260c085015161281c60e08601826124df565b5060e0850151610100612839818701836001600160a01b03169052565b86015161012086810191909152860151610140808701919091529095015193019290925250919050565b60208082526031908201527f5665746572696e617269616e43726564656e7469616c3a2043726564656e7469604082015270185b08191bd95cc81b9bdd08195e1a5cdd607a1b606082015260800190565b634e487b7160e01b600052601160045260246000fd5b6000600182016128dc576128dc6128b4565b5060010190565b808201808211156107e1576107e16128b4565b6020808252603a908201527f5665746572696e617269616e43726564656e7469616c3a2043616c6c6572206960408201527f73206e6f7420616e20617574686f72697a656420697373756572000000000000606082015260800190565b6020815260006121d86020830184612377565b60008251612978818460208701612353565b9190910192915050565b600181811c9082168061299657607f821691505b602082108103610e2d57634e487b7160e01b600052602260045260246000fd5b634e487b7160e01b600052603260045260246000fd5b601f821115611f3457600081815260208120601f850160051c810160208610156129f35750805b601f850160051c820191505b81811015612a12578281556001016129ff565b505050505050565b815167ffffffffffffffff811115612a3457612a346121df565b612a4881612a428454612982565b846129cc565b602080601f831160018114612a7d5760008415612a655750858301515b600019600386901b1c1916600185901b178555612a12565b600085815260208120601f198616915b82811015612aac57888601518255948401946001909101908401612a8d565b5085821015612aca5787850151600019600388901b60f8161c191681555b5050505050600190811b01905550565b606081526000612aed6060830186612377565b8281036020840152612aff8186612377565b915050826040830152949350505050565b828152604060208201526000612321604083018461237756fea2646970667358221220cfbd0eb74e1f1525b5afc8f3f26b1ba2fade1d5917ff4f2579d33ebe34628e2a64736f6c63430008140033",
  "linkReferences": {},
  "deployedLinkReferences": {}
}