{
  "_format": "hh-sol-artifact-1",
  "contractName": "PetNFT",
  "sourceName": "contracts/PetNFT.sol",
  "abi": [
    {
      "inputs": [
        {
          "internalType": "address",
          "name": "_vetCredentialAddress",
          "type": "address"
        }
      ],
      "stateMutability": "nonpayable",
      "type": "constructor"
    },
    {
      "inputs": [
        {
          "internalType": "address",
          "name": "sender",
          "type": "address"
        },
        {
          "internalType": "uint256",
          "name": "balance",
          "type": "uint256"
        },
        {
          "internalType": "uint256",
          "name": "needed",
          "type": "uint256"
        },
        {
          "internalType": "uint256",
          "name": "tokenId",
          "type": "uint256"
        }
      ],
      "name": "ERC1155InsufficientBalance",
      "type": "error"
    },
    {
      "inputs": [
        {
          "internalType": "address",
          "name": "approver",
          "type": "address"
        }
      ],
      "name": "ERC1155InvalidApprover",
      "type": "error"
    },
    {
      "inputs": [
        {
          "internalType": "uint256",
          "name": "idsLength",
          "type": "uint256"
        },
        {
          "internalType": "uint256",
          "name": "valuesLength",
          "type": "uint256"
        }
      ],
      "name": "ERC1155InvalidArrayLength",
      "type": "error"
    },
    {
      "inputs": [
        {
          "internalType": "address",
          "name": "operator",
          "type": "address"
        }
      ],
      "name": "ERC1155InvalidOperator",
      "type": "error"
    },
    {
      "inputs": [
        {
          "internalType": "address",
          "name": "receiver",
          "type": "address"
        }
      ],
      "name": "ERC1155InvalidReceiver",
      "type": "error"
    },
    {
      "inputs": [
        {
          "internalType": "address",
          "name": "sender",
          "type": "address"
        }
      ],
      "name": "ERC1155InvalidSender",
      "type": "error"
    },
    {
      "inputs": [
        {
          "internalType": "address",
          "name": "operator",
          "type": "address"
        },
        {
          "internalType": "address",
          "name": "owner",
          "type": "address"
        }
      ],
      "name": "ERC1155MissingApprovalForAll",
      "type": "error"
    },
    {
      "inputs": [
        {
          "internalType": "address",
          "name": "owner",
          "type": "address"
        }
      ],
      "name": "OwnableInvalidOwner",
      "type": "error"
    },
    {
      "inputs": [
        {
          "internalType": "address",
          "name": "account",
          "type": "address"
        }
      ],
      "name": "OwnableUnauthorizedAccount",
      "type": "error"
    },
    {
      "anonymous": false,
      "inputs": [
        {
          "indexed": true,
          "internalType": "address",
          "name": "account",
          "type": "address"
        },
        {
          "indexed": true,
          "internalType": "address",
          "name": "operator",
          "type": "address"
        },
        {
          "indexed": false,
          "internalType": "bool",
          "name": "approved",
          "type": "bool"
        }
      ],
      "name": "ApprovalForAll",
      "type": "event"
    },
    {
      "anonymous": false,
      "inputs": [
        {
          "indexed": true,
          "internalType": "uint256",
          "name": "petId",
          "type": "uint256"
        },
        {
          "indexed": false,
          "internalType": "uint256",
          "name": "sirePetId",
          "type": "uint256"
        },
        {
          "indexed": false,
          "internalType": "uint256",
          "name": "damPetId",
          "type": "uint256"
        },
        {
          "indexed": false,
          "internalType": "uint256",
          "name": "birthTimestamp",
          "type": "uint256"
        }
      ],
      "name": "BreedingRecordAdded",
      "type": "event"
    },
    {
      "anonymous": false,
      "inputs": [
        {
          "indexed": true,
          "internalType": "uint256",
          "name": "petId",
          "type": "uint256"
        },
        {
          "indexed": true,
          "internalType": "address",
          "name": "vetAddress",
          "type": "address"
        },
        {
          "indexed": false,
          "internalType": "string",
          "name": "recordIPFSHash",
          "type": "string"
        },
        {
          "indexed": false,
          "internalType": "uint256",
          "name": "timestamp",
          "type": "uint256"
        }
      ],
      "name": "MedicalRecordAdded",
      "type": "event"
    },
    {
      "anonymous": false,
      "inputs": [
        {
          "indexed": true,
          "internalType": "address",
          "name": "previousOwner",
          "type": "address"
        },
        {
          "indexed": true,
          "internalType": "address",
          "name": "newOwner",
          "type": "address"
        }
      ],
      "name": "OwnershipTransferred",
      "type": "event"
    },
    {
      "anonymous": false,
      "inputs": [
        {
          "indexed": true,
          "internalType": "uint256",
          "name": "petId",
          "type": "uint256"
        },
        {
          "indexed": true,
          "internalType": "address",
          "name": "owner",
          "type": "address"
        },
        {
          "indexed": false,
          "internalType": "string",
          "name": "basicInfoIPFSHash",
          "type": "string"
        }
      ],
      "name": "PetRegistered",
      "type": "event"
    },
    {
      "anonymous": false,
      "inputs": [
        {
          "indexed": true,
          "internalType": "uint256",
          "name": "petId",
          "type": "uint256"
        },
        {
          "indexed": true,
          "internalType": "address",
          "name": "from",
          "type": "address"
        },
        {
          "indexed": true,
          "internalType": "address",
          "name": "to",
          "type": "address"
        }
      ],
      "name": "PetTransferred",
      "type": "event"
    },
    {
      "anonymous": false,
      "inputs": [
        {
          "indexed": true,
          "internalType": "address",
          "name": "operator",
          "type": "address"
        },
        {
          "indexed": true,
          "internalType": "address",
          "name": "from",
          "type": "address"
        },
        {
          "indexed": true,
          "internalType": "address",
          "name": "to",
          "type": "address"
        },
        {
          "indexed": false,
          "internalType": "uint256[]",
          "name": "ids",
          "type": "uint256[]"
        },
        {
          "indexed": false,
          "internalType": "uint256[]",
          "name": "values",
          "type": "uint256[]"
        }
      ],
      "name": "TransferBatch",
      "type": "event"
    },
    {
      "anonymous": false,
      "inputs": [
        {
          "indexed": true,
          "internalType": "address",
          "name": "operator",
          "type": "address"
        },
        {
          "indexed": true,
          "internalType": "address",
          "name": "from",
          "type": "address"
        },
        {
          "indexed": true,
          "internalType": "address",
          "name": "to",
          "type": "address"
        },
        {
          "indexed": false,
          "internalType": "uint256",
          "name": "id",
          "type": "uint256"
        },
        {
          "indexed": false,
          "internalType": "uint256",
          "name": "value",
          "type": "uint256"
        }
      ],
      "name": "TransferSingle",
      "type": "event"
    },
    {
      "anonymous": false,
      "inputs": [
        {
          "indexed": false,
          "internalType": "string",
          "name": "value",
          "type": "string"
        },
        {
          "indexed": true,
          "internalType": "uint256",
          "name": "id",
          "type": "uint256"
        }
      ],
      "name": "URI",
      "type": "event"
    },
    {
      "anonymous": false,
      "inputs": [
        {
          "indexed": true,
          "internalType": "uint256",
          "name": "petId",
          "type": "uint256"
        },
        {
          "indexed": true,
          "internalType": "address",
          "name": "vetAddress",
          "type": "address"
        },
        {
          "indexed": true,
          "internalType": "address",
          "name": "owner",
          "type": "address"
        }
      ],
      "name": "VetAuthorized",
      "type": "event"
    },
    {
      "anonymous": false,
      "inputs": [
        {
          "indexed": true,
          "internalType": "uint256",
          "name": "petId",
          "type": "uint256"
        },
        {
          "indexed": true,
          "internalType": "address",
          "name": "vetAddress",
          "type": "address"
        },
        {
          "indexed": true,
          "internalType": "address",
          "name": "owner",
          "type": "address"
        }
      ],
      "name": "VetDeauthorized",
      "type": "event"
    },
    {
      "inputs": [
        {
          "internalType": "uint256",
          "name": "_petId",
          "type": "uint256"
        },
        {
          "internalType": "uint256",
          "name": "_sirePetId",
          "type": "uint256"
        },
        {
          "internalType": "uint256",
          "name": "_damPetId",
          "type": "uint256"
        },
        {
          "internalType": "uint256",
          "name": "_birthTimestamp",
          "type": "uint256"
        },
        {
          "internalType": "uint256[]",
          "name": "_offspringPetIds",
          "type": "uint256[]"
        }
      ],
      "name": "addBreedingRecord",
      "outputs": [],
      "stateMutability": "nonpayable",
      "type": "function"
    },
    {
      "inputs": [
        {
          "internalType": "uint256",
          "name": "_petId",
          "type": "uint256"
        },
        {
          "internalType": "string",
          "name": "_recordIPFSHash",
          "type": "string"
        }
      ],
      "name": "addMedicalRecord",
      "outputs": [],
      "stateMutability": "nonpayable",
      "type": "function"
    },
    {
      "inputs": [
        {
          "internalType": "uint256",
          "name": "_petId",
          "type": "uint256"
        },
        {
          "internalType": "address",
          "name": "_vetAddress",
          "type": "address"
        }
      ],
      "name": "authorizeVet",
      "outputs": [],
      "stateMutability": "nonpayable",
      "type": "function"
    },
    {
      "inputs": [
        {
          "internalType": "address",
          "name": "account",
          "type": "address"
        },
        {
          "internalType": "uint256",
          "name": "id",
          "type": "uint256"
        }
      ],
      "name": "balanceOf",
      "outputs": [
        {
          "internalType": "uint256",
          "name": "",
          "type": "uint256"
        }
      ],
      "stateMutability": "view",
      "type": "function"
    },
    {
      "inputs": [
        {
          "internalType": "address[]",
          "name": "accounts",
          "type": "address[]"
        },
        {
          "internalType": "uint256[]",
          "name": "ids",
          "type": "uint256[]"
        }
      ],
      "name": "balanceOfBatch",
      "outputs": [
        {
          "internalType": "uint256[]",
          "name": "",
          "type": "uint256[]"
        }
      ],
      "stateMutability": "view",
      "type": "function"
    },
    {
      "inputs": [
        {
          "internalType": "uint256",
          "name": "_petId",
          "type": "uint256"
        },
        {
          "internalType": "address",
          "name": "_vetAddress",
          "type": "address"
        }
      ],
      "name": "deauthorizeVet",
      "outputs": [],
      "stateMutability": "nonpayable",
      "type": "function"
    },
    {
      "inputs": [
        {
          "internalType": "uint256",
          "name": "_petId",
          "type": "uint256"
        }
      ],
      "name": "getAuthorizedVets",
      "outputs": [
        {
          "internalType": "address[]",
          "name": "",
          "type": "address[]"
        }
      ],
      "stateMutability": "view",
      "type": "function"
    },
    {
      "inputs": [
        {
          "internalType": "uint256",
          "name": "_petId",
          "type": "uint256"
        }
      ],
      "name": "getBreedingHistoryLength",
      "outputs": [
        {
          "internalType": "uint256",
          "name": "",
          "type": "uint256"
        }
      ],
      "stateMutability": "view",
      "type": "function"
    },
    {
      "inputs": [
        {
          "internalType": "uint256",
          "name": "_petId",
          "type": "uint256"
        },
        {
          "internalType": "uint256",
          "name": "_index",
          "type": "uint256"
        }
      ],
      "name": "getBreedingRecord",
      "outputs": [
        {
          "internalType": "uint256",
          "name": "sirePetId",
          "type": "uint256"
        },
        {
          "internalType": "uint256",
          "name": "damPetId",
          "type": "uint256"
        },
        {
          "internalType": "uint256",
          "name": "birthTimestamp",
          "type": "uint256"
        },
        {
          "internalType": "uint256[]",
          "name": "offspringPetIds",
          "type": "uint256[]"
        }
      ],
      "stateMutability": "view",
      "type": "function"
    },
    {
      "inputs": [
        {
          "internalType": "uint256",
          "name": "_petId",
          "type": "uint256"
        }
      ],
      "name": "getMedicalHistoryLength",
      "outputs": [
        {
          "internalType": "uint256",
          "name": "",
          "type": "uint256"
        }
      ],
      "stateMutability": "view",
      "type": "function"
    },
    {
      "inputs": [
        {
          "internalType": "uint256",
          "name": "_petId",
          "type": "uint256"
        },
        {
          "internalType": "uint256",
          "name": "_index",
          "type": "uint256"
        }
      ],
      "name": "getMedicalRecord",
      "outputs": [
        {
          "internalType": "address",
          "name": "",
          "type": "address"
        },
        {
          "internalType": "string",
          "name": "",
          "type": "string"
        },
        {
          "internalType": "uint256",
          "name": "",
          "type": "uint256"
        },
        {
          "internalType": "bool",
          "name": "",
          "type": "bool"
        }
      ],
      "stateMutability": "view",
      "type": "function"
    },
    {
      "inputs": [
        {
          "internalType": "uint256",
          "name": "_petId",
          "type": "uint256"
        }
      ],
      "name": "getPetBasicInfo",
      "outputs": [
        {
          "internalType": "address",
          "name": "",
          "type": "address"
        },
        {
          "internalType": "string",
          "name": "",
          "type": "string"
        }
      ],
      "stateMutability": "view",
      "type": "function"
    },
    {
      "inputs": [
        {
          "internalType": "address",
          "name": "account",
          "type": "address"
        },
        {
          "internalType": "address",
          "name": "operator",
          "type": "address"
        }
      ],
      "name": "isApprovedForAll",
      "outputs": [
        {
          "internalType": "bool",
          "name": "",
          "type": "bool"
        }
      ],
      "stateMutability": "view",
      "type": "function"
    },
    {
      "inputs": [
        {
          "internalType": "uint256",
          "name": "_petId",
          "type": "uint256"
        },
        {
          "internalType": "address",
          "name": "_vetAddress",
          "type": "address"
        }
      ],
      "name": "isAuthorizedVet",
      "outputs": [
        {
          "internalType": "bool",
          "name": "",
          "type": "bool"
        }
      ],
      "stateMutability": "view",
      "type": "function"
    },
    {
      "inputs": [],
      "name": "owner",
      "outputs": [
        {
          "internalType": "address",
          "name": "",
          "type": "address"
        }
      ],
      "stateMutability": "view",
      "type": "function"
    },
    {
      "inputs": [
        {
          "internalType": "uint256",
          "name": "",
          "type": "uint256"
        }
      ],
      "name": "petRecords",
      "outputs": [
        {
          "internalType": "address",
          "name": "owner",
          "type": "address"
        },
        {
          "internalType": "string",
          "name": "basicInfoIPFSHash",
          "type": "string"
        }
      ],
      "stateMutability": "view",
      "type": "function"
    },
    {
      "inputs": [
        {
          "internalType": "address",
          "name": "_owner",
          "type": "address"
        },
        {
          "internalType": "string",
          "name": "_basicInfoIPFSHash",
          "type": "string"
        }
      ],
      "name": "registerPet",
      "outputs": [
        {
          "internalType": "uint256",
          "name": "",
          "type": "uint256"
        }
      ],
      "stateMutability": "nonpayable",
      "type": "function"
    },
    {
      "inputs": [],
      "name": "renounceOwnership",
      "outputs": [],
      "stateMutability": "nonpayable",
      "type": "function"
    },
    {
      "inputs": [
        {
          "internalType": "address",
          "name": "from",
          "type": "address"
        },
        {
          "internalType": "address",
          "name": "to",
          "type": "address"
        },
        {
          "internalType": "uint256[]",
          "name": "ids",
          "type": "uint256[]"
        },
        {
          "internalType": "uint256[]",
          "name": "values",
          "type": "uint256[]"
        },
        {
          "internalType": "bytes",
          "name": "data",
          "type": "bytes"
        }
      ],
      "name": "safeBatchTransferFrom",
      "outputs": [],
      "stateMutability": "nonpayable",
      "type": "function"
    },
    {
      "inputs": [
        {
          "internalType": "address",
          "name": "from",
          "type": "address"
        },
        {
          "internalType": "address",
          "name": "to",
          "type": "address"
        },
        {
          "internalType": "uint256",
          "name": "id",
          "type": "uint256"
        },
        {
          "internalType": "uint256",
          "name": "value",
          "type": "uint256"
        },
        {
          "internalType": "bytes",
          "name": "data",
          "type": "bytes"
        }
      ],
      "name": "safeTransferFrom",
      "outputs": [],
      "stateMutability": "nonpayable",
      "type": "function"
    },
    {
      "inputs": [
        {
          "internalType": "address",
          "name": "operator",
          "type": "address"
        },
        {
          "internalType": "bool",
          "name": "approved",
          "type": "bool"
        }
      ],
      "name": "setApprovalForAll",
      "outputs": [],
      "stateMutability": "nonpayable",
      "type": "function"
    },
    {
      "inputs": [
        {
          "internalType": "string",
          "name": "_newBaseURI",
          "type": "string"
        }
      ],
      "name": "setBaseURI",
      "outputs": [],
      "stateMutability": "nonpayable",
      "type": "function"
    },
    {
      "inputs": [
        {
          "internalType": "address",
          "name": "_newVetCredentialAddress",
          "type": "address"
        }
      ],
      "name": "setVetCredentialContract",
      "outputs": [],
      "stateMutability": "nonpayable",
      "type": "function"
    },
    {
      "inputs": [
        {
          "internalType": "bytes4",
          "name": "interfaceId",
          "type": "bytes4"
        }
      ],
      "name": "supportsInterface",
      "outputs": [
        {
          "internalType": "bool",
          "name": "",
          "type": "bool"
        }
      ],
      "stateMutability": "view",
      "type": "function"
    },
    {
      "inputs": [
        {
          "internalType": "address",
          "name": "newOwner",
          "type": "address"
        }
      ],
      "name": "transferOwnership",
      "outputs": [],
      "stateMutability": "nonpayable",
      "type": "function"
    },
    {
      "inputs": [
        {
          "internalType": "uint256",
          "name": "_tokenId",
          "type": "uint256"
        }
      ],
      "name": "uri",
      "outputs": [
        {
          "internalType": "string",
          "name": "",
          "type": "string"
        }
      ],
      "stateMutability": "view",
      "type": "function"
    },
    {
      "inputs": [],
      "name": "vetCredentialContract",
      "outputs": [
        {
          "internalType": "contract VeterinarianCredential",
          "name": "",
          "type": "address"
        }
      ],
      "stateMutability": "view",
      "type": "function"
    }
  ],
  "bytecode": "0x60806040523480156200001157600080fd5b50604051620030cb380380620030cb83398101604081905262000034916200015a565b60408051602081019091526000815233906200005081620000f6565b506001600160a01b0381166200008057604051631e4fbdf760e01b81526000600482015260240160405180910390fd5b6200008b8162000108565b5060408051808201909152601d81527f68747470733a2f2f70617767756172642e636f6d2f6170692f7065742f0000006020820152600590620000cf908262000231565b50600480546001600160a01b0319166001600160a01b0392909216919091179055620002fd565b600262000104828262000231565b5050565b600380546001600160a01b038381166001600160a01b0319831681179093556040519116919082907f8be0079c531659141344cd1fd0a4f28419497f9722a3daafe3b4186f6b6457e090600090a35050565b6000602082840312156200016d57600080fd5b81516001600160a01b03811681146200018557600080fd5b9392505050565b634e487b7160e01b600052604160045260246000fd5b600181811c90821680620001b757607f821691505b602082108103620001d857634e487b7160e01b600052602260045260246000fd5b50919050565b601f8211156200022c57600081815260208120601f850160051c81016020861015620002075750805b601f850160051c820191505b81811015620002285782815560010162000213565b5050505b505050565b81516001600160401b038111156200024d576200024d6200018c565b62000265816200025e8454620001a2565b84620001de565b602080601f8311600181146200029d5760008415620002845750858301515b600019600386901b1c1916600185901b17855562000228565b600085815260208120601f198616915b82811015620002ce57888601518255948401946001909101908401620002ad565b5085821015620002ed5787850151600019600388901b60f8161c191681555b5050505050600190811b01905550565b612dbe806200030d6000396000f3fe608060405234801561001057600080fd5b50600436106101a85760003560e01c806355f804b3116100f9578063a22cb46511610097578063c6b7b26811610071578063c6b7b268146103f7578063e985e9c51461041a578063f242432a1461042d578063f2fde38b1461044057600080fd5b8063a22cb465146103b1578063b3b7b0a4146103c4578063be77e90f146103e457600080fd5b806383e6fcb5116100d357806383e6fcb5146103675780638da5cb5b1461037a578063993ab0ba1461038b578063a198b9fa1461039e57600080fd5b806355f804b3146103395780636ab989481461034c578063715018a61461035f57600080fd5b80632ac71ead1161016657806331b7f77d1161014057806331b7f77d146102c857806334e0cade146102f35780634e1273f4146103065780635196502c1461032657600080fd5b80632ac71ead1461026d5780632eb2c2d6146102905780632fa933cd146102a557600080fd5b8062fdd58e146101ad57806301ffc9a7146101d357806303852d1c146101f65780630e89341c14610219578063166d76fe146102395780631afb29a71461025a575b600080fd5b6101c06101bb3660046122d8565b610453565b6040519081526020015b60405180910390f35b6101e66101e1366004612318565b61047b565b60405190151581526020016101ca565b6101c061020436600461233c565b60009081526006602052604090206004015490565b61022c61022736600461233c565b6104cb565b6040516101ca91906123a5565b61024c61024736600461233c565b6104ff565b6040516101ca9291906123b8565b6101e66102683660046123e4565b6105ae565b61028061027b366004612410565b61063a565b6040516101ca949392919061246d565b6102a361029e3660046125df565b610764565b005b6102b86102b3366004612410565b6107cb565b6040516101ca9493929190612688565b6004546102db906001600160a01b031681565b6040516001600160a01b0390911681526020016101ca565b6102a36103013660046123e4565b61093c565b6103196103143660046126c4565b610bc6565b6040516101ca9190612783565b6102a3610334366004612796565b610c9a565b6102a36103473660046127ec565b610e9a565b6102a361035a366004612820565b610eb2565b6102a36111cb565b6102a361037536600461285c565b6111df565b6003546001600160a01b03166102db565b61024c61039936600461233c565b61125f565b6101c06103ac366004612877565b611318565b6102a36103bf3660046128bc565b6114b5565b6103d76103d236600461233c565b6114c0565b6040516101ca91906128f3565b6102a36103f23660046123e4565b61152f565b6101c061040536600461233c565b60009081526006602052604090206003015490565b6101e6610428366004612940565b61179f565b6102a361043b36600461296a565b6117cd565b6102a361044e36600461285c565b61182c565b6000818152602081815260408083206001600160a01b03861684529091529020545b92915050565b60006001600160e01b03198216636cdb3d1360e11b14806104ac57506001600160e01b031982166303a24d0760e21b145b8061047557506301ffc9a760e01b6001600160e01b0319831614610475565b606060056104d88361186a565b6040516020016104e9929190612a08565b6040516020818303038152906040529050919050565b600660205260009081526040902080546001820180546001600160a01b03909216929161052b906129ce565b80601f0160208091040260200160405190810160405280929190818152602001828054610557906129ce565b80156105a45780601f10610579576101008083540402835291602001916105a4565b820191906000526020600020905b81548152906001019060200180831161058757829003601f168201915b5050505050905082565b6000805b60008481526006602052604090206002015481101561063057600084815260066020526040902060020180546001600160a01b0385169190839081106105fa576105fa612a8f565b6000918252602090912001546001600160a01b03160361061e576001915050610475565b8061062881612abb565b9150506105b2565b5060009392505050565b6000828152600660205260408120600401548190819060609085106106ba5760405162461bcd60e51b815260206004820152602b60248201527f5065744e46543a204272656564696e67207265636f726420696e646578206f7560448201526a74206f6620626f756e647360a81b60648201526084015b60405180910390fd5b60008681526006602052604081206004018054879081106106dd576106dd612a8f565b90600052602060002090600402019050806000015481600101548260020154836003018080548060200260200160405190810160405280929190818152602001828054801561074b57602002820191906000526020600020905b815481526020019060010190808311610737575b5050505050905094509450945094505092959194509250565b336001600160a01b03861681148015906107855750610783868261179f565b155b156107b65760405163711bec9160e11b81526001600160a01b038083166004830152871660248201526044016106b1565b6107c386868686866118fc565b505050505050565b6000828152600660205260408120600301546060908290819085106108455760405162461bcd60e51b815260206004820152602a60248201527f5065744e46543a204d65646963616c207265636f726420696e646578206f7574604482015269206f6620626f756e647360b01b60648201526084016106b1565b600086815260066020526040812060030180548790811061086857610868612a8f565b600091825260209091206004909102018054600282015460038301546001840180549495506001600160a01b039093169360ff9091169083906108aa906129ce565b80601f01602080910402602001604051908101604052809291908181526020018280546108d6906129ce565b80156109235780601f106108f857610100808354040283529160200191610923565b820191906000526020600020905b81548152906001019060200180831161090657829003601f168201915b5050505050925094509450945094505092959194509250565b6000828152600660205260409020546001600160a01b031633146109b45760405162461bcd60e51b815260206004820152602960248201527f5065744e46543a204f6e6c7920706574206f776e65722063616e20617574686f60448201526872697a65207665747360b81b60648201526084016106b1565b6001600160a01b038116610a0a5760405162461bcd60e51b815260206004820152601b60248201527f5065744e46543a20496e76616c6964207665742061646472657373000000000060448201526064016106b1565b6004805460405163edf9384560e01b81526001600160a01b038481169382019390935291169063edf9384590602401602060405180830381865afa158015610a56573d6000803e3d6000fd5b505050506040513d601f19601f82011682018060405250810190610a7a9190612ad4565b610ada5760405162461bcd60e51b815260206004820152602b60248201527f5065744e46543a2056657420646f6573206e6f7420686176652076616c69642060448201526a63726564656e7469616c7360a81b60648201526084016106b1565b60005b600083815260066020526040902060020154811015610b5657600083815260066020526040902060020180546001600160a01b038416919083908110610b2557610b25612a8f565b6000918252602090912001546001600160a01b031603610b4457505050565b80610b4e81612abb565b915050610add565b506000828152600660209081526040808320600201805460018101825590845291832090910180546001600160a01b0319166001600160a01b0385169081179091559051339285917fbb3064d1e60e293bf140bafe25be89cf0c241fc1d20995066778abf44a1b1d129190a45050565b60608151835114610bf75781518351604051635b05999160e01b8152600481019290925260248201526044016106b1565b600083516001600160401b03811115610c1257610c1261249c565b604051908082528060200260200182016040528015610c3b578160200160208202803683370190505b50905060005b8451811015610c9257602080820286010151610c6590602080840287010151610453565b828281518110610c7757610c77612a8f565b6020908102919091010152610c8b81612abb565b9050610c41565b509392505050565b6000858152600660205260409020546001600160a01b03163314610d185760405162461bcd60e51b815260206004820152602f60248201527f5065744e46543a204f6e6c7920706574206f776e65722063616e20616464206260448201526e72656564696e67207265636f72647360881b60648201526084016106b1565b8360075410158015610d2a5750600084115b610d765760405162461bcd60e51b815260206004820152601b60248201527f5065744e46543a20496e76616c6964207369726520706574204944000000000060448201526064016106b1565b8260075410158015610d885750600083115b610dd45760405162461bcd60e51b815260206004820152601a60248201527f5065744e46543a20496e76616c69642064616d2070657420494400000000000060448201526064016106b1565b6040805160808101825285815260208082018681528284018681526060840186815260008b815260068552958620600490810180546001818101835591895297869020875198909202909101968755925192860192909255516002850155518051929384939092610e4c92600385019291019061225c565b505060408051878152602081018790529081018590528791507fb2502b6627193f923133b802453267f711a0ecf0042e182c54b188349e64cbd09060600160405180910390a2505050505050565b610ea2611963565b6005610eae8282612b3c565b5050565b816000805b600083815260066020526040902060020154811015610f2b576000838152600660205260409020600201805433919083908110610ef657610ef6612a8f565b6000918252602090912001546001600160a01b031603610f195760019150610f2b565b80610f2381612abb565b915050610eb7565b5080610f965760405162461bcd60e51b815260206004820152603460248201527f5065744e46543a2043616c6c6572206973206e6f7420616e20617574686f72696044820152731e9959081d995d08199bdc881d1a1a5cc81c195d60621b60648201526084016106b1565b6000835111610fb75760405162461bcd60e51b81526004016106b190612bfb565b6004805460405163edf9384560e01b815233928101929092526001600160a01b03169063edf9384590602401602060405180830381865afa158015611000573d6000803e3d6000fd5b505050506040513d601f19601f820116820180604052508101906110249190612ad4565b6110835760405162461bcd60e51b815260206004820152602a60248201527f5065744e46543a205665742063726564656e7469616c732065787069726564206044820152691bdc881c995d9bdad95960b21b60648201526084016106b1565b60408051608081018252338152602080820186815242838501526001606084018190526000898152600684529485206003018054808301825590865292909420835160049093020180546001600160a01b0319166001600160a01b039093169290921782555191928392908201906110fb9082612b3c565b5060408281015160028301556060909201516003909101805460ff191691151591909117905560048054915163061b193d60e01b815233918101919091526001600160a01b039091169063061b193d90602401600060405180830381600087803b15801561116857600080fd5b505af115801561117c573d6000803e3d6000fd5b50505050336001600160a01b0316857fc93231004f4f4a19a8c9fcee05a15a4ba5ce122698ac5546eac053d8b698f24a86426040516111bc929190612c3c565b60405180910390a35050505050565b6111d3611963565b6111dd6000611990565b565b6111e7611963565b6001600160a01b03811661123d5760405162461bcd60e51b815260206004820181905260248201527f5065744e46543a20496e76616c696420636f6e7472616374206164647265737360448201526064016106b1565b600480546001600160a01b0319166001600160a01b0392909216919091179055565b60008181526006602052604081208054600190910180546060926001600160a01b03169190819061128f906129ce565b80601f01602080910402602001604051908101604052809291908181526020018280546112bb906129ce565b80156113085780601f106112dd57610100808354040283529160200191611308565b820191906000526020600020905b8154815290600101906020018083116112eb57829003601f168201915b5050505050905091509150915091565b60006001600160a01b0383166113705760405162461bcd60e51b815260206004820152601d60248201527f5065744e46543a20496e76616c6964206f776e6572206164647265737300000060448201526064016106b1565b60008251116113915760405162461bcd60e51b81526004016106b190612bfb565b336001600160a01b038416146113ff5760405162461bcd60e51b815260206004820152602d60248201527f5065744e46543a204f6e6c79206f776e65722063616e2072656769737465722060448201526c1d1a195a5c881bdddb881c195d609a1b60648201526084016106b1565b6007805490600061140f83612abb565b91905055506000600754905061143784826001604051806020016040528060008152506119e2565b600081815260066020526040902080546001600160a01b0319166001600160a01b03861617815560010161146b8482612b3c565b50836001600160a01b0316817f3c0aadacdb910e58fe38928aad07e1b89dc0baee588d7ca1e9bba80e1e3f3964856040516114a691906123a5565b60405180910390a39392505050565b610eae338383611a3f565b60008181526006602090815260409182902060020180548351818402810184019094528084526060939283018282801561152357602002820191906000526020600020905b81546001600160a01b03168152600190910190602001808311611505575b50505050509050919050565b6000828152600660205260409020546001600160a01b031633146115a95760405162461bcd60e51b815260206004820152602b60248201527f5065744e46543a204f6e6c7920706574206f776e65722063616e20646561757460448201526a686f72697a65207665747360a81b60648201526084016106b1565b6000805b60008481526006602052604090206002015481101561170257600084815260066020526040902060020180546001600160a01b0385169190839081106115f5576115f5612a8f565b6000918252602090912001546001600160a01b0316036116f0576000848152600660205260409020600201805461162e90600190612c5e565b8154811061163e5761163e612a8f565b60009182526020808320909101548683526006909152604090912060020180546001600160a01b03909216918390811061167a5761167a612a8f565b600091825260208083209190910180546001600160a01b0319166001600160a01b0394909416939093179092558581526006909152604090206002018054806116c5576116c5612c71565b600082815260209020810160001990810180546001600160a01b031916905501905560019150611702565b806116fa81612abb565b9150506115ad565b50806117625760405162461bcd60e51b815260206004820152602960248201527f5065744e46543a20566574206e6f7420666f756e6420666f722064656175746860448201526837b934bd30ba34b7b760b91b60648201526084016106b1565b60405133906001600160a01b0384169085907fb3c7d054cfd56459a97a11867f500d4c18e8b36b6d4fe7a9295371f44774682b90600090a4505050565b6001600160a01b03918216600090815260016020908152604080832093909416825291909152205460ff1690565b336001600160a01b03861681148015906117ee57506117ec868261179f565b155b1561181f5760405163711bec9160e11b81526001600160a01b038083166004830152871660248201526044016106b1565b6107c38686868686611ad5565b611834611963565b6001600160a01b03811661185e57604051631e4fbdf760e01b8152600060048201526024016106b1565b61186781611990565b50565b6060600061187783611b63565b60010190506000816001600160401b038111156118965761189661249c565b6040519080825280601f01601f1916602001820160405280156118c0576020820181803683370190505b5090508181016020015b600019016f181899199a1a9b1b9c1cb0b131b232b360811b600a86061a8153600a85049450846118ca57509392505050565b6001600160a01b03841661192657604051632bfa23e760e11b8152600060048201526024016106b1565b6001600160a01b03851661194f57604051626a0d4560e21b8152600060048201526024016106b1565b61195c8585858585611c3b565b5050505050565b6003546001600160a01b031633146111dd5760405163118cdaa760e01b81523360048201526024016106b1565b600380546001600160a01b038381166001600160a01b0319831681179093556040519116919082907f8be0079c531659141344cd1fd0a4f28419497f9722a3daafe3b4186f6b6457e090600090a35050565b6001600160a01b038416611a0c57604051632bfa23e760e11b8152600060048201526024016106b1565b604080516001808252602082018690528183019081526060820185905260808201909252906107c3600087848487611c3b565b6001600160a01b038216611a685760405162ced3e160e81b8152600060048201526024016106b1565b6001600160a01b03838116600081815260016020908152604080832094871680845294825291829020805460ff191686151590811790915591519182527f17307eab39ab6107e8899845ad3d59bd9653f200f220920489ca2b5937696c31910160405180910390a3505050565b6001600160a01b038416611aff57604051632bfa23e760e11b8152600060048201526024016106b1565b6001600160a01b038516611b2857604051626a0d4560e21b8152600060048201526024016106b1565b60408051600180825260208201869052818301908152606082018590526080820190925290611b5a8787848487611c3b565b50505050505050565b60008072184f03e93ff9f4daa797ed6e38ed64bf6a1f0160401b8310611ba25772184f03e93ff9f4daa797ed6e38ed64bf6a1f0160401b830492506040015b6d04ee2d6d415b85acef81000000008310611bce576d04ee2d6d415b85acef8100000000830492506020015b662386f26fc100008310611bec57662386f26fc10000830492506010015b6305f5e1008310611c04576305f5e100830492506008015b6127108310611c1857612710830492506004015b60648310611c2a576064830492506002015b600a83106104755760010192915050565b611c4785858585611c8e565b6001600160a01b0384161561195c5782513390600103611c805760208481015190840151611c79838989858589611e32565b50506107c3565b6107c3818787878787611f56565b611c9a8484848461203f565b6001600160a01b03841615801590611cba57506001600160a01b03831615155b15611e2c5760005b825181101561195c57846001600160a01b031660066000858481518110611ceb57611ceb612a8f565b6020908102919091018101518252810191909152604001600020546001600160a01b031614611d6c5760405162461bcd60e51b815260206004820152602760248201527f5065744e46543a20506574206f776e6572206d69736d6174636820666f7220746044820152663930b739b332b960c91b60648201526084016106b1565b8360066000858481518110611d8357611d83612a8f565b6020026020010151815260200190815260200160002060000160006101000a8154816001600160a01b0302191690836001600160a01b03160217905550836001600160a01b0316856001600160a01b0316848381518110611de657611de6612a8f565b60200260200101517fec966f1f123f894c9a734212c909ce0b3ce805cc4098502797b949c65ca65e7860405160405180910390a480611e2481612abb565b915050611cc2565b50505050565b6001600160a01b0384163b156107c35760405163f23a6e6160e01b81526001600160a01b0385169063f23a6e6190611e769089908990889088908890600401612c87565b6020604051808303816000875af1925050508015611eb1575060408051601f3d908101601f19168201909252611eae91810190612ccc565b60015b611f1a573d808015611edf576040519150601f19603f3d011682016040523d82523d6000602084013e611ee4565b606091505b508051600003611f1257604051632bfa23e760e11b81526001600160a01b03861660048201526024016106b1565b805160208201fd5b6001600160e01b0319811663f23a6e6160e01b14611b5a57604051632bfa23e760e11b81526001600160a01b03861660048201526024016106b1565b6001600160a01b0384163b156107c35760405163bc197c8160e01b81526001600160a01b0385169063bc197c8190611f9a9089908990889088908890600401612ce9565b6020604051808303816000875af1925050508015611fd5575060408051601f3d908101601f19168201909252611fd291810190612ccc565b60015b612003573d808015611edf576040519150601f19603f3d011682016040523d82523d6000602084013e611ee4565b6001600160e01b0319811663bc197c8160e01b14611b5a57604051632bfa23e760e11b81526001600160a01b03861660048201526024016106b1565b805182511461206e5781518151604051635b05999160e01b8152600481019290925260248201526044016106b1565b3360005b835181101561217d576020818102858101820151908501909101516001600160a01b03881615612125576000828152602081815260408083206001600160a01b038c168452909152902054818110156120fe576040516303dee4c560e01b81526001600160a01b038a1660048201526024810182905260448101839052606481018490526084016106b1565b6000838152602081815260408083206001600160a01b038d16845290915290209082900390555b6001600160a01b0387161561216a576000828152602081815260408083206001600160a01b038b16845290915281208054839290612164908490612d47565b90915550505b50508061217690612abb565b9050612072565b5082516001036121fe5760208301516000906020840151909150856001600160a01b0316876001600160a01b0316846001600160a01b03167fc3d58168c5ae7397731d063d5bbf3d657854427343f4c083240f7aacaa2d0f6285856040516121ef929190918252602082015260400190565b60405180910390a4505061195c565b836001600160a01b0316856001600160a01b0316826001600160a01b03167f4a39dc06d4c0dbc64b70af90fd698a233a518aa5d07e595d983b8c0526c8f7fb868660405161224d929190612d5a565b60405180910390a45050505050565b828054828255906000526020600020908101928215612297579160200282015b8281111561229757825182559160200191906001019061227c565b506122a39291506122a7565b5090565b5b808211156122a357600081556001016122a8565b80356001600160a01b03811681146122d357600080fd5b919050565b600080604083850312156122eb57600080fd5b6122f4836122bc565b946020939093013593505050565b6001600160e01b03198116811461186757600080fd5b60006020828403121561232a57600080fd5b813561233581612302565b9392505050565b60006020828403121561234e57600080fd5b5035919050565b60005b83811015612370578181015183820152602001612358565b50506000910152565b60008151808452612391816020860160208601612355565b601f01601f19169290920160200192915050565b6020815260006123356020830184612379565b6001600160a01b03831681526040602082018190526000906123dc90830184612379565b949350505050565b600080604083850312156123f757600080fd5b82359150612407602084016122bc565b90509250929050565b6000806040838503121561242357600080fd5b50508035926020909101359150565b600081518084526020808501945080840160005b8381101561246257815187529582019590820190600101612446565b509495945050505050565b8481528360208201528260408201526080606082015260006124926080830184612432565b9695505050505050565b634e487b7160e01b600052604160045260246000fd5b604051601f8201601f191681016001600160401b03811182821017156124da576124da61249c565b604052919050565b60006001600160401b038211156124fb576124fb61249c565b5060051b60200190565b600082601f83011261251657600080fd5b8135602061252b612526836124e2565b6124b2565b82815260059290921b8401810191818101908684111561254a57600080fd5b8286015b84811015612565578035835291830191830161254e565b509695505050505050565b600082601f83011261258157600080fd5b81356001600160401b0381111561259a5761259a61249c565b6125ad601f8201601f19166020016124b2565b8181528460208386010111156125c257600080fd5b816020850160208301376000918101602001919091529392505050565b600080600080600060a086880312156125f757600080fd5b612600866122bc565b945061260e602087016122bc565b935060408601356001600160401b038082111561262a57600080fd5b61263689838a01612505565b9450606088013591508082111561264c57600080fd5b61265889838a01612505565b9350608088013591508082111561266e57600080fd5b5061267b88828901612570565b9150509295509295909350565b6001600160a01b03851681526080602082018190526000906126ac90830186612379565b60408301949094525090151560609091015292915050565b600080604083850312156126d757600080fd5b82356001600160401b03808211156126ee57600080fd5b818501915085601f83011261270257600080fd5b81356020612712612526836124e2565b82815260059290921b8401810191818101908984111561273157600080fd5b948201945b8386101561275657612747866122bc565b82529482019490820190612736565b9650508601359250508082111561276c57600080fd5b5061277985828601612505565b9150509250929050565b6020815260006123356020830184612432565b600080600080600060a086880312156127ae57600080fd5b8535945060208601359350604086013592506060860135915060808601356001600160401b038111156127e057600080fd5b61267b88828901612505565b6000602082840312156127fe57600080fd5b81356001600160401b0381111561281457600080fd5b6123dc84828501612570565b6000806040838503121561283357600080fd5b8235915060208301356001600160401b0381111561285057600080fd5b61277985828601612570565b60006020828403121561286e57600080fd5b612335826122bc565b6000806040838503121561288a57600080fd5b612893836122bc565b915060208301356001600160401b0381111561285057600080fd5b801515811461186757600080fd5b600080604083850312156128cf57600080fd5b6128d8836122bc565b915060208301356128e8816128ae565b809150509250929050565b6020808252825182820181905260009190848201906040850190845b818110156129345783516001600160a01b03168352928401929184019160010161290f565b50909695505050505050565b6000806040838503121561295357600080fd5b61295c836122bc565b9150612407602084016122bc565b600080600080600060a0868803121561298257600080fd5b61298b866122bc565b9450612999602087016122bc565b9350604086013592506060860135915060808601356001600160401b038111156129c257600080fd5b61267b88828901612570565b600181811c908216806129e257607f821691505b602082108103612a0257634e487b7160e01b600052602260045260246000fd5b50919050565b6000808454612a16816129ce565b60018281168015612a2e5760018114612a4357612a72565b60ff1984168752821515830287019450612a72565b8860005260208060002060005b85811015612a695781548a820152908401908201612a50565b50505082870194505b505050508351612a86818360208801612355565b01949350505050565b634e487b7160e01b600052603260045260246000fd5b634e487b7160e01b600052601160045260246000fd5b600060018201612acd57612acd612aa5565b5060010190565b600060208284031215612ae657600080fd5b8151612335816128ae565b601f821115612b3757600081815260208120601f850160051c81016020861015612b185750805b601f850160051c820191505b818110156107c357828155600101612b24565b505050565b81516001600160401b03811115612b5557612b5561249c565b612b6981612b6384546129ce565b84612af1565b602080601f831160018114612b9e5760008415612b865750858301515b600019600386901b1c1916600185901b1785556107c3565b600085815260208120601f198616915b82811015612bcd57888601518255948401946001909101908401612bae565b5085821015612beb5787850151600019600388901b60f8161c191681555b5050505050600190811b01905550565b60208082526021908201527f5065744e46543a204950465320686173682063616e6e6f7420626520656d70746040820152607960f81b606082015260800190565b604081526000612c4f6040830185612379565b90508260208301529392505050565b8181038181111561047557610475612aa5565b634e487b7160e01b600052603160045260246000fd5b6001600160a01b03868116825285166020820152604081018490526060810183905260a060808201819052600090612cc190830184612379565b979650505050505050565b600060208284031215612cde57600080fd5b815161233581612302565b6001600160a01b0386811682528516602082015260a060408201819052600090612d1590830186612432565b8281036060840152612d278186612432565b90508281036080840152612d3b8185612379565b98975050505050505050565b8082018082111561047557610475612aa5565b604081526000612d6d6040830185612432565b8281036020840152612d7f8185612432565b9594505050505056fea264697066735822122030a50b7a16e9dd8b3284eaf099f113a1036b2b1d9cd7a3f88aebab27b6e598ee64736f6c63430008140033",
  "linkReferences": {},
  "deployedLinkReferences": {}
}