{
  "_format": "hh-sol-artifact-1",
  "contractName": "PetNFT",
  "sourceName": "contracts/PetNFT.sol",
  "abi": [
    {
      "inputs": [
        {
          "internalType": "address",
          "name": "_vetCredentialAddress",
          "type": "address"
        }
      ],
      "stateMutability": "nonpayable",
      "type": "constructor"
    },
    {
      "inputs": [
        {
          "internalType": "address",
          "name": "sender",
          "type": "address"
        },
        {
          "internalType": "uint256",
          "name": "balance",
          "type": "uint256"
        },
        {
          "internalType": "uint256",
          "name": "needed",
          "type": "uint256"
        },
        {
          "internalType": "uint256",
          "name": "tokenId",
          "type": "uint256"
        }
      ],
      "name": "ERC1155InsufficientBalance",
      "type": "error"
    },
    {
      "inputs": [
        {
          "internalType": "address",
          "name": "approver",
          "type": "address"
        }
      ],
      "name": "ERC1155InvalidApprover",
      "type": "error"
    },
    {
      "inputs": [
        {
          "internalType": "uint256",
          "name": "idsLength",
          "type": "uint256"
        },
        {
          "internalType": "uint256",
          "name": "valuesLength",
          "type": "uint256"
        }
      ],
      "name": "ERC1155InvalidArrayLength",
      "type": "error"
    },
    {
      "inputs": [
        {
          "internalType": "address",
          "name": "operator",
          "type": "address"
        }
      ],
      "name": "ERC1155InvalidOperator",
      "type": "error"
    },
    {
      "inputs": [
        {
          "internalType": "address",
          "name": "receiver",
          "type": "address"
        }
      ],
      "name": "ERC1155InvalidReceiver",
      "type": "error"
    },
    {
      "inputs": [
        {
          "internalType": "address",
          "name": "sender",
          "type": "address"
        }
      ],
      "name": "ERC1155InvalidSender",
      "type": "error"
    },
    {
      "inputs": [
        {
          "internalType": "address",
          "name": "operator",
          "type": "address"
        },
        {
          "internalType": "address",
          "name": "owner",
          "type": "address"
        }
      ],
      "name": "ERC1155MissingApprovalForAll",
      "type": "error"
    },
    {
      "inputs": [
        {
          "internalType": "address",
          "name": "owner",
          "type": "address"
        }
      ],
      "name": "OwnableInvalidOwner",
      "type": "error"
    },
    {
      "inputs": [
        {
          "internalType": "address",
          "name": "account",
          "type": "address"
        }
      ],
      "name": "OwnableUnauthorizedAccount",
      "type": "error"
    },
    {
      "anonymous": false,
      "inputs": [
        {
          "indexed": true,
          "internalType": "address",
          "name": "account",
          "type": "address"
        },
        {
          "indexed": true,
          "internalType": "address",
          "name": "operator",
          "type": "address"
        },
        {
          "indexed": false,
          "internalType": "bool",
          "name": "approved",
          "type": "bool"
        }
      ],
      "name": "ApprovalForAll",
      "type": "event"
    },
    {
      "anonymous": false,
      "inputs": [
        {
          "indexed": true,
          "internalType": "uint256",
          "name": "petId",
          "type": "uint256"
        },
        {
          "indexed": false,
          "internalType": "uint256",
          "name": "sirePetId",
          "type": "uint256"
        },
        {
          "indexed": false,
          "internalType": "uint256",
          "name": "damPetId",
          "type": "uint256"
        },
        {
          "indexed": false,
          "internalType": "uint256",
          "name": "birthTimestamp",
          "type": "uint256"
        }
      ],
      "name": "BreedingRecordAdded",
      "type": "event"
    },
    {
      "anonymous": false,
      "inputs": [
        {
          "indexed": true,
          "internalType": "uint256",
          "name": "petId",
          "type": "uint256"
        },
        {
          "indexed": true,
          "internalType": "address",
          "name": "vetAddress",
          "type": "address"
        },
        {
          "indexed": false,
          "internalType": "string",
          "name": "recordIPFSHash",
          "type": "string"
        },
        {
          "indexed": false,
          "internalType": "uint256",
          "name": "timestamp",
          "type": "uint256"
        }
      ],
      "name": "MedicalRecordAdded",
      "type": "event"
    },
    {
      "anonymous": false,
      "inputs": [
        {
          "indexed": true,
          "internalType": "address",
          "name": "previousOwner",
          "type": "address"
        },
        {
          "indexed": true,
          "internalType": "address",
          "name": "newOwner",
          "type": "address"
        }
      ],
      "name": "OwnershipTransferred",
      "type": "event"
    },
    {
      "anonymous": false,
      "inputs": [
        {
          "indexed": true,
          "internalType": "uint256",
          "name": "petId",
          "type": "uint256"
        },
        {
          "indexed": true,
          "internalType": "address",
          "name": "owner",
          "type": "address"
        },
        {
          "indexed": false,
          "internalType": "string",
          "name": "basicInfoIPFSHash",
          "type": "string"
        }
      ],
      "name": "PetRegistered",
      "type": "event"
    },
    {
      "anonymous": false,
      "inputs": [
        {
          "indexed": true,
          "internalType": "uint256",
          "name": "petId",
          "type": "uint256"
        },
        {
          "indexed": true,
          "internalType": "address",
          "name": "from",
          "type": "address"
        },
        {
          "indexed": true,
          "internalType": "address",
          "name": "to",
          "type": "address"
        }
      ],
      "name": "PetTransferred",
      "type": "event"
    },
    {
      "anonymous": false,
      "inputs": [
        {
          "indexed": true,
          "internalType": "address",
          "name": "operator",
          "type": "address"
        },
        {
          "indexed": true,
          "internalType": "address",
          "name": "from",
          "type": "address"
        },
        {
          "indexed": true,
          "internalType": "address",
          "name": "to",
          "type": "address"
        },
        {
          "indexed": false,
          "internalType": "uint256[]",
          "name": "ids",
          "type": "uint256[]"
        },
        {
          "indexed": false,
          "internalType": "uint256[]",
          "name": "values",
          "type": "uint256[]"
        }
      ],
      "name": "TransferBatch",
      "type": "event"
    },
    {
      "anonymous": false,
      "inputs": [
        {
          "indexed": true,
          "internalType": "address",
          "name": "operator",
          "type": "address"
        },
        {
          "indexed": true,
          "internalType": "address",
          "name": "from",
          "type": "address"
        },
        {
          "indexed": true,
          "internalType": "address",
          "name": "to",
          "type": "address"
        },
        {
          "indexed": false,
          "internalType": "uint256",
          "name": "id",
          "type": "uint256"
        },
        {
          "indexed": false,
          "internalType": "uint256",
          "name": "value",
          "type": "uint256"
        }
      ],
      "name": "TransferSingle",
      "type": "event"
    },
    {
      "anonymous": false,
      "inputs": [
        {
          "indexed": false,
          "internalType": "string",
          "name": "value",
          "type": "string"
        },
        {
          "indexed": true,
          "internalType": "uint256",
          "name": "id",
          "type": "uint256"
        }
      ],
      "name": "URI",
      "type": "event"
    },
    {
      "anonymous": false,
      "inputs": [
        {
          "indexed": true,
          "internalType": "uint256",
          "name": "petId",
          "type": "uint256"
        },
        {
          "indexed": true,
          "internalType": "address",
          "name": "vetAddress",
          "type": "address"
        },
        {
          "indexed": true,
          "internalType": "address",
          "name": "owner",
          "type": "address"
        }
      ],
      "name": "VetAuthorized",
      "type": "event"
    },
    {
      "anonymous": false,
      "inputs": [
        {
          "indexed": true,
          "internalType": "uint256",
          "name": "petId",
          "type": "uint256"
        },
        {
          "indexed": true,
          "internalType": "address",
          "name": "vetAddress",
          "type": "address"
        },
        {
          "indexed": true,
          "internalType": "address",
          "name": "owner",
          "type": "address"
        }
      ],
      "name": "VetDeauthorized",
      "type": "event"
    },
    {
      "inputs": [
        {
          "internalType": "uint256",
          "name": "_petId",
          "type": "uint256"
        },
        {
          "internalType": "uint256",
          "name": "_sirePetId",
          "type": "uint256"
        },
        {
          "internalType": "uint256",
          "name": "_damPetId",
          "type": "uint256"
        },
        {
          "internalType": "uint256",
          "name": "_birthTimestamp",
          "type": "uint256"
        },
        {
          "internalType": "uint256[]",
          "name": "_offspringPetIds",
          "type": "uint256[]"
        }
      ],
      "name": "addBreedingRecord",
      "outputs": [],
      "stateMutability": "nonpayable",
      "type": "function"
    },
    {
      "inputs": [
        {
          "internalType": "uint256",
          "name": "_petId",
          "type": "uint256"
        },
        {
          "internalType": "string",
          "name": "_recordIPFSHash",
          "type": "string"
        }
      ],
      "name": "addMedicalRecord",
      "outputs": [],
      "stateMutability": "nonpayable",
      "type": "function"
    },
    {
      "inputs": [
        {
          "internalType": "uint256",
          "name": "_petId",
          "type": "uint256"
        },
        {
          "internalType": "address",
          "name": "_vetAddress",
          "type": "address"
        }
      ],
      "name": "authorizeVet",
      "outputs": [],
      "stateMutability": "nonpayable",
      "type": "function"
    },
    {
      "inputs": [
        {
          "internalType": "address",
          "name": "account",
          "type": "address"
        },
        {
          "internalType": "uint256",
          "name": "id",
          "type": "uint256"
        }
      ],
      "name": "balanceOf",
      "outputs": [
        {
          "internalType": "uint256",
          "name": "",
          "type": "uint256"
        }
      ],
      "stateMutability": "view",
      "type": "function"
    },
    {
      "inputs": [
        {
          "internalType": "address[]",
          "name": "accounts",
          "type": "address[]"
        },
        {
          "internalType": "uint256[]",
          "name": "ids",
          "type": "uint256[]"
        }
      ],
      "name": "balanceOfBatch",
      "outputs": [
        {
          "internalType": "uint256[]",
          "name": "",
          "type": "uint256[]"
        }
      ],
      "stateMutability": "view",
      "type": "function"
    },
    {
      "inputs": [
        {
          "internalType": "uint256",
          "name": "_petId",
          "type": "uint256"
        },
        {
          "internalType": "address",
          "name": "_vetAddress",
          "type": "address"
        }
      ],
      "name": "deauthorizeVet",
      "outputs": [],
      "stateMutability": "nonpayable",
      "type": "function"
    },
    {
      "inputs": [
        {
          "internalType": "uint256",
          "name": "_petId",
          "type": "uint256"
        }
      ],
      "name": "getAuthorizedVets",
      "outputs": [
        {
          "internalType": "address[]",
          "name": "",
          "type": "address[]"
        }
      ],
      "stateMutability": "view",
      "type": "function"
    },
    {
      "inputs": [
        {
          "internalType": "uint256",
          "name": "_petId",
          "type": "uint256"
        }
      ],
      "name": "getBreedingHistoryLength",
      "outputs": [
        {
          "internalType": "uint256",
          "name": "",
          "type": "uint256"
        }
      ],
      "stateMutability": "view",
      "type": "function"
    },
    {
      "inputs": [
        {
          "internalType": "uint256",
          "name": "_petId",
          "type": "uint256"
        },
        {
          "internalType": "uint256",
          "name": "_index",
          "type": "uint256"
        }
      ],
      "name": "getBreedingRecord",
      "outputs": [
        {
          "internalType": "uint256",
          "name": "sirePetId",
          "type": "uint256"
        },
        {
          "internalType": "uint256",
          "name": "damPetId",
          "type": "uint256"
        },
        {
          "internalType": "uint256",
          "name": "birthTimestamp",
          "type": "uint256"
        },
        {
          "internalType": "uint256[]",
          "name": "offspringPetIds",
          "type": "uint256[]"
        }
      ],
      "stateMutability": "view",
      "type": "function"
    },
    {
      "inputs": [
        {
          "internalType": "uint256",
          "name": "_petId",
          "type": "uint256"
        }
      ],
      "name": "getMedicalHistoryLength",
      "outputs": [
        {
          "internalType": "uint256",
          "name": "",
          "type": "uint256"
        }
      ],
      "stateMutability": "view",
      "type": "function"
    },
    {
      "inputs": [
        {
          "internalType": "uint256",
          "name": "_petId",
          "type": "uint256"
        },
        {
          "internalType": "uint256",
          "name": "_index",
          "type": "uint256"
        }
      ],
      "name": "getMedicalRecord",
      "outputs": [
        {
          "internalType": "address",
          "name": "",
          "type": "address"
        },
        {
          "internalType": "string",
          "name": "",
          "type": "string"
        },
        {
          "internalType": "uint256",
          "name": "",
          "type": "uint256"
        },
        {
          "internalType": "bool",
          "name": "",
          "type": "bool"
        }
      ],
      "stateMutability": "view",
      "type": "function"
    },
    {
      "inputs": [
        {
          "internalType": "uint256",
          "name": "_petId",
          "type": "uint256"
        }
      ],
      "name": "getPetBasicInfo",
      "outputs": [
        {
          "internalType": "address",
          "name": "",
          "type": "address"
        },
        {
          "internalType": "string",
          "name": "",
          "type": "string"
        }
      ],
      "stateMutability": "view",
      "type": "function"
    },
    {
      "inputs": [
        {
          "internalType": "address",
          "name": "account",
          "type": "address"
        },
        {
          "internalType": "address",
          "name": "operator",
          "type": "address"
        }
      ],
      "name": "isApprovedForAll",
      "outputs": [
        {
          "internalType": "bool",
          "name": "",
          "type": "bool"
        }
      ],
      "stateMutability": "view",
      "type": "function"
    },
    {
      "inputs": [
        {
          "internalType": "uint256",
          "name": "_petId",
          "type": "uint256"
        },
        {
          "internalType": "address",
          "name": "_vetAddress",
          "type": "address"
        }
      ],
      "name": "isAuthorizedVet",
      "outputs": [
        {
          "internalType": "bool",
          "name": "",
          "type": "bool"
        }
      ],
      "stateMutability": "view",
      "type": "function"
    },
    {
      "inputs": [],
      "name": "owner",
      "outputs": [
        {
          "internalType": "address",
          "name": "",
          "type": "address"
        }
      ],
      "stateMutability": "view",
      "type": "function"
    },
    {
      "inputs": [
        {
          "internalType": "uint256",
          "name": "",
          "type": "uint256"
        }
      ],
      "name": "petRecords",
      "outputs": [
        {
          "internalType": "address",
          "name": "owner",
          "type": "address"
        },
        {
          "internalType": "string",
          "name": "basicInfoIPFSHash",
          "type": "string"
        }
      ],
      "stateMutability": "view",
      "type": "function"
    },
    {
      "inputs": [
        {
          "internalType": "address",
          "name": "_owner",
          "type": "address"
        },
        {
          "internalType": "string",
          "name": "_basicInfoIPFSHash",
          "type": "string"
        }
      ],
      "name": "registerPet",
      "outputs": [
        {
          "internalType": "uint256",
          "name": "",
          "type": "uint256"
        }
      ],
      "stateMutability": "nonpayable",
      "type": "function"
    },
    {
      "inputs": [],
      "name": "renounceOwnership",
      "outputs": [],
      "stateMutability": "nonpayable",
      "type": "function"
    },
    {
      "inputs": [
        {
          "internalType": "address",
          "name": "from",
          "type": "address"
        },
        {
          "internalType": "address",
          "name": "to",
          "type": "address"
        },
        {
          "internalType": "uint256[]",
          "name": "ids",
          "type": "uint256[]"
        },
        {
          "internalType": "uint256[]",
          "name": "values",
          "type": "uint256[]"
        },
        {
          "internalType": "bytes",
          "name": "data",
          "type": "bytes"
        }
      ],
      "name": "safeBatchTransferFrom",
      "outputs": [],
      "stateMutability": "nonpayable",
      "type": "function"
    },
    {
      "inputs": [
        {
          "internalType": "address",
          "name": "from",
          "type": "address"
        },
        {
          "internalType": "address",
          "name": "to",
          "type": "address"
        },
        {
          "internalType": "uint256",
          "name": "id",
          "type": "uint256"
        },
        {
          "internalType": "uint256",
          "name": "value",
          "type": "uint256"
        },
        {
          "internalType": "bytes",
          "name": "data",
          "type": "bytes"
        }
      ],
      "name": "safeTransferFrom",
      "outputs": [],
      "stateMutability": "nonpayable",
      "type": "function"
    },
    {
      "inputs": [
        {
          "internalType": "address",
          "name": "operator",
          "type": "address"
        },
        {
          "internalType": "bool",
          "name": "approved",
          "type": "bool"
        }
      ],
      "name": "setApprovalForAll",
      "outputs": [],
      "stateMutability": "nonpayable",
      "type": "function"
    },
    {
      "inputs": [
        {
          "internalType": "string",
          "name": "_newBaseURI",
          "type": "string"
        }
      ],
      "name": "setBaseURI",
      "outputs": [],
      "stateMutability": "nonpayable",
      "type": "function"
    },
    {
      "inputs": [
        {
          "internalType": "address",
          "name": "_newVetCredentialAddress",
          "type": "address"
        }
      ],
      "name": "setVetCredentialContract",
      "outputs": [],
      "stateMutability": "nonpayable",
      "type": "function"
    },
    {
      "inputs": [
        {
          "internalType": "bytes4",
          "name": "interfaceId",
          "type": "bytes4"
        }
      ],
      "name": "supportsInterface",
      "outputs": [
        {
          "internalType": "bool",
          "name": "",
          "type": "bool"
        }
      ],
      "stateMutability": "view",
      "type": "function"
    },
    {
      "inputs": [
        {
          "internalType": "address",
          "name": "newOwner",
          "type": "address"
        }
      ],
      "name": "transferOwnership",
      "outputs": [],
      "stateMutability": "nonpayable",
      "type": "function"
    },
    {
      "inputs": [
        {
          "internalType": "uint256",
          "name": "_tokenId",
          "type": "uint256"
        }
      ],
      "name": "uri",
      "outputs": [
        {
          "internalType": "string",
          "name": "",
          "type": "string"
        }
      ],
      "stateMutability": "view",
      "type": "function"
    },
    {
      "inputs": [],
      "name": "vetCredentialContract",
      "outputs": [
        {
          "internalType": "contract VeterinarianCredential",
          "name": "",
          "type": "address"
        }
      ],
      "stateMutability": "view",
      "type": "function"
    }
  ],
  "bytecode": "0x60806040523480156200001157600080fd5b5060405162002fe738038062002fe783398101604081905262000034916200015a565b60408051602081019091526000815233906200005081620000f6565b506001600160a01b0381166200008057604051631e4fbdf760e01b81526000600482015260240160405180910390fd5b6200008b8162000108565b5060408051808201909152601d81527f68747470733a2f2f70617767756172642e636f6d2f6170692f7065742f0000006020820152600590620000cf908262000231565b50600480546001600160a01b0319166001600160a01b0392909216919091179055620002fd565b600262000104828262000231565b5050565b600380546001600160a01b038381166001600160a01b0319831681179093556040519116919082907f8be0079c531659141344cd1fd0a4f28419497f9722a3daafe3b4186f6b6457e090600090a35050565b6000602082840312156200016d57600080fd5b81516001600160a01b03811681146200018557600080fd5b9392505050565b634e487b7160e01b600052604160045260246000fd5b600181811c90821680620001b757607f821691505b602082108103620001d857634e487b7160e01b600052602260045260246000fd5b50919050565b601f8211156200022c57600081815260208120601f850160051c81016020861015620002075750805b601f850160051c820191505b81811015620002285782815560010162000213565b5050505b505050565b81516001600160401b038111156200024d576200024d6200018c565b62000265816200025e8454620001a2565b84620001de565b602080601f8311600181146200029d5760008415620002845750858301515b600019600386901b1c1916600185901b17855562000228565b600085815260208120601f198616915b82811015620002ce57888601518255948401946001909101908401620002ad565b5085821015620002ed5787850151600019600388901b60f8161c191681555b5050505050600190811b01905550565b612cda806200030d6000396000f3fe608060405234801561001057600080fd5b50600436106101a85760003560e01c806355f804b3116100f9578063a22cb46511610097578063c6b7b26811610071578063c6b7b268146103f7578063e985e9c51461041a578063f242432a1461042d578063f2fde38b1461044057600080fd5b8063a22cb465146103b1578063b3b7b0a4146103c4578063be77e90f146103e457600080fd5b806383e6fcb5116100d357806383e6fcb5146103675780638da5cb5b1461037a578063993ab0ba1461038b578063a198b9fa1461039e57600080fd5b806355f804b3146103395780636ab989481461034c578063715018a61461035f57600080fd5b80632ac71ead1161016657806331b7f77d1161014057806331b7f77d146102c857806334e0cade146102f35780634e1273f4146103065780635196502c1461032657600080fd5b80632ac71ead1461026d5780632eb2c2d6146102905780632fa933cd146102a557600080fd5b8062fdd58e146101ad57806301ffc9a7146101d357806303852d1c146101f65780630e89341c14610219578063166d76fe146102395780631afb29a71461025a575b600080fd5b6101c06101bb366004612235565b610453565b6040519081526020015b60405180910390f35b6101e66101e1366004612275565b61047b565b60405190151581526020016101ca565b6101c0610204366004612299565b60009081526006602052604090206004015490565b61022c610227366004612299565b6104cb565b6040516101ca9190612302565b61024c610247366004612299565b6104ff565b6040516101ca929190612315565b6101e6610268366004612341565b6105ae565b61028061027b36600461236d565b61063a565b6040516101ca94939291906123ca565b6102a361029e36600461253c565b610764565b005b6102b86102b336600461236d565b6107cb565b6040516101ca94939291906125e5565b6004546102db906001600160a01b031681565b6040516001600160a01b0390911681526020016101ca565b6102a3610301366004612341565b61093c565b610319610314366004612621565b610bc6565b6040516101ca91906126e0565b6102a36103343660046126f3565b610c9a565b6102a3610347366004612749565b610e9a565b6102a361035a36600461277d565b610eb2565b6102a3611205565b6102a36103753660046127b9565b611219565b6003546001600160a01b03166102db565b61024c610399366004612299565b611299565b6101c06103ac3660046127d4565b611352565b6102a36103bf366004612819565b611412565b6103d76103d2366004612299565b61141d565b6040516101ca9190612850565b6102a36103f2366004612341565b61148c565b6101c0610405366004612299565b60009081526006602052604090206003015490565b6101e661042836600461289d565b6116fc565b6102a361043b3660046128c7565b61172a565b6102a361044e3660046127b9565b611789565b6000818152602081815260408083206001600160a01b03861684529091529020545b92915050565b60006001600160e01b03198216636cdb3d1360e11b14806104ac57506001600160e01b031982166303a24d0760e21b145b8061047557506301ffc9a760e01b6001600160e01b0319831614610475565b606060056104d8836117c7565b6040516020016104e9929190612965565b6040516020818303038152906040529050919050565b600660205260009081526040902080546001820180546001600160a01b03909216929161052b9061292b565b80601f01602080910402602001604051908101604052809291908181526020018280546105579061292b565b80156105a45780601f10610579576101008083540402835291602001916105a4565b820191906000526020600020905b81548152906001019060200180831161058757829003601f168201915b5050505050905082565b6000805b60008481526006602052604090206002015481101561063057600084815260066020526040902060020180546001600160a01b0385169190839081106105fa576105fa6129ec565b6000918252602090912001546001600160a01b03160361061e576001915050610475565b8061062881612a18565b9150506105b2565b5060009392505050565b6000828152600660205260408120600401548190819060609085106106ba5760405162461bcd60e51b815260206004820152602b60248201527f5065744e46543a204272656564696e67207265636f726420696e646578206f7560448201526a74206f6620626f756e647360a81b60648201526084015b60405180910390fd5b60008681526006602052604081206004018054879081106106dd576106dd6129ec565b90600052602060002090600402019050806000015481600101548260020154836003018080548060200260200160405190810160405280929190818152602001828054801561074b57602002820191906000526020600020905b815481526020019060010190808311610737575b5050505050905094509450945094505092959194509250565b336001600160a01b0386168114801590610785575061078386826116fc565b155b156107b65760405163711bec9160e11b81526001600160a01b038083166004830152871660248201526044016106b1565b6107c38686868686611859565b505050505050565b6000828152600660205260408120600301546060908290819085106108455760405162461bcd60e51b815260206004820152602a60248201527f5065744e46543a204d65646963616c207265636f726420696e646578206f7574604482015269206f6620626f756e647360b01b60648201526084016106b1565b6000868152600660205260408120600301805487908110610868576108686129ec565b600091825260209091206004909102018054600282015460038301546001840180549495506001600160a01b039093169360ff9091169083906108aa9061292b565b80601f01602080910402602001604051908101604052809291908181526020018280546108d69061292b565b80156109235780601f106108f857610100808354040283529160200191610923565b820191906000526020600020905b81548152906001019060200180831161090657829003601f168201915b5050505050925094509450945094505092959194509250565b6000828152600660205260409020546001600160a01b031633146109b45760405162461bcd60e51b815260206004820152602960248201527f5065744e46543a204f6e6c7920706574206f776e65722063616e20617574686f60448201526872697a65207665747360b81b60648201526084016106b1565b6001600160a01b038116610a0a5760405162461bcd60e51b815260206004820152601b60248201527f5065744e46543a20496e76616c6964207665742061646472657373000000000060448201526064016106b1565b6004805460405163edf9384560e01b81526001600160a01b038481169382019390935291169063edf9384590602401602060405180830381865afa158015610a56573d6000803e3d6000fd5b505050506040513d601f19601f82011682018060405250810190610a7a9190612a31565b610ada5760405162461bcd60e51b815260206004820152602b60248201527f5065744e46543a2056657420646f6573206e6f7420686176652076616c69642060448201526a63726564656e7469616c7360a81b60648201526084016106b1565b60005b600083815260066020526040902060020154811015610b5657600083815260066020526040902060020180546001600160a01b038416919083908110610b2557610b256129ec565b6000918252602090912001546001600160a01b031603610b4457505050565b80610b4e81612a18565b915050610add565b506000828152600660209081526040808320600201805460018101825590845291832090910180546001600160a01b0319166001600160a01b0385169081179091559051339285917fbb3064d1e60e293bf140bafe25be89cf0c241fc1d20995066778abf44a1b1d129190a45050565b60608151835114610bf75781518351604051635b05999160e01b8152600481019290925260248201526044016106b1565b600083516001600160401b03811115610c1257610c126123f9565b604051908082528060200260200182016040528015610c3b578160200160208202803683370190505b50905060005b8451811015610c9257602080820286010151610c6590602080840287010151610453565b828281518110610c7757610c776129ec565b6020908102919091010152610c8b81612a18565b9050610c41565b509392505050565b6000858152600660205260409020546001600160a01b03163314610d185760405162461bcd60e51b815260206004820152602f60248201527f5065744e46543a204f6e6c7920706574206f776e65722063616e20616464206260448201526e72656564696e67207265636f72647360881b60648201526084016106b1565b8360075410158015610d2a5750600084115b610d765760405162461bcd60e51b815260206004820152601b60248201527f5065744e46543a20496e76616c6964207369726520706574204944000000000060448201526064016106b1565b8260075410158015610d885750600083115b610dd45760405162461bcd60e51b815260206004820152601a60248201527f5065744e46543a20496e76616c69642064616d2070657420494400000000000060448201526064016106b1565b6040805160808101825285815260208082018681528284018681526060840186815260008b815260068552958620600490810180546001818101835591895297869020875198909202909101968755925192860192909255516002850155518051929384939092610e4c9260038501929101906121b9565b505060408051878152602081018790529081018590528791507fb2502b6627193f923133b802453267f711a0ecf0042e182c54b188349e64cbd09060600160405180910390a2505050505050565b610ea26118c0565b6005610eae8282612a99565b5050565b816000805b600083815260066020526040902060020154811015610f2b576000838152600660205260409020600201805433919083908110610ef657610ef66129ec565b6000918252602090912001546001600160a01b031603610f195760019150610f2b565b80610f2381612a18565b915050610eb7565b5080610f965760405162461bcd60e51b815260206004820152603460248201527f5065744e46543a2043616c6c6572206973206e6f7420616e20617574686f72696044820152731e9959081d995d08199bdc881d1a1a5cc81c195d60621b60648201526084016106b1565b6000835111610ff15760405162461bcd60e51b815260206004820152602160248201527f5065744e46543a204950465320686173682063616e6e6f7420626520656d70746044820152607960f81b60648201526084016106b1565b6004805460405163edf9384560e01b815233928101929092526001600160a01b03169063edf9384590602401602060405180830381865afa15801561103a573d6000803e3d6000fd5b505050506040513d601f19601f8201168201806040525081019061105e9190612a31565b6110bd5760405162461bcd60e51b815260206004820152602a60248201527f5065744e46543a205665742063726564656e7469616c732065787069726564206044820152691bdc881c995d9bdad95960b21b60648201526084016106b1565b60408051608081018252338152602080820186815242838501526001606084018190526000898152600684529485206003018054808301825590865292909420835160049093020180546001600160a01b0319166001600160a01b039093169290921782555191928392908201906111359082612a99565b5060408281015160028301556060909201516003909101805460ff191691151591909117905560048054915163061b193d60e01b815233918101919091526001600160a01b039091169063061b193d90602401600060405180830381600087803b1580156111a257600080fd5b505af11580156111b6573d6000803e3d6000fd5b50505050336001600160a01b0316857fc93231004f4f4a19a8c9fcee05a15a4ba5ce122698ac5546eac053d8b698f24a86426040516111f6929190612b58565b60405180910390a35050505050565b61120d6118c0565b61121760006118ed565b565b6112216118c0565b6001600160a01b0381166112775760405162461bcd60e51b815260206004820181905260248201527f5065744e46543a20496e76616c696420636f6e7472616374206164647265737360448201526064016106b1565b600480546001600160a01b0319166001600160a01b0392909216919091179055565b60008181526006602052604081208054600190910180546060926001600160a01b0316919081906112c99061292b565b80601f01602080910402602001604051908101604052809291908181526020018280546112f59061292b565b80156113425780601f1061131757610100808354040283529160200191611342565b820191906000526020600020905b81548152906001019060200180831161132557829003601f168201915b5050505050905091509150915091565b600061135c6118c0565b6007805490600061136c83612a18565b919050555060006007549050611394848260016040518060200160405280600081525061193f565b600081815260066020526040902080546001600160a01b0319166001600160a01b0386161781556001016113c88482612a99565b50836001600160a01b0316817f3c0aadacdb910e58fe38928aad07e1b89dc0baee588d7ca1e9bba80e1e3f3964856040516114039190612302565b60405180910390a39392505050565b610eae33838361199c565b60008181526006602090815260409182902060020180548351818402810184019094528084526060939283018282801561148057602002820191906000526020600020905b81546001600160a01b03168152600190910190602001808311611462575b50505050509050919050565b6000828152600660205260409020546001600160a01b031633146115065760405162461bcd60e51b815260206004820152602b60248201527f5065744e46543a204f6e6c7920706574206f776e65722063616e20646561757460448201526a686f72697a65207665747360a81b60648201526084016106b1565b6000805b60008481526006602052604090206002015481101561165f57600084815260066020526040902060020180546001600160a01b038516919083908110611552576115526129ec565b6000918252602090912001546001600160a01b03160361164d576000848152600660205260409020600201805461158b90600190612b7a565b8154811061159b5761159b6129ec565b60009182526020808320909101548683526006909152604090912060020180546001600160a01b0390921691839081106115d7576115d76129ec565b600091825260208083209190910180546001600160a01b0319166001600160a01b03949094169390931790925585815260069091526040902060020180548061162257611622612b8d565b600082815260209020810160001990810180546001600160a01b03191690550190556001915061165f565b8061165781612a18565b91505061150a565b50806116bf5760405162461bcd60e51b815260206004820152602960248201527f5065744e46543a20566574206e6f7420666f756e6420666f722064656175746860448201526837b934bd30ba34b7b760b91b60648201526084016106b1565b60405133906001600160a01b0384169085907fb3c7d054cfd56459a97a11867f500d4c18e8b36b6d4fe7a9295371f44774682b90600090a4505050565b6001600160a01b03918216600090815260016020908152604080832093909416825291909152205460ff1690565b336001600160a01b038616811480159061174b575061174986826116fc565b155b1561177c5760405163711bec9160e11b81526001600160a01b038083166004830152871660248201526044016106b1565b6107c38686868686611a32565b6117916118c0565b6001600160a01b0381166117bb57604051631e4fbdf760e01b8152600060048201526024016106b1565b6117c4816118ed565b50565b606060006117d483611ac0565b60010190506000816001600160401b038111156117f3576117f36123f9565b6040519080825280601f01601f19166020018201604052801561181d576020820181803683370190505b5090508181016020015b600019016f181899199a1a9b1b9c1cb0b131b232b360811b600a86061a8153600a850494508461182757509392505050565b6001600160a01b03841661188357604051632bfa23e760e11b8152600060048201526024016106b1565b6001600160a01b0385166118ac57604051626a0d4560e21b8152600060048201526024016106b1565b6118b98585858585611b98565b5050505050565b6003546001600160a01b031633146112175760405163118cdaa760e01b81523360048201526024016106b1565b600380546001600160a01b038381166001600160a01b0319831681179093556040519116919082907f8be0079c531659141344cd1fd0a4f28419497f9722a3daafe3b4186f6b6457e090600090a35050565b6001600160a01b03841661196957604051632bfa23e760e11b8152600060048201526024016106b1565b604080516001808252602082018690528183019081526060820185905260808201909252906107c3600087848487611b98565b6001600160a01b0382166119c55760405162ced3e160e81b8152600060048201526024016106b1565b6001600160a01b03838116600081815260016020908152604080832094871680845294825291829020805460ff191686151590811790915591519182527f17307eab39ab6107e8899845ad3d59bd9653f200f220920489ca2b5937696c31910160405180910390a3505050565b6001600160a01b038416611a5c57604051632bfa23e760e11b8152600060048201526024016106b1565b6001600160a01b038516611a8557604051626a0d4560e21b8152600060048201526024016106b1565b60408051600180825260208201869052818301908152606082018590526080820190925290611ab78787848487611b98565b50505050505050565b60008072184f03e93ff9f4daa797ed6e38ed64bf6a1f0160401b8310611aff5772184f03e93ff9f4daa797ed6e38ed64bf6a1f0160401b830492506040015b6d04ee2d6d415b85acef81000000008310611b2b576d04ee2d6d415b85acef8100000000830492506020015b662386f26fc100008310611b4957662386f26fc10000830492506010015b6305f5e1008310611b61576305f5e100830492506008015b6127108310611b7557612710830492506004015b60648310611b87576064830492506002015b600a83106104755760010192915050565b611ba485858585611beb565b6001600160a01b038416156118b95782513390600103611bdd5760208481015190840151611bd6838989858589611d8f565b50506107c3565b6107c3818787878787611eb3565b611bf784848484611f9c565b6001600160a01b03841615801590611c1757506001600160a01b03831615155b15611d895760005b82518110156118b957846001600160a01b031660066000858481518110611c4857611c486129ec565b6020908102919091018101518252810191909152604001600020546001600160a01b031614611cc95760405162461bcd60e51b815260206004820152602760248201527f5065744e46543a20506574206f776e6572206d69736d6174636820666f7220746044820152663930b739b332b960c91b60648201526084016106b1565b8360066000858481518110611ce057611ce06129ec565b6020026020010151815260200190815260200160002060000160006101000a8154816001600160a01b0302191690836001600160a01b03160217905550836001600160a01b0316856001600160a01b0316848381518110611d4357611d436129ec565b60200260200101517fec966f1f123f894c9a734212c909ce0b3ce805cc4098502797b949c65ca65e7860405160405180910390a480611d8181612a18565b915050611c1f565b50505050565b6001600160a01b0384163b156107c35760405163f23a6e6160e01b81526001600160a01b0385169063f23a6e6190611dd39089908990889088908890600401612ba3565b6020604051808303816000875af1925050508015611e0e575060408051601f3d908101601f19168201909252611e0b91810190612be8565b60015b611e77573d808015611e3c576040519150601f19603f3d011682016040523d82523d6000602084013e611e41565b606091505b508051600003611e6f57604051632bfa23e760e11b81526001600160a01b03861660048201526024016106b1565b805160208201fd5b6001600160e01b0319811663f23a6e6160e01b14611ab757604051632bfa23e760e11b81526001600160a01b03861660048201526024016106b1565b6001600160a01b0384163b156107c35760405163bc197c8160e01b81526001600160a01b0385169063bc197c8190611ef79089908990889088908890600401612c05565b6020604051808303816000875af1925050508015611f32575060408051601f3d908101601f19168201909252611f2f91810190612be8565b60015b611f60573d808015611e3c576040519150601f19603f3d011682016040523d82523d6000602084013e611e41565b6001600160e01b0319811663bc197c8160e01b14611ab757604051632bfa23e760e11b81526001600160a01b03861660048201526024016106b1565b8051825114611fcb5781518151604051635b05999160e01b8152600481019290925260248201526044016106b1565b3360005b83518110156120da576020818102858101820151908501909101516001600160a01b03881615612082576000828152602081815260408083206001600160a01b038c1684529091529020548181101561205b576040516303dee4c560e01b81526001600160a01b038a1660048201526024810182905260448101839052606481018490526084016106b1565b6000838152602081815260408083206001600160a01b038d16845290915290209082900390555b6001600160a01b038716156120c7576000828152602081815260408083206001600160a01b038b168452909152812080548392906120c1908490612c63565b90915550505b5050806120d390612a18565b9050611fcf565b50825160010361215b5760208301516000906020840151909150856001600160a01b0316876001600160a01b0316846001600160a01b03167fc3d58168c5ae7397731d063d5bbf3d657854427343f4c083240f7aacaa2d0f62858560405161214c929190918252602082015260400190565b60405180910390a450506118b9565b836001600160a01b0316856001600160a01b0316826001600160a01b03167f4a39dc06d4c0dbc64b70af90fd698a233a518aa5d07e595d983b8c0526c8f7fb86866040516121aa929190612c76565b60405180910390a45050505050565b8280548282559060005260206000209081019282156121f4579160200282015b828111156121f45782518255916020019190600101906121d9565b50612200929150612204565b5090565b5b808211156122005760008155600101612205565b80356001600160a01b038116811461223057600080fd5b919050565b6000806040838503121561224857600080fd5b61225183612219565b946020939093013593505050565b6001600160e01b0319811681146117c457600080fd5b60006020828403121561228757600080fd5b81356122928161225f565b9392505050565b6000602082840312156122ab57600080fd5b5035919050565b60005b838110156122cd5781810151838201526020016122b5565b50506000910152565b600081518084526122ee8160208601602086016122b2565b601f01601f19169290920160200192915050565b60208152600061229260208301846122d6565b6001600160a01b0383168152604060208201819052600090612339908301846122d6565b949350505050565b6000806040838503121561235457600080fd5b8235915061236460208401612219565b90509250929050565b6000806040838503121561238057600080fd5b50508035926020909101359150565b600081518084526020808501945080840160005b838110156123bf578151875295820195908201906001016123a3565b509495945050505050565b8481528360208201528260408201526080606082015260006123ef608083018461238f565b9695505050505050565b634e487b7160e01b600052604160045260246000fd5b604051601f8201601f191681016001600160401b0381118282101715612437576124376123f9565b604052919050565b60006001600160401b03821115612458576124586123f9565b5060051b60200190565b600082601f83011261247357600080fd5b813560206124886124838361243f565b61240f565b82815260059290921b840181019181810190868411156124a757600080fd5b8286015b848110156124c257803583529183019183016124ab565b509695505050505050565b600082601f8301126124de57600080fd5b81356001600160401b038111156124f7576124f76123f9565b61250a601f8201601f191660200161240f565b81815284602083860101111561251f57600080fd5b816020850160208301376000918101602001919091529392505050565b600080600080600060a0868803121561255457600080fd5b61255d86612219565b945061256b60208701612219565b935060408601356001600160401b038082111561258757600080fd5b61259389838a01612462565b945060608801359150808211156125a957600080fd5b6125b589838a01612462565b935060808801359150808211156125cb57600080fd5b506125d8888289016124cd565b9150509295509295909350565b6001600160a01b0385168152608060208201819052600090612609908301866122d6565b60408301949094525090151560609091015292915050565b6000806040838503121561263457600080fd5b82356001600160401b038082111561264b57600080fd5b818501915085601f83011261265f57600080fd5b8135602061266f6124838361243f565b82815260059290921b8401810191818101908984111561268e57600080fd5b948201945b838610156126b3576126a486612219565b82529482019490820190612693565b965050860135925050808211156126c957600080fd5b506126d685828601612462565b9150509250929050565b602081526000612292602083018461238f565b600080600080600060a0868803121561270b57600080fd5b8535945060208601359350604086013592506060860135915060808601356001600160401b0381111561273d57600080fd5b6125d888828901612462565b60006020828403121561275b57600080fd5b81356001600160401b0381111561277157600080fd5b612339848285016124cd565b6000806040838503121561279057600080fd5b8235915060208301356001600160401b038111156127ad57600080fd5b6126d6858286016124cd565b6000602082840312156127cb57600080fd5b61229282612219565b600080604083850312156127e757600080fd5b6127f083612219565b915060208301356001600160401b038111156127ad57600080fd5b80151581146117c457600080fd5b6000806040838503121561282c57600080fd5b61283583612219565b915060208301356128458161280b565b809150509250929050565b6020808252825182820181905260009190848201906040850190845b818110156128915783516001600160a01b03168352928401929184019160010161286c565b50909695505050505050565b600080604083850312156128b057600080fd5b6128b983612219565b915061236460208401612219565b600080600080600060a086880312156128df57600080fd5b6128e886612219565b94506128f660208701612219565b9350604086013592506060860135915060808601356001600160401b0381111561291f57600080fd5b6125d8888289016124cd565b600181811c9082168061293f57607f821691505b60208210810361295f57634e487b7160e01b600052602260045260246000fd5b50919050565b60008084546129738161292b565b6001828116801561298b57600181146129a0576129cf565b60ff19841687528215158302870194506129cf565b8860005260208060002060005b858110156129c65781548a8201529084019082016129ad565b50505082870194505b5050505083516129e38183602088016122b2565b01949350505050565b634e487b7160e01b600052603260045260246000fd5b634e487b7160e01b600052601160045260246000fd5b600060018201612a2a57612a2a612a02565b5060010190565b600060208284031215612a4357600080fd5b81516122928161280b565b601f821115612a9457600081815260208120601f850160051c81016020861015612a755750805b601f850160051c820191505b818110156107c357828155600101612a81565b505050565b81516001600160401b03811115612ab257612ab26123f9565b612ac681612ac0845461292b565b84612a4e565b602080601f831160018114612afb5760008415612ae35750858301515b600019600386901b1c1916600185901b1785556107c3565b600085815260208120601f198616915b82811015612b2a57888601518255948401946001909101908401612b0b565b5085821015612b485787850151600019600388901b60f8161c191681555b5050505050600190811b01905550565b604081526000612b6b60408301856122d6565b90508260208301529392505050565b8181038181111561047557610475612a02565b634e487b7160e01b600052603160045260246000fd5b6001600160a01b03868116825285166020820152604081018490526060810183905260a060808201819052600090612bdd908301846122d6565b979650505050505050565b600060208284031215612bfa57600080fd5b81516122928161225f565b6001600160a01b0386811682528516602082015260a060408201819052600090612c319083018661238f565b8281036060840152612c43818661238f565b90508281036080840152612c5781856122d6565b98975050505050505050565b8082018082111561047557610475612a02565b604081526000612c89604083018561238f565b8281036020840152612c9b818561238f565b9594505050505056fea26469706673582212209599b59adf6e406594e0f5a44287adddac5f78e770e34067510262a2c6995a4964736f6c63430008140033",
  "linkReferences": {},
  "deployedLinkReferences": {}
}