{
  "_format": "hh-sol-artifact-1",
  "contractName": "JuryIdentity",
  "sourceName": "contracts/JuryIdentity.sol",
  "abi": [
    {
      "inputs": [
        {
          "internalType": "uint256",
          "name": "_minimumStake",
          "type": "uint256"
        }
      ],
      "stateMutability": "nonpayable",
      "type": "constructor"
    },
    {
      "inputs": [
        {
          "internalType": "address",
          "name": "owner",
          "type": "address"
        }
      ],
      "name": "OwnableInvalidOwner",
      "type": "error"
    },
    {
      "inputs": [
        {
          "internalType": "address",
          "name": "account",
          "type": "address"
        }
      ],
      "name": "OwnableUnauthorizedAccount",
      "type": "error"
    },
    {
      "anonymous": false,
      "inputs": [
        {
          "indexed": true,
          "internalType": "address",
          "name": "member",
          "type": "address"
        },
        {
          "indexed": false,
          "internalType": "string",
          "name": "reason",
          "type": "string"
        }
      ],
      "name": "JuryMemberBanned",
      "type": "event"
    },
    {
      "anonymous": false,
      "inputs": [
        {
          "indexed": true,
          "internalType": "address",
          "name": "member",
          "type": "address"
        },
        {
          "indexed": false,
          "internalType": "string",
          "name": "did",
          "type": "string"
        }
      ],
      "name": "JuryMemberRegistered",
      "type": "event"
    },
    {
      "anonymous": false,
      "inputs": [
        {
          "indexed": true,
          "internalType": "address",
          "name": "member",
          "type": "address"
        }
      ],
      "name": "JuryMemberReinstated",
      "type": "event"
    },
    {
      "anonymous": false,
      "inputs": [
        {
          "indexed": true,
          "internalType": "address",
          "name": "member",
          "type": "address"
        },
        {
          "indexed": false,
          "internalType": "string",
          "name": "reason",
          "type": "string"
        }
      ],
      "name": "JuryMemberSuspended",
      "type": "event"
    },
    {
      "anonymous": false,
      "inputs": [
        {
          "indexed": true,
          "internalType": "address",
          "name": "member",
          "type": "address"
        },
        {
          "indexed": true,
          "internalType": "address",
          "name": "verifier",
          "type": "address"
        }
      ],
      "name": "JuryMemberVerified",
      "type": "event"
    },
    {
      "anonymous": false,
      "inputs": [
        {
          "indexed": false,
          "internalType": "bool",
          "name": "enabled",
          "type": "bool"
        }
      ],
      "name": "OpenRegistrationToggled",
      "type": "event"
    },
    {
      "anonymous": false,
      "inputs": [
        {
          "indexed": true,
          "internalType": "address",
          "name": "previousOwner",
          "type": "address"
        },
        {
          "indexed": true,
          "internalType": "address",
          "name": "newOwner",
          "type": "address"
        }
      ],
      "name": "OwnershipTransferred",
      "type": "event"
    },
    {
      "anonymous": false,
      "inputs": [
        {
          "indexed": true,
          "internalType": "address",
          "name": "member",
          "type": "address"
        }
      ],
      "name": "RegistrationDisabledForAddress",
      "type": "event"
    },
    {
      "anonymous": false,
      "inputs": [
        {
          "indexed": true,
          "internalType": "address",
          "name": "member",
          "type": "address"
        }
      ],
      "name": "RegistrationEnabledForAddress",
      "type": "event"
    },
    {
      "anonymous": false,
      "inputs": [
        {
          "indexed": true,
          "internalType": "address",
          "name": "member",
          "type": "address"
        },
        {
          "indexed": false,
          "internalType": "int256",
          "name": "change",
          "type": "int256"
        },
        {
          "indexed": false,
          "internalType": "uint256",
          "name": "newScore",
          "type": "uint256"
        },
        {
          "indexed": false,
          "internalType": "string",
          "name": "reason",
          "type": "string"
        }
      ],
      "name": "ReputationUpdated",
      "type": "event"
    },
    {
      "anonymous": false,
      "inputs": [
        {
          "indexed": true,
          "internalType": "address",
          "name": "member",
          "type": "address"
        },
        {
          "indexed": false,
          "internalType": "uint256",
          "name": "newAmount",
          "type": "uint256"
        }
      ],
      "name": "StakeUpdated",
      "type": "event"
    },
    {
      "anonymous": false,
      "inputs": [
        {
          "indexed": true,
          "internalType": "address",
          "name": "member",
          "type": "address"
        },
        {
          "indexed": false,
          "internalType": "bool",
          "name": "passed",
          "type": "bool"
        },
        {
          "indexed": true,
          "internalType": "address",
          "name": "verifier",
          "type": "address"
        }
      ],
      "name": "SybilCheckPerformed",
      "type": "event"
    },
    {
      "inputs": [
        {
          "internalType": "address",
          "name": "_verifier",
          "type": "address"
        }
      ],
      "name": "authorizeVerifier",
      "outputs": [],
      "stateMutability": "nonpayable",
      "type": "function"
    },
    {
      "inputs": [
        {
          "internalType": "address",
          "name": "_member",
          "type": "address"
        },
        {
          "internalType": "string",
          "name": "_reason",
          "type": "string"
        }
      ],
      "name": "banMember",
      "outputs": [],
      "stateMutability": "nonpayable",
      "type": "function"
    },
    {
      "inputs": [
        {
          "internalType": "address[]",
          "name": "_members",
          "type": "address[]"
        }
      ],
      "name": "batchCheckEligibility",
      "outputs": [
        {
          "internalType": "bool[]",
          "name": "",
          "type": "bool[]"
        }
      ],
      "stateMutability": "view",
      "type": "function"
    },
    {
      "inputs": [
        {
          "internalType": "address[]",
          "name": "_addresses",
          "type": "address[]"
        }
      ],
      "name": "batchEnableRegistration",
      "outputs": [],
      "stateMutability": "nonpayable",
      "type": "function"
    },
    {
      "inputs": [
        {
          "internalType": "address",
          "name": "_address",
          "type": "address"
        }
      ],
      "name": "canRegister",
      "outputs": [
        {
          "internalType": "bool",
          "name": "",
          "type": "bool"
        }
      ],
      "stateMutability": "view",
      "type": "function"
    },
    {
      "inputs": [
        {
          "internalType": "string",
          "name": "",
          "type": "string"
        }
      ],
      "name": "didToAddress",
      "outputs": [
        {
          "internalType": "address",
          "name": "",
          "type": "address"
        }
      ],
      "stateMutability": "view",
      "type": "function"
    },
    {
      "inputs": [
        {
          "internalType": "address",
          "name": "_address",
          "type": "address"
        }
      ],
      "name": "disableRegistrationForAddress",
      "outputs": [],
      "stateMutability": "nonpayable",
      "type": "function"
    },
    {
      "inputs": [
        {
          "internalType": "address",
          "name": "_address",
          "type": "address"
        }
      ],
      "name": "enableRegistrationForAddress",
      "outputs": [],
      "stateMutability": "nonpayable",
      "type": "function"
    },
    {
      "inputs": [
        {
          "internalType": "address",
          "name": "_member",
          "type": "address"
        }
      ],
      "name": "getJuryMember",
      "outputs": [
        {
          "components": [
            {
              "internalType": "string",
              "name": "did",
              "type": "string"
            },
            {
              "internalType": "address",
              "name": "memberAddress",
              "type": "address"
            },
            {
              "internalType": "string",
              "name": "identityProofIPFSHash",
              "type": "string"
            },
            {
              "internalType": "enum JuryIdentity.JuryStatus",
              "name": "status",
              "type": "uint8"
            },
            {
              "internalType": "uint256",
              "name": "registrationDate",
              "type": "uint256"
            },
            {
              "internalType": "uint256",
              "name": "reputationScore",
              "type": "uint256"
            },
            {
              "internalType": "uint256",
              "name": "totalVotes",
              "type": "uint256"
            },
            {
              "internalType": "uint256",
              "name": "consistentVotes",
              "type": "uint256"
            },
            {
              "internalType": "uint256",
              "name": "lastVoteTimestamp",
              "type": "uint256"
            },
            {
              "internalType": "bool",
              "name": "isActive",
              "type": "bool"
            },
            {
              "internalType": "uint256",
              "name": "stakingAmount",
              "type": "uint256"
            },
            {
              "internalType": "uint256[]",
              "name": "participatedClaims",
              "type": "uint256[]"
            }
          ],
          "internalType": "struct JuryIdentity.JuryMember",
          "name": "",
          "type": "tuple"
        }
      ],
      "stateMutability": "view",
      "type": "function"
    },
    {
      "inputs": [
        {
          "internalType": "address",
          "name": "_member",
          "type": "address"
        }
      ],
      "name": "getParticipatedClaims",
      "outputs": [
        {
          "internalType": "uint256[]",
          "name": "",
          "type": "uint256[]"
        }
      ],
      "stateMutability": "view",
      "type": "function"
    },
    {
      "inputs": [
        {
          "internalType": "address",
          "name": "_member",
          "type": "address"
        }
      ],
      "name": "getReputationHistory",
      "outputs": [
        {
          "components": [
            {
              "internalType": "uint256",
              "name": "timestamp",
              "type": "uint256"
            },
            {
              "internalType": "int256",
              "name": "scoreChange",
              "type": "int256"
            },
            {
              "internalType": "string",
              "name": "reason",
              "type": "string"
            },
            {
              "internalType": "address",
              "name": "updatedBy",
              "type": "address"
            }
          ],
          "internalType": "struct JuryIdentity.ReputationEvent[]",
          "name": "",
          "type": "tuple[]"
        }
      ],
      "stateMutability": "view",
      "type": "function"
    },
    {
      "inputs": [
        {
          "internalType": "address",
          "name": "_member",
          "type": "address"
        }
      ],
      "name": "getSybilCheckCount",
      "outputs": [
        {
          "internalType": "uint256",
          "name": "",
          "type": "uint256"
        }
      ],
      "stateMutability": "view",
      "type": "function"
    },
    {
      "inputs": [
        {
          "internalType": "address",
          "name": "_member",
          "type": "address"
        }
      ],
      "name": "getVotingConsistency",
      "outputs": [
        {
          "internalType": "uint256",
          "name": "",
          "type": "uint256"
        }
      ],
      "stateMutability": "view",
      "type": "function"
    },
    {
      "inputs": [
        {
          "internalType": "address",
          "name": "_member",
          "type": "address"
        }
      ],
      "name": "hasSybilVerification",
      "outputs": [
        {
          "internalType": "bool",
          "name": "",
          "type": "bool"
        }
      ],
      "stateMutability": "view",
      "type": "function"
    },
    {
      "inputs": [
        {
          "internalType": "address",
          "name": "",
          "type": "address"
        },
        {
          "internalType": "uint256",
          "name": "",
          "type": "uint256"
        }
      ],
      "name": "hasVotedOnClaim",
      "outputs": [
        {
          "internalType": "bool",
          "name": "",
          "type": "bool"
        }
      ],
      "stateMutability": "view",
      "type": "function"
    },
    {
      "inputs": [],
      "name": "inactivityPenaltyPeriod",
      "outputs": [
        {
          "internalType": "uint256",
          "name": "",
          "type": "uint256"
        }
      ],
      "stateMutability": "view",
      "type": "function"
    },
    {
      "inputs": [
        {
          "internalType": "address",
          "name": "_member",
          "type": "address"
        }
      ],
      "name": "isEligibleForJury",
      "outputs": [
        {
          "internalType": "bool",
          "name": "",
          "type": "bool"
        }
      ],
      "stateMutability": "view",
      "type": "function"
    },
    {
      "inputs": [
        {
          "internalType": "address",
          "name": "",
          "type": "address"
        }
      ],
      "name": "isVerifier",
      "outputs": [
        {
          "internalType": "bool",
          "name": "",
          "type": "bool"
        }
      ],
      "stateMutability": "view",
      "type": "function"
    },
    {
      "inputs": [
        {
          "internalType": "address",
          "name": "",
          "type": "address"
        }
      ],
      "name": "juryMembers",
      "outputs": [
        {
          "internalType": "string",
          "name": "did",
          "type": "string"
        },
        {
          "internalType": "address",
          "name": "memberAddress",
          "type": "address"
        },
        {
          "internalType": "string",
          "name": "identityProofIPFSHash",
          "type": "string"
        },
        {
          "internalType": "enum JuryIdentity.JuryStatus",
          "name": "status",
          "type": "uint8"
        },
        {
          "internalType": "uint256",
          "name": "registrationDate",
          "type": "uint256"
        },
        {
          "internalType": "uint256",
          "name": "reputationScore",
          "type": "uint256"
        },
        {
          "internalType": "uint256",
          "name": "totalVotes",
          "type": "uint256"
        },
        {
          "internalType": "uint256",
          "name": "consistentVotes",
          "type": "uint256"
        },
        {
          "internalType": "uint256",
          "name": "lastVoteTimestamp",
          "type": "uint256"
        },
        {
          "internalType": "bool",
          "name": "isActive",
          "type": "bool"
        },
        {
          "internalType": "uint256",
          "name": "stakingAmount",
          "type": "uint256"
        }
      ],
      "stateMutability": "view",
      "type": "function"
    },
    {
      "inputs": [],
      "name": "minimumReputationForJury",
      "outputs": [
        {
          "internalType": "uint256",
          "name": "",
          "type": "uint256"
        }
      ],
      "stateMutability": "view",
      "type": "function"
    },
    {
      "inputs": [],
      "name": "minimumStakeForJury",
      "outputs": [
        {
          "internalType": "uint256",
          "name": "",
          "type": "uint256"
        }
      ],
      "stateMutability": "view",
      "type": "function"
    },
    {
      "inputs": [],
      "name": "openRegistration",
      "outputs": [
        {
          "internalType": "bool",
          "name": "",
          "type": "bool"
        }
      ],
      "stateMutability": "view",
      "type": "function"
    },
    {
      "inputs": [],
      "name": "owner",
      "outputs": [
        {
          "internalType": "address",
          "name": "",
          "type": "address"
        }
      ],
      "stateMutability": "view",
      "type": "function"
    },
    {
      "inputs": [
        {
          "internalType": "address",
          "name": "_member",
          "type": "address"
        },
        {
          "internalType": "bytes32",
          "name": "_identityHash",
          "type": "bytes32"
        },
        {
          "internalType": "bool",
          "name": "_passed",
          "type": "bool"
        }
      ],
      "name": "performSybilCheck",
      "outputs": [],
      "stateMutability": "nonpayable",
      "type": "function"
    },
    {
      "inputs": [
        {
          "internalType": "address",
          "name": "_member",
          "type": "address"
        },
        {
          "internalType": "uint256",
          "name": "_claimId",
          "type": "uint256"
        },
        {
          "internalType": "bool",
          "name": "_votedWithMajority",
          "type": "bool"
        }
      ],
      "name": "recordVote",
      "outputs": [],
      "stateMutability": "nonpayable",
      "type": "function"
    },
    {
      "inputs": [
        {
          "internalType": "string",
          "name": "_did",
          "type": "string"
        },
        {
          "internalType": "string",
          "name": "_identityProofIPFSHash",
          "type": "string"
        }
      ],
      "name": "registerJuryMember",
      "outputs": [],
      "stateMutability": "nonpayable",
      "type": "function"
    },
    {
      "inputs": [
        {
          "internalType": "address",
          "name": "",
          "type": "address"
        }
      ],
      "name": "registrationEnabled",
      "outputs": [
        {
          "internalType": "bool",
          "name": "",
          "type": "bool"
        }
      ],
      "stateMutability": "view",
      "type": "function"
    },
    {
      "inputs": [
        {
          "internalType": "address",
          "name": "_member",
          "type": "address"
        }
      ],
      "name": "reinstateMember",
      "outputs": [],
      "stateMutability": "nonpayable",
      "type": "function"
    },
    {
      "inputs": [],
      "name": "renounceOwnership",
      "outputs": [],
      "stateMutability": "nonpayable",
      "type": "function"
    },
    {
      "inputs": [],
      "name": "reputationDecayPeriod",
      "outputs": [
        {
          "internalType": "uint256",
          "name": "",
          "type": "uint256"
        }
      ],
      "stateMutability": "view",
      "type": "function"
    },
    {
      "inputs": [
        {
          "internalType": "address",
          "name": "",
          "type": "address"
        },
        {
          "internalType": "uint256",
          "name": "",
          "type": "uint256"
        }
      ],
      "name": "reputationHistory",
      "outputs": [
        {
          "internalType": "uint256",
          "name": "timestamp",
          "type": "uint256"
        },
        {
          "internalType": "int256",
          "name": "scoreChange",
          "type": "int256"
        },
        {
          "internalType": "string",
          "name": "reason",
          "type": "string"
        },
        {
          "internalType": "address",
          "name": "updatedBy",
          "type": "address"
        }
      ],
      "stateMutability": "view",
      "type": "function"
    },
    {
      "inputs": [
        {
          "internalType": "address",
          "name": "_verifier",
          "type": "address"
        }
      ],
      "name": "revokeVerifier",
      "outputs": [],
      "stateMutability": "nonpayable",
      "type": "function"
    },
    {
      "inputs": [
        {
          "internalType": "uint256",
          "name": "_newMinimum",
          "type": "uint256"
        }
      ],
      "name": "setMinimumReputation",
      "outputs": [],
      "stateMutability": "nonpayable",
      "type": "function"
    },
    {
      "inputs": [
        {
          "internalType": "uint256",
          "name": "_newMinimum",
          "type": "uint256"
        }
      ],
      "name": "setMinimumStake",
      "outputs": [],
      "stateMutability": "nonpayable",
      "type": "function"
    },
    {
      "inputs": [
        {
          "internalType": "address",
          "name": "_member",
          "type": "address"
        },
        {
          "internalType": "string",
          "name": "_reason",
          "type": "string"
        }
      ],
      "name": "suspendMember",
      "outputs": [],
      "stateMutability": "nonpayable",
      "type": "function"
    },
    {
      "inputs": [
        {
          "internalType": "address",
          "name": "",
          "type": "address"
        },
        {
          "internalType": "uint256",
          "name": "",
          "type": "uint256"
        }
      ],
      "name": "sybilChecks",
      "outputs": [
        {
          "internalType": "bytes32",
          "name": "identityHash",
          "type": "bytes32"
        },
        {
          "internalType": "uint256",
          "name": "timestamp",
          "type": "uint256"
        },
        {
          "internalType": "address",
          "name": "verifier",
          "type": "address"
        },
        {
          "internalType": "bool",
          "name": "passed",
          "type": "bool"
        }
      ],
      "stateMutability": "view",
      "type": "function"
    },
    {
      "inputs": [
        {
          "internalType": "bool",
          "name": "_enabled",
          "type": "bool"
        }
      ],
      "name": "toggleOpenRegistration",
      "outputs": [],
      "stateMutability": "nonpayable",
      "type": "function"
    },
    {
      "inputs": [
        {
          "internalType": "address",
          "name": "newOwner",
          "type": "address"
        }
      ],
      "name": "transferOwnership",
      "outputs": [],
      "stateMutability": "nonpayable",
      "type": "function"
    },
    {
      "inputs": [
        {
          "internalType": "address",
          "name": "_member",
          "type": "address"
        },
        {
          "internalType": "int256",
          "name": "_scoreChange",
          "type": "int256"
        },
        {
          "internalType": "string",
          "name": "_reason",
          "type": "string"
        }
      ],
      "name": "updateReputation",
      "outputs": [],
      "stateMutability": "nonpayable",
      "type": "function"
    },
    {
      "inputs": [
        {
          "internalType": "address",
          "name": "_member",
          "type": "address"
        },
        {
          "internalType": "uint256",
          "name": "_newAmount",
          "type": "uint256"
        }
      ],
      "name": "updateStake",
      "outputs": [],
      "stateMutability": "nonpayable",
      "type": "function"
    },
    {
      "inputs": [
        {
          "internalType": "bytes32",
          "name": "",
          "type": "bytes32"
        }
      ],
      "name": "usedIdentityHashes",
      "outputs": [
        {
          "internalType": "bool",
          "name": "",
          "type": "bool"
        }
      ],
      "stateMutability": "view",
      "type": "function"
    }
  ],
  "bytecode": "0x60806040526009805460ff1916905561012c600a556276a700600c5562ed4e00600d553480156200002f57600080fd5b5060405162003135380380620031358339810160408190526200005291620000f8565b33806200007957604051631e4fbdf760e01b81526000600482015260240160405180910390fd5b6200008481620000a8565b50600b55336000908152600760205260409020805460ff1916600117905562000112565b600080546001600160a01b038381166001600160a01b0319831681178455604051919092169283917f8be0079c531659141344cd1fd0a4f28419497f9722a3daafe3b4186f6b6457e09190a35050565b6000602082840312156200010b57600080fd5b5051919050565b61301380620001226000396000f3fe608060405234801561001057600080fd5b50600436106102535760003560e01c80639984f0db11610146578063bb32a7bd116100c3578063d4f7ba1211610087578063d4f7ba12146105eb578063ef85db8e146105fe578063f22360551461061e578063f2fde38b1461063e578063f6c3dde614610651578063fc2edec51461066457600080fd5b8063bb32a7bd1461058c578063bd02a235146105af578063bd733a26146105c2578063caa6e7c8146105d5578063d06e4ee7146105de57600080fd5b8063ab45d7071161010a578063ab45d70714610531578063b3b3e15b1461053a578063b3dbe71e1461054d578063b7fbae2e14610556578063bac0caf11461057957600080fd5b80639984f0db1461048b5780639bac94ed146104cf5780639f65080b146104e25780639fc788a5146104f5578063a625b9ea1461051e57600080fd5b806348bb0fe4116101d4578063715018a611610198578063715018a61461040157806381758557146104095780638b1896a71461042c5780638da5cb5b1461045a57806391bde3371461046b57600080fd5b806348bb0fe41461035c5780634e7ce73f1461037c578063540e09751461038f578063556f5b27146103a25780636ba1f4a4146103b557600080fd5b806329c285d31161021b57806329c285d3146102d95780632e9cad83146102f0578063320d46d41461030357806333105218146103265780633c199e251461034957600080fd5b80630366d8bb14610258578063209173c91461026d57806320ad8cab146102a0578063233e9903146102b357806326488531146102c6575b600080fd5b61026b6102663660046125f0565b610677565b005b61028061027b366004612629565b6106c6565b6040516102979b9a999897969594939291906126cc565b60405180910390f35b61026b6102ae366004612629565b610842565b61026b6102c1366004612750565b61089d565b61026b6102d4366004612820565b6108aa565b6102e2600d5481565b604051908152602001610297565b61026b6102fe36600461286e565b61099b565b610316610311366004612629565b610c4d565b6040519015158152602001610297565b610316610334366004612629565b60076020526000908152604090205460ff1681565b6102e2610357366004612629565b610c7f565b61036f61036a366004612629565b610d1d565b60405161029791906128aa565b61026b61038a36600461293f565b610e4e565b61026b61039d366004612996565b610ea2565b61026b6103b0366004612629565b611287565b6103e96103c33660046129f0565b80516020818301810180516002825292820191909301209152546001600160a01b031681565b6040516001600160a01b039091168152602001610297565b61026b6112d8565b610316610417366004612750565b60056020526000908152604090205460ff1681565b61031661043a366004612a2d565b600660209081526000928352604080842090915290825290205460ff1681565b6000546001600160a01b03166103e9565b61047e610479366004612a57565b6112ec565b6040516102979190612b04565b61049e610499366004612a2d565b61139f565b604051610297949392919093845260208401929092526001600160a01b031660408301521515606082015260800190565b61026b6104dd366004612750565b6113f6565b61026b6104f0366004612a2d565b611466565b6102e2610503366004612629565b6001600160a01b031660009081526003602052604090205490565b61031661052c366004612629565b6114f1565b6102e2600b5481565b61026b610548366004612629565b6115d7565b6102e2600c5481565b610316610564366004612629565b60086020526000908152604090205460ff1681565b61026b610587366004612820565b611651565b61059f61059a366004612a2d565b611726565b6040516102979493929190612b4a565b61026b6105bd366004612629565b611804565b61026b6105d0366004612a57565b61182d565b6102e2600a5481565b6009546103169060ff1681565b6103166105f9366004612629565b611948565b61061161060c366004612629565b611c4f565b6040516102979190612bbd565b61063161062c366004612629565b611ed9565b6040516102979190612cae565b61026b61064c366004612629565b611f84565b61026b61065f36600461286e565b611fc2565b61026b610672366004612629565b6121a3565b61067f612311565b6009805460ff19168215159081179091556040519081527fbd48e1b94f0c3799855b7ea3da41ab8d7e3fb53c11e0d1095c74c55f508de3a19060200160405180910390a150565b6001602052600090815260409020805481906106e190612cc1565b80601f016020809104026020016040519081016040528092919081815260200182805461070d90612cc1565b801561075a5780601f1061072f5761010080835404028352916020019161075a565b820191906000526020600020905b81548152906001019060200180831161073d57829003601f168201915b505050600184015460028501805494956001600160a01b0390921694919350915061078490612cc1565b80601f01602080910402602001604051908101604052809291908181526020018280546107b090612cc1565b80156107fd5780601f106107d2576101008083540402835291602001916107fd565b820191906000526020600020905b8154815290600101906020018083116107e057829003601f168201915b50505060038401546004850154600586015460068701546007880154600889015460098a0154600a909a0154989960ff9687169995985093965091949093919216908b565b61084a612311565b6001600160a01b0381166108795760405162461bcd60e51b815260040161087090612cfb565b60405180910390fd5b6001600160a01b03166000908152600760205260409020805460ff19166001179055565b6108a5612311565b600b55565b3360009081526007602052604090205460ff16806108d257506000546001600160a01b031633145b6108ee5760405162461bcd60e51b815260040161087090612d32565b6001600160a01b0382811660009081526001602081905260409091200154166109295760405162461bcd60e51b815260040161087090612d69565b6001600160a01b038216600081815260016020526040908190206003808201805460ff199081169092179055600990910180549091169055517f214919f25a7730b5c284dfd09a131a9b07f8952057ab39eff142db08fe67a3799061098f908490612dac565b60405180910390a25050565b3360009081526007602052604090205460ff16806109c357506000546001600160a01b031633145b6109df5760405162461bcd60e51b815260040161087090612d32565b6001600160a01b038381166000908152600160208190526040909120015416610a1a5760405162461bcd60e51b815260040161087090612d69565b8015610ae15760008281526005602052604090205460ff161580610a5557506001600160a01b03831660009081526003602052604090205415155b610ac75760405162461bcd60e51b815260206004820152603c60248201527f4a7572794964656e746974793a204964656e7469747920616c7265616479207260448201527f65676973746572656420746f20616e6f746865722061646472657373000000006064820152608401610870565b6000828152600560205260409020805460ff191660011790555b604080516080810182528381524260208083019182523383850190815285158015606086019081526001600160a01b038a8116600090815260038087529881208054600181810183559183529690912088519690990290980194855594519684019690965590516002909201805495511515600160a01b026001600160a81b03199096169290931691909117939093179055908290610bae57506001600160a01b038416600090815260016020526040812060039081015460ff1690811115610bac57610bac612694565b145b15610c05576001600160a01b0384166000818152600160208190526040808320600301805460ff1916909217909155513392917ff06f1f799fd698fc32ea83ee92c6c5ae3912785fb64e57de00580e32154b58df91a35b604051821515815233906001600160a01b038616907f6ac4c6ffdc60a5d5231411320dc0112cb3ff1dfb6c9e8aabf8416e2af3ad38d99060200160405180910390a350505050565b60095460009060ff1680610c7957506001600160a01b03821660009081526008602052604090205460ff165b92915050565b6001600160a01b03818116600090815260016020819052604082200154909116610cbb5760405162461bcd60e51b815260040161087090612d69565b6001600160a01b0382166000908152600160205260408120600601549003610ce557506000919050565b6001600160a01b03821660009081526001602052604090206006810154600790910154610d13906064612dd5565b610c799190612dec565b6001600160a01b0381166000908152600460209081526040808320805482518185028101850190935280835260609492939192909184015b82821015610e4357838290600052602060002090600402016040518060800160405290816000820154815260200160018201548152602001600282018054610d9c90612cc1565b80601f0160208091040260200160405190810160405280929190818152602001828054610dc890612cc1565b8015610e155780601f10610dea57610100808354040283529160200191610e15565b820191906000526020600020905b815481529060010190602001808311610df857829003601f168201915b5050509183525050600391909101546001600160a01b03166020918201529082526001929092019101610d55565b505050509050919050565b3360009081526007602052604090205460ff1680610e7657506000546001600160a01b031633145b610e925760405162461bcd60e51b815260040161087090612d32565b610e9d83838361233e565b505050565b60095460ff1680610ec257503360009081526008602052604090205460ff165b610f345760405162461bcd60e51b815260206004820152603760248201527f4a7572794964656e746974793a20526567697374726174696f6e206e6f74206160448201527f6c6c6f77656420666f72207468697320616464726573730000000000000000006064820152608401610870565b33600090815260016020819052604090912001546001600160a01b031615610f9e5760405162461bcd60e51b815260206004820181905260248201527f4a7572794964656e746974793a20416c726561647920726567697374657265646044820152606401610870565b60006001600160a01b0316600283604051610fb99190612e0e565b908152604051908190036020019020546001600160a01b03161461101f5760405162461bcd60e51b815260206004820181905260248201527f4a7572794964656e746974793a2044494420616c7265616479206578697374736044820152606401610870565b600082511161107a5760405162461bcd60e51b815260206004820152602160248201527f4a7572794964656e746974793a204449442063616e6e6f7420626520656d70746044820152607960f81b6064820152608401610870565b604080516101808101825283815233602082015290810182905260608101600081526020014281526020016101f4815260200160008152602001600081526020016000815260200160011515815260200160008152602001600067ffffffffffffffff8111156110ec576110ec612769565b604051908082528060200260200182016040528015611115578160200160208202803683370190505b509052336000908152600160205260409020815181906111359082612e78565b5060208201516001820180546001600160a01b0319166001600160a01b03909216919091179055604082015160028201906111709082612e78565b5060608201518160030160006101000a81548160ff0219169083600381111561119b5761119b612694565b02179055506080820151600482015560a0820151600582015560c0820151600682015560e08201516007820155610100820151600882015561012082015160098201805460ff1916911515919091179055610140820151600a820155610160820151805161121391600b8401916020909101906124fe565b50905050336002836040516112289190612e0e565b90815260405190819003602001812080546001600160a01b03939093166001600160a01b03199093169290921790915533907fc718aac47937f88ecba3d2846dd86928cebb3dd8de0f297f445c42af4fa284579061098f908590612dac565b61128f612311565b6001600160a01b038116600081815260086020526040808220805460ff19169055517f59a0e1b8d2ee0ad6b7b7c5453295848a0beb11a7c76ef1fcba9bf49120ff501c9190a250565b6112e0612311565b6112ea60006124ae565b565b60606000825167ffffffffffffffff81111561130a5761130a612769565b604051908082528060200260200182016040528015611333578160200160208202803683370190505b50905060005b83518110156113985761136484828151811061135757611357612f38565b6020026020010151611948565b82828151811061137657611376612f38565b911515602092830291909101909101528061139081612f4e565b915050611339565b5092915050565b600360205281600052604060002081815481106113bb57600080fd5b60009182526020909120600390910201805460018201546002909201549093509091506001600160a01b03811690600160a01b900460ff1684565b6113fe612311565b6103e88111156114615760405162461bcd60e51b815260206004820152602860248201527f4a7572794964656e746974793a2052657075746174696f6e206d7573742062656044820152670203c3d20313030360c41b6064820152608401610870565b600a55565b6001600160a01b0382811660009081526001602081905260409091200154166114a15760405162461bcd60e51b815260040161087090612d69565b6001600160a01b03821660008181526001602052604090819020600a01839055517fab0e25dc39626189cfb41155020ba89e726b10244275733e9d7c63cf33ffccdb9061098f9084815260200190565b6001600160a01b038116600090815260036020908152604080832080548251818502810185019093528083528493849084015b8282101561158c576000848152602090819020604080516080810182526003860290920180548352600180820154848601526002909101546001600160a01b03811692840192909252600160a01b90910460ff16151560608301529083529092019101611524565b50505050905080516000036115a45750600092915050565b80600182516115b39190612f67565b815181106115c3576115c3612f38565b602002602001015160600151915050919050565b6115df612311565b6001600160a01b0381166116055760405162461bcd60e51b815260040161087090612cfb565b6001600160a01b038116600081815260086020526040808220805460ff19166001179055517f65426ce6e85dab264619b0d5f1c2bb42a60672fa3c61a9008ea44adba34ba1679190a250565b3360009081526007602052604090205460ff168061167957506000546001600160a01b031633145b6116955760405162461bcd60e51b815260040161087090612d32565b6001600160a01b0382811660009081526001602081905260409091200154166116d05760405162461bcd60e51b815260040161087090612d69565b6001600160a01b03821660008181526001602052604090819020600301805460ff19166002179055517f381a1a607dcf09f5a2d6cadb4d730f88251af88e659fcce6da87ae4e897b407e9061098f908490612dac565b6004602052816000526040600020818154811061174257600080fd5b90600052602060002090600402016000915091505080600001549080600101549080600201805461177290612cc1565b80601f016020809104026020016040519081016040528092919081815260200182805461179e90612cc1565b80156117eb5780601f106117c0576101008083540402835291602001916117eb565b820191906000526020600020905b8154815290600101906020018083116117ce57829003601f168201915b505050600390930154919250506001600160a01b031684565b61180c612311565b6001600160a01b03166000908152600760205260409020805460ff19169055565b611835612311565b60005b81518110156119445760006001600160a01b031682828151811061185e5761185e612f38565b60200260200101516001600160a01b03160361188c5760405162461bcd60e51b815260040161087090612cfb565b6001600860008484815181106118a4576118a4612f38565b60200260200101516001600160a01b03166001600160a01b0316815260200190815260200160002060006101000a81548160ff0219169083151502179055508181815181106118f5576118f5612f38565b60200260200101516001600160a01b03167f65426ce6e85dab264619b0d5f1c2bb42a60672fa3c61a9008ea44adba34ba16760405160405180910390a28061193c81612f4e565b915050611838565b5050565b6001600160a01b038116600090815260016020526040808220815161018081019092528054839291908290829061197e90612cc1565b80601f01602080910402602001604051908101604052809291908181526020018280546119aa90612cc1565b80156119f75780601f106119cc576101008083540402835291602001916119f7565b820191906000526020600020905b8154815290600101906020018083116119da57829003601f168201915b505050918352505060018201546001600160a01b03166020820152600282018054604090920191611a2790612cc1565b80601f0160208091040260200160405190810160405280929190818152602001828054611a5390612cc1565b8015611aa05780601f10611a7557610100808354040283529160200191611aa0565b820191906000526020600020905b815481529060010190602001808311611a8357829003601f168201915b505050918352505060038281015460209092019160ff1690811115611ac757611ac7612694565b6003811115611ad857611ad8612694565b815260200160048201548152602001600582015481526020016006820154815260200160078201548152602001600882015481526020016009820160009054906101000a900460ff16151515158152602001600a8201548152602001600b8201805480602002602001604051908101604052809291908181526020018280548015611b8257602002820191906000526020600020905b815481526020019060010190808311611b6e575b5050509190925250505060208101519091506001600160a01b0316611baa5750600092915050565b600181606001516003811115611bc257611bc2612694565b14611bd05750600092915050565b806101200151611be35750600092915050565b600a548160a001511015611bfa5750600092915050565b600b548161014001511015611c125750600092915050565b6000816101000151118015611c385750600d54816101000151611c359190612f7a565b42115b15611c465750600092915050565b50600192915050565b611c57612549565b6001600160a01b038281166000908152600160208190526040909120015416611c925760405162461bcd60e51b815260040161087090612d69565b6001600160a01b0382166000908152600160205260409081902081516101808101909252805482908290611cc590612cc1565b80601f0160208091040260200160405190810160405280929190818152602001828054611cf190612cc1565b8015611d3e5780601f10611d1357610100808354040283529160200191611d3e565b820191906000526020600020905b815481529060010190602001808311611d2157829003601f168201915b505050918352505060018201546001600160a01b03166020820152600282018054604090920191611d6e90612cc1565b80601f0160208091040260200160405190810160405280929190818152602001828054611d9a90612cc1565b8015611de75780601f10611dbc57610100808354040283529160200191611de7565b820191906000526020600020905b815481529060010190602001808311611dca57829003601f168201915b505050918352505060038281015460209092019160ff1690811115611e0e57611e0e612694565b6003811115611e1f57611e1f612694565b815260200160048201548152602001600582015481526020016006820154815260200160078201548152602001600882015481526020016009820160009054906101000a900460ff16151515158152602001600a8201548152602001600b8201805480602002602001604051908101604052809291908181526020018280548015611ec957602002820191906000526020600020905b815481526020019060010190808311611eb5575b5050505050815250509050919050565b6001600160a01b038181166000908152600160208190526040909120015460609116611f175760405162461bcd60e51b815260040161087090612d69565b6001600160a01b038216600090815260016020908152604091829020600b0180548351818402810184019094528084529091830182828015611f7857602002820191906000526020600020905b815481526020019060010190808311611f64575b50505050509050919050565b611f8c612311565b6001600160a01b038116611fb657604051631e4fbdf760e01b815260006004820152602401610870565b611fbf816124ae565b50565b6001600160a01b038381166000908152600160208190526040909120015416611ffd5760405162461bcd60e51b815260040161087090612d69565b6001600160a01b038316600090815260066020908152604080832085845290915290205460ff16156120835760405162461bcd60e51b815260206004820152602960248201527f4a7572794964656e746974793a20416c726561647920766f746564206f6e207460448201526868697320636c61696d60b81b6064820152608401610870565b6001600160a01b038316600090815260016020526040812060068101805491926120ac83612f4e565b9091555050426008820155600b8101805460018181018355600092835260208084209092018690556001600160a01b03871683526006825260408084208785529092529120805460ff19169091179055811561215b5760078101805490600061211483612f4e565b9190505550600060059050612155858260405180604001604052806013815260200172566f7465642077697468206d616a6f7269747960681b81525061233e565b5061219d565b6000600119905061219b858260405180604001604052806016815260200175566f74656420616761696e7374206d616a6f7269747960501b81525061233e565b505b50505050565b3360009081526007602052604090205460ff16806121cb57506000546001600160a01b031633145b6121e75760405162461bcd60e51b815260040161087090612d32565b6001600160a01b0381811660009081526001602081905260409091200154166122225760405162461bcd60e51b815260040161087090612d69565b60026001600160a01b038216600090815260016020526040902060039081015460ff169081111561225557612255612694565b146122ad5760405162461bcd60e51b815260206004820152602260248201527f4a7572794964656e746974793a204d656d626572206e6f742073757370656e64604482015261195960f21b6064820152608401610870565b6001600160a01b038116600081815260016020819052604080832060038101805460ff19908116851790915560099091018054909116909217909155517fb024d618ba57262bdc42933d77080a320f2756885d4571824bf11c749cb982c79190a250565b6000546001600160a01b031633146112ea5760405163118cdaa760e01b8152336004820152602401610870565b6001600160a01b0383811660009081526001602081905260409091200154166123795760405162461bcd60e51b815260040161087090612d69565b6001600160a01b038316600090815260016020526040812060058101549091906123a4908590612f8d565b905060008112156123b3575060005b6103e88113156123c257506103e85b600582018190556040805160808101825242815260208082018781528284018781523360608501526001600160a01b038a166000908152600480855295812080546001818101835591835294909120855194909602909501928355905193820193909355915190918291600282019061243b9082612e78565b5060609190910151600390910180546001600160a01b0319166001600160a01b039283161790556005840154604051918816917fff4a98ba68f0ed6e4366697f98d55379dae42c208743b1592e6c6aa1abf3275f9161249e918991908990612fb5565b60405180910390a2505050505050565b600080546001600160a01b038381166001600160a01b0319831681178455604051919092169283917f8be0079c531659141344cd1fd0a4f28419497f9722a3daafe3b4186f6b6457e09190a35050565b828054828255906000526020600020908101928215612539579160200282015b8281111561253957825182559160200191906001019061251e565b506125459291506125c6565b5090565b6040518061018001604052806060815260200160006001600160a01b03168152602001606081526020016000600381111561258657612586612694565b8152602001600081526020016000815260200160008152602001600081526020016000815260200160001515815260200160008152602001606081525090565b5b8082111561254557600081556001016125c7565b803580151581146125eb57600080fd5b919050565b60006020828403121561260257600080fd5b61260b826125db565b9392505050565b80356001600160a01b03811681146125eb57600080fd5b60006020828403121561263b57600080fd5b61260b82612612565b60005b8381101561265f578181015183820152602001612647565b50506000910152565b60008151808452612680816020860160208601612644565b601f01601f19169290920160200192915050565b634e487b7160e01b600052602160045260246000fd5b600481106126c857634e487b7160e01b600052602160045260246000fd5b9052565b60006101608083526126e08184018f612668565b6001600160a01b038e16602085015283810360408501529050612703818d612668565b915050612713606083018b6126aa565b608082019890985260a081019690965260c086019490945260e0850192909252610100840152151561012083015261014090910152949350505050565b60006020828403121561276257600080fd5b5035919050565b634e487b7160e01b600052604160045260246000fd5b604051601f8201601f1916810167ffffffffffffffff811182821017156127a8576127a8612769565b604052919050565b600082601f8301126127c157600080fd5b813567ffffffffffffffff8111156127db576127db612769565b6127ee601f8201601f191660200161277f565b81815284602083860101111561280357600080fd5b816020850160208301376000918101602001919091529392505050565b6000806040838503121561283357600080fd5b61283c83612612565b9150602083013567ffffffffffffffff81111561285857600080fd5b612864858286016127b0565b9150509250929050565b60008060006060848603121561288357600080fd5b61288c84612612565b9250602084013591506128a1604085016125db565b90509250925092565b60006020808301818452808551808352604092508286019150828160051b87010184880160005b8381101561293157603f198984030185528151608081518552888201518986015287820151818987015261290782870182612668565b6060938401516001600160a01b0316969093019590955250948701949250908601906001016128d1565b509098975050505050505050565b60008060006060848603121561295457600080fd5b61295d84612612565b925060208401359150604084013567ffffffffffffffff81111561298057600080fd5b61298c868287016127b0565b9150509250925092565b600080604083850312156129a957600080fd5b823567ffffffffffffffff808211156129c157600080fd5b6129cd868387016127b0565b935060208501359150808211156129e357600080fd5b50612864858286016127b0565b600060208284031215612a0257600080fd5b813567ffffffffffffffff811115612a1957600080fd5b612a25848285016127b0565b949350505050565b60008060408385031215612a4057600080fd5b612a4983612612565b946020939093013593505050565b60006020808385031215612a6a57600080fd5b823567ffffffffffffffff80821115612a8257600080fd5b818501915085601f830112612a9657600080fd5b813581811115612aa857612aa8612769565b8060051b9150612ab984830161277f565b8181529183018401918481019088841115612ad357600080fd5b938501935b83851015612af857612ae985612612565b82529385019390850190612ad8565b98975050505050505050565b6020808252825182820181905260009190848201906040850190845b81811015612b3e578351151583529284019291840191600101612b20565b50909695505050505050565b848152836020820152608060408201526000612b696080830185612668565b905060018060a01b038316606083015295945050505050565b600081518084526020808501945080840160005b83811015612bb257815187529582019590820190600101612b96565b509495945050505050565b6020815260008251610180806020850152612bdc6101a0850183612668565b91506020850151612bf860408601826001600160a01b03169052565b506040850151601f1980868503016060870152612c158483612668565b935060608701519150612c2b60808701836126aa565b608087015160a087015260a087015160c087015260c087015160e087015260e08701519150610100828188015280880151925050610120828188015280880151925050610140612c7e8188018415159052565b87015161016087810191909152870151868503909101838701529050612ca48382612b82565b9695505050505050565b60208152600061260b6020830184612b82565b600181811c90821680612cd557607f821691505b602082108103612cf557634e487b7160e01b600052602260045260246000fd5b50919050565b6020808252601d908201527f4a7572794964656e746974793a20496e76616c69642061646472657373000000604082015260600190565b6020808252601c908201527f4a7572794964656e746974793a204e6f7420617574686f72697a656400000000604082015260600190565b60208082526023908201527f4a7572794964656e746974793a204d656d626572206e6f7420726567697374656040820152621c995960ea1b606082015260800190565b60208152600061260b6020830184612668565b634e487b7160e01b600052601160045260246000fd5b8082028115828204841417610c7957610c79612dbf565b600082612e0957634e487b7160e01b600052601260045260246000fd5b500490565b60008251612e20818460208701612644565b9190910192915050565b601f821115610e9d57600081815260208120601f850160051c81016020861015612e515750805b601f850160051c820191505b81811015612e7057828155600101612e5d565b505050505050565b815167ffffffffffffffff811115612e9257612e92612769565b612ea681612ea08454612cc1565b84612e2a565b602080601f831160018114612edb5760008415612ec35750858301515b600019600386901b1c1916600185901b178555612e70565b600085815260208120601f198616915b82811015612f0a57888601518255948401946001909101908401612eeb565b5085821015612f285787850151600019600388901b60f8161c191681555b5050505050600190811b01905550565b634e487b7160e01b600052603260045260246000fd5b600060018201612f6057612f60612dbf565b5060010190565b81810381811115610c7957610c79612dbf565b80820180821115610c7957610c79612dbf565b8082018281126000831280158216821582161715612fad57612fad612dbf565b505092915050565b838152826020820152606060408201526000612fd46060830184612668565b9594505050505056fea26469706673582212203e6654fe1061b4e444adc738c06616c380ed77aa1926107087ae43482317cc6664736f6c63430008140033",
  "linkReferences": {},
  "deployedLinkReferences": {}
}