{
  "_format": "hh-sol-artifact-1",
  "contractName": "PetIdentity",
  "sourceName": "contracts/PetIdentity.sol",
  "abi": [
    {
      "inputs": [],
      "stateMutability": "nonpayable",
      "type": "constructor"
    },
    {
      "inputs": [
        {
          "internalType": "address",
          "name": "owner",
          "type": "address"
        }
      ],
      "name": "OwnableInvalidOwner",
      "type": "error"
    },
    {
      "inputs": [
        {
          "internalType": "address",
          "name": "account",
          "type": "address"
        }
      ],
      "name": "OwnableUnauthorizedAccount",
      "type": "error"
    },
    {
      "anonymous": false,
      "inputs": [
        {
          "indexed": true,
          "internalType": "address",
          "name": "owner",
          "type": "address"
        },
        {
          "indexed": false,
          "internalType": "string",
          "name": "chainId",
          "type": "string"
        },
        {
          "indexed": false,
          "internalType": "string",
          "name": "externalDID",
          "type": "string"
        }
      ],
      "name": "CrossChainLinkAdded",
      "type": "event"
    },
    {
      "anonymous": false,
      "inputs": [
        {
          "indexed": true,
          "internalType": "uint256",
          "name": "petNFTId",
          "type": "uint256"
        },
        {
          "indexed": false,
          "internalType": "string",
          "name": "microchipId",
          "type": "string"
        }
      ],
      "name": "MicrochipLinked",
      "type": "event"
    },
    {
      "anonymous": false,
      "inputs": [
        {
          "indexed": true,
          "internalType": "address",
          "name": "owner",
          "type": "address"
        },
        {
          "indexed": false,
          "internalType": "string",
          "name": "did",
          "type": "string"
        },
        {
          "indexed": false,
          "internalType": "enum PetIdentity.VerificationLevel",
          "name": "level",
          "type": "uint8"
        }
      ],
      "name": "OwnerIdentityRegistered",
      "type": "event"
    },
    {
      "anonymous": false,
      "inputs": [
        {
          "indexed": true,
          "internalType": "address",
          "name": "owner",
          "type": "address"
        },
        {
          "indexed": false,
          "internalType": "enum PetIdentity.VerificationLevel",
          "name": "newLevel",
          "type": "uint8"
        }
      ],
      "name": "OwnerIdentityVerified",
      "type": "event"
    },
    {
      "anonymous": false,
      "inputs": [
        {
          "indexed": true,
          "internalType": "address",
          "name": "previousOwner",
          "type": "address"
        },
        {
          "indexed": true,
          "internalType": "address",
          "name": "newOwner",
          "type": "address"
        }
      ],
      "name": "OwnershipTransferred",
      "type": "event"
    },
    {
      "anonymous": false,
      "inputs": [
        {
          "indexed": true,
          "internalType": "uint256",
          "name": "petNFTId",
          "type": "uint256"
        },
        {
          "indexed": false,
          "internalType": "string",
          "name": "petDID",
          "type": "string"
        },
        {
          "indexed": true,
          "internalType": "address",
          "name": "owner",
          "type": "address"
        }
      ],
      "name": "PetDIDCreated",
      "type": "event"
    },
    {
      "anonymous": false,
      "inputs": [
        {
          "indexed": true,
          "internalType": "uint256",
          "name": "petNFTId",
          "type": "uint256"
        },
        {
          "indexed": true,
          "internalType": "address",
          "name": "from",
          "type": "address"
        },
        {
          "indexed": true,
          "internalType": "address",
          "name": "to",
          "type": "address"
        }
      ],
      "name": "PetOwnershipTransferred",
      "type": "event"
    },
    {
      "anonymous": false,
      "inputs": [
        {
          "indexed": true,
          "internalType": "address",
          "name": "owner",
          "type": "address"
        },
        {
          "indexed": true,
          "internalType": "address",
          "name": "proxy",
          "type": "address"
        }
      ],
      "name": "ProxyAuthorized",
      "type": "event"
    },
    {
      "anonymous": false,
      "inputs": [
        {
          "indexed": true,
          "internalType": "address",
          "name": "owner",
          "type": "address"
        },
        {
          "indexed": true,
          "internalType": "address",
          "name": "proxy",
          "type": "address"
        }
      ],
      "name": "ProxyRevoked",
      "type": "event"
    },
    {
      "anonymous": false,
      "inputs": [
        {
          "indexed": true,
          "internalType": "address",
          "name": "owner",
          "type": "address"
        },
        {
          "indexed": false,
          "internalType": "uint256",
          "name": "newScore",
          "type": "uint256"
        }
      ],
      "name": "ReputationUpdated",
      "type": "event"
    },
    {
      "inputs": [
        {
          "internalType": "string",
          "name": "_chainId",
          "type": "string"
        },
        {
          "internalType": "address",
          "name": "_contractAddress",
          "type": "address"
        },
        {
          "internalType": "string",
          "name": "_externalDID",
          "type": "string"
        }
      ],
      "name": "addCrossChainLink",
      "outputs": [],
      "stateMutability": "nonpayable",
      "type": "function"
    },
    {
      "inputs": [
        {
          "internalType": "address",
          "name": "_proxy",
          "type": "address"
        }
      ],
      "name": "authorizeProxy",
      "outputs": [],
      "stateMutability": "nonpayable",
      "type": "function"
    },
    {
      "inputs": [
        {
          "internalType": "address",
          "name": "_verifier",
          "type": "address"
        }
      ],
      "name": "authorizeVerifier",
      "outputs": [],
      "stateMutability": "nonpayable",
      "type": "function"
    },
    {
      "inputs": [
        {
          "internalType": "string",
          "name": "_petDID",
          "type": "string"
        },
        {
          "internalType": "uint256",
          "name": "_petNFTId",
          "type": "uint256"
        },
        {
          "internalType": "string",
          "name": "_microchipId",
          "type": "string"
        },
        {
          "internalType": "string",
          "name": "_speciesBreed",
          "type": "string"
        },
        {
          "internalType": "uint256",
          "name": "_birthDate",
          "type": "uint256"
        },
        {
          "internalType": "string",
          "name": "_petIdentityIPFSHash",
          "type": "string"
        }
      ],
      "name": "createPetDID",
      "outputs": [],
      "stateMutability": "nonpayable",
      "type": "function"
    },
    {
      "inputs": [
        {
          "internalType": "address",
          "name": "",
          "type": "address"
        },
        {
          "internalType": "uint256",
          "name": "",
          "type": "uint256"
        }
      ],
      "name": "crossChainLinks",
      "outputs": [
        {
          "internalType": "string",
          "name": "chainId",
          "type": "string"
        },
        {
          "internalType": "address",
          "name": "contractAddress",
          "type": "address"
        },
        {
          "internalType": "string",
          "name": "externalDID",
          "type": "string"
        },
        {
          "internalType": "bool",
          "name": "isVerified",
          "type": "bool"
        }
      ],
      "stateMutability": "view",
      "type": "function"
    },
    {
      "inputs": [],
      "name": "deactivateIdentity",
      "outputs": [],
      "stateMutability": "nonpayable",
      "type": "function"
    },
    {
      "inputs": [
        {
          "internalType": "address",
          "name": "_ownerAddress",
          "type": "address"
        }
      ],
      "name": "getOwnerIdentity",
      "outputs": [
        {
          "components": [
            {
              "internalType": "string",
              "name": "did",
              "type": "string"
            },
            {
              "internalType": "address",
              "name": "ownerAddress",
              "type": "address"
            },
            {
              "internalType": "string",
              "name": "identityIPFSHash",
              "type": "string"
            },
            {
              "internalType": "enum PetIdentity.VerificationLevel",
              "name": "verificationLevel",
              "type": "uint8"
            },
            {
              "internalType": "uint256",
              "name": "registrationDate",
              "type": "uint256"
            },
            {
              "internalType": "bool",
              "name": "isActive",
              "type": "bool"
            },
            {
              "internalType": "address[]",
              "name": "authorizedProxies",
              "type": "address[]"
            },
            {
              "internalType": "uint256",
              "name": "reputationScore",
              "type": "uint256"
            }
          ],
          "internalType": "struct PetIdentity.OwnerIdentity",
          "name": "",
          "type": "tuple"
        }
      ],
      "stateMutability": "view",
      "type": "function"
    },
    {
      "inputs": [
        {
          "internalType": "address",
          "name": "_ownerAddress",
          "type": "address"
        }
      ],
      "name": "getOwnerPets",
      "outputs": [
        {
          "internalType": "uint256[]",
          "name": "",
          "type": "uint256[]"
        }
      ],
      "stateMutability": "view",
      "type": "function"
    },
    {
      "inputs": [
        {
          "internalType": "string",
          "name": "_microchipId",
          "type": "string"
        }
      ],
      "name": "getPetByMicrochip",
      "outputs": [
        {
          "internalType": "uint256",
          "name": "",
          "type": "uint256"
        }
      ],
      "stateMutability": "view",
      "type": "function"
    },
    {
      "inputs": [
        {
          "internalType": "uint256",
          "name": "_petNFTId",
          "type": "uint256"
        }
      ],
      "name": "getPetDID",
      "outputs": [
        {
          "components": [
            {
              "internalType": "string",
              "name": "did",
              "type": "string"
            },
            {
              "internalType": "uint256",
              "name": "petNFTId",
              "type": "uint256"
            },
            {
              "internalType": "address",
              "name": "owner",
              "type": "address"
            },
            {
              "internalType": "string",
              "name": "microchipId",
              "type": "string"
            },
            {
              "internalType": "string",
              "name": "speciesBreed",
              "type": "string"
            },
            {
              "internalType": "uint256",
              "name": "birthDate",
              "type": "uint256"
            },
            {
              "internalType": "string",
              "name": "petIdentityIPFSHash",
              "type": "string"
            },
            {
              "internalType": "bool",
              "name": "isRegistered",
              "type": "bool"
            },
            {
              "internalType": "uint256",
              "name": "registrationDate",
              "type": "uint256"
            }
          ],
          "internalType": "struct PetIdentity.PetDID",
          "name": "",
          "type": "tuple"
        }
      ],
      "stateMutability": "view",
      "type": "function"
    },
    {
      "inputs": [
        {
          "internalType": "address",
          "name": "_ownerAddress",
          "type": "address"
        },
        {
          "internalType": "enum PetIdentity.VerificationLevel",
          "name": "_requiredLevel",
          "type": "uint8"
        }
      ],
      "name": "hasVerificationLevel",
      "outputs": [
        {
          "internalType": "bool",
          "name": "",
          "type": "bool"
        }
      ],
      "stateMutability": "view",
      "type": "function"
    },
    {
      "inputs": [
        {
          "internalType": "address",
          "name": "_owner",
          "type": "address"
        },
        {
          "internalType": "address",
          "name": "_proxy",
          "type": "address"
        }
      ],
      "name": "isAuthorizedProxy",
      "outputs": [
        {
          "internalType": "bool",
          "name": "",
          "type": "bool"
        }
      ],
      "stateMutability": "view",
      "type": "function"
    },
    {
      "inputs": [
        {
          "internalType": "address",
          "name": "",
          "type": "address"
        }
      ],
      "name": "isVerifier",
      "outputs": [
        {
          "internalType": "bool",
          "name": "",
          "type": "bool"
        }
      ],
      "stateMutability": "view",
      "type": "function"
    },
    {
      "inputs": [
        {
          "internalType": "string",
          "name": "",
          "type": "string"
        }
      ],
      "name": "microchipToPetId",
      "outputs": [
        {
          "internalType": "uint256",
          "name": "",
          "type": "uint256"
        }
      ],
      "stateMutability": "view",
      "type": "function"
    },
    {
      "inputs": [],
      "name": "owner",
      "outputs": [
        {
          "internalType": "address",
          "name": "",
          "type": "address"
        }
      ],
      "stateMutability": "view",
      "type": "function"
    },
    {
      "inputs": [
        {
          "internalType": "string",
          "name": "",
          "type": "string"
        }
      ],
      "name": "ownerDIDToAddress",
      "outputs": [
        {
          "internalType": "address",
          "name": "",
          "type": "address"
        }
      ],
      "stateMutability": "view",
      "type": "function"
    },
    {
      "inputs": [
        {
          "internalType": "address",
          "name": "",
          "type": "address"
        }
      ],
      "name": "ownerIdentities",
      "outputs": [
        {
          "internalType": "string",
          "name": "did",
          "type": "string"
        },
        {
          "internalType": "address",
          "name": "ownerAddress",
          "type": "address"
        },
        {
          "internalType": "string",
          "name": "identityIPFSHash",
          "type": "string"
        },
        {
          "internalType": "enum PetIdentity.VerificationLevel",
          "name": "verificationLevel",
          "type": "uint8"
        },
        {
          "internalType": "uint256",
          "name": "registrationDate",
          "type": "uint256"
        },
        {
          "internalType": "bool",
          "name": "isActive",
          "type": "bool"
        },
        {
          "internalType": "uint256",
          "name": "reputationScore",
          "type": "uint256"
        }
      ],
      "stateMutability": "view",
      "type": "function"
    },
    {
      "inputs": [
        {
          "internalType": "address",
          "name": "",
          "type": "address"
        },
        {
          "internalType": "uint256",
          "name": "",
          "type": "uint256"
        }
      ],
      "name": "ownerToPets",
      "outputs": [
        {
          "internalType": "uint256",
          "name": "",
          "type": "uint256"
        }
      ],
      "stateMutability": "view",
      "type": "function"
    },
    {
      "inputs": [
        {
          "internalType": "string",
          "name": "",
          "type": "string"
        }
      ],
      "name": "petDIDToNFTId",
      "outputs": [
        {
          "internalType": "uint256",
          "name": "",
          "type": "uint256"
        }
      ],
      "stateMutability": "view",
      "type": "function"
    },
    {
      "inputs": [
        {
          "internalType": "uint256",
          "name": "",
          "type": "uint256"
        }
      ],
      "name": "petDIDs",
      "outputs": [
        {
          "internalType": "string",
          "name": "did",
          "type": "string"
        },
        {
          "internalType": "uint256",
          "name": "petNFTId",
          "type": "uint256"
        },
        {
          "internalType": "address",
          "name": "owner",
          "type": "address"
        },
        {
          "internalType": "string",
          "name": "microchipId",
          "type": "string"
        },
        {
          "internalType": "string",
          "name": "speciesBreed",
          "type": "string"
        },
        {
          "internalType": "uint256",
          "name": "birthDate",
          "type": "uint256"
        },
        {
          "internalType": "string",
          "name": "petIdentityIPFSHash",
          "type": "string"
        },
        {
          "internalType": "bool",
          "name": "isRegistered",
          "type": "bool"
        },
        {
          "internalType": "uint256",
          "name": "registrationDate",
          "type": "uint256"
        }
      ],
      "stateMutability": "view",
      "type": "function"
    },
    {
      "inputs": [],
      "name": "reactivateIdentity",
      "outputs": [],
      "stateMutability": "nonpayable",
      "type": "function"
    },
    {
      "inputs": [
        {
          "internalType": "string",
          "name": "_did",
          "type": "string"
        },
        {
          "internalType": "string",
          "name": "_identityIPFSHash",
          "type": "string"
        }
      ],
      "name": "registerOwnerIdentity",
      "outputs": [],
      "stateMutability": "nonpayable",
      "type": "function"
    },
    {
      "inputs": [],
      "name": "renounceOwnership",
      "outputs": [],
      "stateMutability": "nonpayable",
      "type": "function"
    },
    {
      "inputs": [
        {
          "internalType": "address",
          "name": "_proxy",
          "type": "address"
        }
      ],
      "name": "revokeProxy",
      "outputs": [],
      "stateMutability": "nonpayable",
      "type": "function"
    },
    {
      "inputs": [
        {
          "internalType": "address",
          "name": "_verifier",
          "type": "address"
        }
      ],
      "name": "revokeVerifier",
      "outputs": [],
      "stateMutability": "nonpayable",
      "type": "function"
    },
    {
      "inputs": [
        {
          "internalType": "address",
          "name": "newOwner",
          "type": "address"
        }
      ],
      "name": "transferOwnership",
      "outputs": [],
      "stateMutability": "nonpayable",
      "type": "function"
    },
    {
      "inputs": [
        {
          "internalType": "uint256",
          "name": "_petNFTId",
          "type": "uint256"
        },
        {
          "internalType": "address",
          "name": "_newOwner",
          "type": "address"
        }
      ],
      "name": "transferPetOwnership",
      "outputs": [],
      "stateMutability": "nonpayable",
      "type": "function"
    },
    {
      "inputs": [
        {
          "internalType": "address",
          "name": "_ownerAddress",
          "type": "address"
        },
        {
          "internalType": "uint256",
          "name": "_newScore",
          "type": "uint256"
        }
      ],
      "name": "updateOwnerReputation",
      "outputs": [],
      "stateMutability": "nonpayable",
      "type": "function"
    },
    {
      "inputs": [
        {
          "internalType": "address",
          "name": "_ownerAddress",
          "type": "address"
        },
        {
          "internalType": "enum PetIdentity.VerificationLevel",
          "name": "_newLevel",
          "type": "uint8"
        }
      ],
      "name": "verifyOwnerIdentity",
      "outputs": [],
      "stateMutability": "nonpayable",
      "type": "function"
    }
  ],
  "bytecode": "0x60806040523480156200001157600080fd5b5033806200003957604051631e4fbdf760e01b81526000600482015260240160405180910390fd5b620000448162000065565b50336000908152600860205260409020805460ff19166001179055620000b5565b600080546001600160a01b038381166001600160a01b0319831681178455604051919092169283917f8be0079c531659141344cd1fd0a4f28419497f9722a3daafe3b4186f6b6457e09190a35050565b612fab80620000c56000396000f3fe608060405234801561001057600080fd5b50600436106101cf5760003560e01c8063a3a756e611610104578063c8905225116100a2578063f1e6283611610071578063f1e6283614610474578063f2fde38b1461049c578063f5eb03a8146104af578063f9d4e6d0146104c257600080fd5b8063c89052251461040e578063d94e8ae214610421578063d9cab3f114610441578063ea32fff71461045457600080fd5b8063ba18acfa116100de578063ba18acfa146103aa578063bba5a9e8146103bd578063bd02a235146103d0578063c82198f4146103e357600080fd5b8063a3a756e61461034c578063a63cb3a11461035f578063af7026c11461037f57600080fd5b8063642657f01161017157806381357da11161014b57806381357da1146102e15780638692ee2d146102f45780638da5cb5b1461031a5780639e0a1b7f1461032b57600080fd5b8063642657f01461027a578063715018a61461028d57806378ab7b201461029557600080fd5b8063343906ff116101ad578063343906ff14610229578063454cc6cd1461023c57806359d2e8c61461025f5780635b04e1b11461027257600080fd5b806306966d9c146101d457806320ad8cab146101de57806333105218146101f1575b600080fd5b6101dc6104d5565b005b6101dc6101ec3660046125af565b610533565b6102146101ff3660046125af565b60086020526000908152604090205460ff1681565b60405190151581526020015b60405180910390f35b6101dc6102373660046125d1565b6105c3565b61024f61024a3660046125fd565b6107ad565b6040516102209493929190612677565b6101dc61026d366004612762565b61091c565b6101dc610c24565b6101dc6102883660046127c6565b610c7f565b6101dc610fb7565b6102c96102a3366004612885565b80516020818301810180516002825292820191909301209152546001600160a01b031681565b6040516001600160a01b039091168152602001610220565b6102146102ef3660046128c2565b610fcb565b6103076103023660046125af565b611045565b6040516102209796959493929190612935565b6000546001600160a01b03166102c9565b61033e6103393660046125fd565b6111a7565b604051908152602001610220565b6101dc61035a3660046125fd565b6111d8565b61037261036d366004612997565b611333565b60405161022091906129b0565b61033e61038d366004612885565b805160208183018101805160048252928201919093012091525481565b6102146103b8366004612a80565b61169a565b6101dc6103cb366004612aaa565b611771565b6101dc6103de3660046125af565b6118a4565b61033e6103f1366004612885565b805160208183018101805160058252928201919093012091525481565b6101dc61041c3660046125af565b6118cd565b61043461042f3660046125af565b611aa0565b6040516102209190612b1e565b6101dc61044f3660046128c2565b611b0c565b6104676104623660046125af565b611c51565b6040516102209190612ba6565b610487610482366004612997565b611ebd565b60405161022099989796959493929190612c66565b6101dc6104aa3660046125af565b612135565b61033e6104bd366004612885565b612173565b6101dc6104d03660046125af565b6121f5565b33600090815260016020819052604090912001546001600160a01b03166105175760405162461bcd60e51b815260040161050e90612cec565b60405180910390fd5b336000908152600160205260409020600501805460ff19169055565b61053b612366565b6001600160a01b03811661059f5760405162461bcd60e51b815260206004820152602560248201527f5065744964656e746974793a20496e76616c6964207665726966696572206164604482015264647265737360d81b606482015260840161050e565b6001600160a01b03166000908152600860205260409020805460ff19166001179055565b60008281526003602052604090206007015460ff166106245760405162461bcd60e51b815260206004820152601f60248201527f5065744964656e746974793a20506574206e6f74207265676973746572656400604482015260640161050e565b6000828152600360205260409020600201546001600160a01b031633146106a25760405162461bcd60e51b815260206004820152602c60248201527f5065744964656e746974793a204f6e6c792063757272656e74206f776e65722060448201526b31b0b7103a3930b739b332b960a11b606482015260840161050e565b6001600160a01b0381166107075760405162461bcd60e51b815260206004820152602660248201527f5065744964656e746974793a20496e76616c6964206e6577206f776e6572206160448201526564647265737360d01b606482015260840161050e565b6000828152600360205260409020600201546001600160a01b031661072c8184612393565b600083815260036020908152604080832060020180546001600160a01b0319166001600160a01b03878116918217909255808552600684528285208054600181018255908652938520909301879055905191929084169186917f438c1ad085b8cbdb76e1d452da546c7ce9538037e5464ec4c070ed18e6364f2d91a4505050565b600760205281600052604060002081815481106107c957600080fd5b9060005260206000209060040201600091509150508060000180546107ed90612d31565b80601f016020809104026020016040519081016040528092919081815260200182805461081990612d31565b80156108665780601f1061083b57610100808354040283529160200191610866565b820191906000526020600020905b81548152906001019060200180831161084957829003601f168201915b505050600184015460028501805494956001600160a01b0390921694919350915061089090612d31565b80601f01602080910402602001604051908101604052809291908181526020018280546108bc90612d31565b80156109095780601f106108de57610100808354040283529160200191610909565b820191906000526020600020905b8154815290600101906020018083116108ec57829003601f168201915b5050506003909301549192505060ff1684565b33600090815260016020819052604090912001546001600160a01b0316156109975760405162461bcd60e51b815260206004820152602860248201527f5065744964656e746974793a204964656e7469747920616c726561647920726560448201526719da5cdd195c995960c21b606482015260840161050e565b60006001600160a01b03166002836040516109b29190612d6b565b908152604051908190036020019020546001600160a01b031614610a185760405162461bcd60e51b815260206004820152601f60248201527f5065744964656e746974793a2044494420616c72656164792065786973747300604482015260640161050e565b6000825111610a695760405162461bcd60e51b815260206004820181905260248201527f5065744964656e746974793a204449442063616e6e6f7420626520656d707479604482015260640161050e565b60408051610100810182528381523360208201529081018290526060810160008152426020820152600160408201526060016000604051908082528060200260200182016040528015610ac6578160200160208202803683370190505b5081526101f460209182015233600090815260019091526040902081518190610aef9082612dd6565b5060208201516001820180546001600160a01b0319166001600160a01b0390921691909117905560408201516002820190610b2a9082612dd6565b5060608201518160030160006101000a81548160ff02191690836003811115610b5557610b556128fd565b02179055506080820151600482015560a082015160058201805460ff191691151591909117905560c08201518051610b979160068401916020909101906124b8565b5060e0820151816007015590505033600283604051610bb69190612d6b565b90815260405190819003602001812080546001600160a01b03939093166001600160a01b03199093169290921790915533907f7aecdac68ca14a35c6651f1ebe13bfe22370efb16b714066692056626a80feac90610c18908590600090612e96565b60405180910390a25050565b33600090815260016020819052604090912001546001600160a01b0316610c5d5760405162461bcd60e51b815260040161050e90612cec565b336000908152600160208190526040909120600501805460ff19169091179055565b60008581526003602052604090206007015460ff1615610ced5760405162461bcd60e51b815260206004820152602360248201527f5065744964656e746974793a205065742044494420616c72656164792065786960448201526273747360e81b606482015260840161050e565b600486604051610cfd9190612d6b565b908152602001604051809103902054600014610d675760405162461bcd60e51b815260206004820152602360248201527f5065744964656e746974793a2044494420616c726561647920726567697374656044820152621c995960ea1b606482015260840161050e565b6000865111610dc45760405162461bcd60e51b8152602060048201526024808201527f5065744964656e746974793a20506574204449442063616e6e6f7420626520656044820152636d70747960e01b606482015260840161050e565b604080516101208101825287815260208082018890523382840152606082018790526080820186905260a0820185905260c08201849052600160e083015242610100830152600088815260039091529190912081518190610e259082612dd6565b506020820151600182015560408201516002820180546001600160a01b0319166001600160a01b0390921691909117905560608201516003820190610e6a9082612dd6565b5060808201516004820190610e7f9082612dd6565b5060a0820151600582015560c08201516006820190610e9e9082612dd6565b5060e082015160078201805460ff1916911515919091179055610100909101516008909101556040518590600490610ed7908990612d6b565b908152604080516020928190038301902092909255336000908152600682529182208054600181018255908352912001859055835115610f6d5784600585604051610f229190612d6b565b908152602001604051809103902081905550847f8a919a71ecfd5ccf63dd940499673cb5a888e98dd1b1ac43ac011cfdf8277f9c85604051610f649190612eb8565b60405180910390a25b336001600160a01b0316857fb522fe4b215e9de6e05239d0fbf98c2500a846864ab0154a096031d70e2b858e88604051610fa79190612eb8565b60405180910390a3505050505050565b610fbf612366565b610fc96000612468565b565b6001600160a01b03828116600090815260016020819052604082200154909116610ff75750600061103f565b816003811115611009576110096128fd565b6001600160a01b038416600090815260016020526040902060039081015460ff169081111561103a5761103a6128fd565b101590505b92915050565b60016020526000908152604090208054819061106090612d31565b80601f016020809104026020016040519081016040528092919081815260200182805461108c90612d31565b80156110d95780601f106110ae576101008083540402835291602001916110d9565b820191906000526020600020905b8154815290600101906020018083116110bc57829003601f168201915b505050600184015460028501805494956001600160a01b0390921694919350915061110390612d31565b80601f016020809104026020016040519081016040528092919081815260200182805461112f90612d31565b801561117c5780601f106111515761010080835404028352916020019161117c565b820191906000526020600020905b81548152906001019060200180831161115f57829003601f168201915b505050600384015460048501546005860154600790960154949560ff92831695919450909116915087565b600660205281600052604060002081815481106111c357600080fd5b90600052602060002001600091509150505481565b3360009081526008602052604090205460ff168061120057506000546001600160a01b031633145b61124c5760405162461bcd60e51b815260206004820152601b60248201527f5065744964656e746974793a204e6f7420617574686f72697a65640000000000604482015260640161050e565b6001600160a01b0382811660009081526001602081905260409091200154166112875760405162461bcd60e51b815260040161050e90612cec565b6103e88111156112e35760405162461bcd60e51b815260206004820152602160248201527f5065744964656e746974793a2053636f7265206d75737420626520302d3130306044820152600360fc1b606482015260840161050e565b6001600160a01b03821660008181526001602052604090819020600701839055517ffc577563f1b9a0461e24abef1e1fcc0d33d3d881f20b5df6dda59de4aae2c82190610c189084815260200190565b61138d604051806101200160405280606081526020016000815260200160006001600160a01b0316815260200160608152602001606081526020016000815260200160608152602001600015158152602001600081525090565b60008281526003602052604090206007015460ff166113ee5760405162461bcd60e51b815260206004820152601f60248201527f5065744964656e746974793a20506574206e6f74207265676973746572656400604482015260640161050e565b600082815260036020526040908190208151610120810190925280548290829061141790612d31565b80601f016020809104026020016040519081016040528092919081815260200182805461144390612d31565b80156114905780601f1061146557610100808354040283529160200191611490565b820191906000526020600020905b81548152906001019060200180831161147357829003601f168201915b50505091835250506001820154602082015260028201546001600160a01b031660408201526003820180546060909201916114ca90612d31565b80601f01602080910402602001604051908101604052809291908181526020018280546114f690612d31565b80156115435780601f1061151857610100808354040283529160200191611543565b820191906000526020600020905b81548152906001019060200180831161152657829003601f168201915b5050505050815260200160048201805461155c90612d31565b80601f016020809104026020016040519081016040528092919081815260200182805461158890612d31565b80156115d55780601f106115aa576101008083540402835291602001916115d5565b820191906000526020600020905b8154815290600101906020018083116115b857829003601f168201915b50505050508152602001600582015481526020016006820180546115f890612d31565b80601f016020809104026020016040519081016040528092919081815260200182805461162490612d31565b80156116715780601f1061164657610100808354040283529160200191611671565b820191906000526020600020905b81548152906001019060200180831161165457829003601f168201915b5050509183525050600782015460ff161515602082015260089091015460409091015292915050565b6001600160a01b03821660009081526001602090815260408083206006018054825181850281018501909352808352849383018282801561170457602002820191906000526020600020905b81546001600160a01b031681526001909101906020018083116116e6575b5050505050905060005b815181101561176657836001600160a01b031682828151811061173357611733612ecb565b60200260200101516001600160a01b0316036117545760019250505061103f565b8061175e81612ef7565b91505061170e565b506000949350505050565b33600090815260016020819052604090912001546001600160a01b03166117aa5760405162461bcd60e51b815260040161050e90612cec565b604080516080810182528481526001600160a01b0384166020808301919091528183018490526000606083018190523381526007825292832080546001810182559084529220815191928392600490910290910190819061180b9082612dd6565b5060208201516001820180546001600160a01b0319166001600160a01b03909216919091179055604082015160028201906118469082612dd6565b50606091909101516003909101805460ff191691151591909117905560405133907ff689bfbb60689aa3136f55a906769e15200fc7b99ef6871937c9c16e5db15691906118969087908690612f10565b60405180910390a250505050565b6118ac612366565b6001600160a01b03166000908152600860205260409020805460ff19169055565b33600090815260016020819052604090912001546001600160a01b03166119065760405162461bcd60e51b815260040161050e90612cec565b336000908152600160205260408120600601905b8154811015611a5757826001600160a01b031682828154811061193f5761193f612ecb565b6000918252602090912001546001600160a01b031603611a45578154829061196990600190612f3e565b8154811061197957611979612ecb565b9060005260206000200160009054906101000a90046001600160a01b03168282815481106119a9576119a9612ecb565b9060005260206000200160006101000a8154816001600160a01b0302191690836001600160a01b03160217905550818054806119e7576119e7612f51565b600082815260208120820160001990810180546001600160a01b03191690559091019091556040516001600160a01b0385169133917fc6ec74cf8aa115402b568f66f56c8f47683b93cb5d9cbaff843af5f47c9216109190a3505050565b80611a4f81612ef7565b91505061191a565b5060405162461bcd60e51b815260206004820152601c60248201527f5065744964656e746974793a2050726f7879206e6f7420666f756e6400000000604482015260640161050e565b6001600160a01b038116600090815260066020908152604091829020805483518184028101840190945280845260609392830182828015611b0057602002820191906000526020600020905b815481526020019060010190808311611aec575b50505050509050919050565b3360009081526008602052604090205460ff1680611b3457506000546001600160a01b031633145b611b8e5760405162461bcd60e51b815260206004820152602560248201527f5065744964656e746974793a204e6f7420617574686f72697a656420746f2076604482015264657269667960d81b606482015260840161050e565b6001600160a01b038281166000908152600160208190526040909120015416611bc95760405162461bcd60e51b815260040161050e90612cec565b8060016000846001600160a01b03166001600160a01b0316815260200190815260200160002060030160006101000a81548160ff02191690836003811115611c1357611c136128fd565b0217905550816001600160a01b03167f7e164157dbef78748b3d7a28da1c58e923688ed9661026ad883de61ddb96e95f82604051610c189190612f67565b611c5961251d565b6001600160a01b038281166000908152600160208190526040909120015416611c945760405162461bcd60e51b815260040161050e90612cec565b6001600160a01b0382166000908152600160205260409081902081516101008101909252805482908290611cc790612d31565b80601f0160208091040260200160405190810160405280929190818152602001828054611cf390612d31565b8015611d405780601f10611d1557610100808354040283529160200191611d40565b820191906000526020600020905b815481529060010190602001808311611d2357829003601f168201915b505050918352505060018201546001600160a01b03166020820152600282018054604090920191611d7090612d31565b80601f0160208091040260200160405190810160405280929190818152602001828054611d9c90612d31565b8015611de95780601f10611dbe57610100808354040283529160200191611de9565b820191906000526020600020905b815481529060010190602001808311611dcc57829003601f168201915b505050918352505060038281015460209092019160ff1690811115611e1057611e106128fd565b6003811115611e2157611e216128fd565b8152602001600482015481526020016005820160009054906101000a900460ff1615151515815260200160068201805480602002602001604051908101604052809291908181526020018280548015611ea357602002820191906000526020600020905b81546001600160a01b03168152600190910190602001808311611e85575b505050505081526020016007820154815250509050919050565b600360205260009081526040902080548190611ed890612d31565b80601f0160208091040260200160405190810160405280929190818152602001828054611f0490612d31565b8015611f515780601f10611f2657610100808354040283529160200191611f51565b820191906000526020600020905b815481529060010190602001808311611f3457829003601f168201915b5050505060018301546002840154600385018054949592946001600160a01b03909216935090611f8090612d31565b80601f0160208091040260200160405190810160405280929190818152602001828054611fac90612d31565b8015611ff95780601f10611fce57610100808354040283529160200191611ff9565b820191906000526020600020905b815481529060010190602001808311611fdc57829003601f168201915b50505050509080600401805461200e90612d31565b80601f016020809104026020016040519081016040528092919081815260200182805461203a90612d31565b80156120875780601f1061205c57610100808354040283529160200191612087565b820191906000526020600020905b81548152906001019060200180831161206a57829003601f168201915b5050505050908060050154908060060180546120a290612d31565b80601f01602080910402602001604051908101604052809291908181526020018280546120ce90612d31565b801561211b5780601f106120f05761010080835404028352916020019161211b565b820191906000526020600020905b8154815290600101906020018083116120fe57829003601f168201915b505050506007830154600890930154919260ff1691905089565b61213d612366565b6001600160a01b03811661216757604051631e4fbdf760e01b81526000600482015260240161050e565b61217081612468565b50565b6000806005836040516121869190612d6b565b90815260200160405180910390205490508060000361103f5760405162461bcd60e51b815260206004820152602560248201527f5065744964656e746974793a204d6963726f63686970206e6f742072656769736044820152641d195c995960da1b606482015260840161050e565b33600090815260016020819052604090912001546001600160a01b031661222e5760405162461bcd60e51b815260040161050e90612cec565b6001600160a01b03811661228f5760405162461bcd60e51b815260206004820152602260248201527f5065744964656e746974793a20496e76616c69642070726f7879206164647265604482015261737360f01b606482015260840161050e565b336001600160a01b038216036122fb5760405162461bcd60e51b815260206004820152602b60248201527f5065744964656e746974793a2043616e6e6f7420617574686f72697a6520736560448201526a6c662061732070726f787960a81b606482015260840161050e565b33600081815260016020818152604080842060060180549384018155845290832090910180546001600160a01b0319166001600160a01b03861690811790915590519092917fedf2dca0b49cae4157d2d6fa17b643e1fb3f09decda2758a19668c413f3ed48091a350565b6000546001600160a01b03163314610fc95760405163118cdaa760e01b815233600482015260240161050e565b6001600160a01b0382166000908152600660205260408120905b815481101561246257828282815481106123c9576123c9612ecb565b90600052602060002001540361245057815482906123e990600190612f3e565b815481106123f9576123f9612ecb565b906000526020600020015482828154811061241657612416612ecb565b90600052602060002001819055508180548061243457612434612f51565b6001900381819060005260206000200160009055905550505050565b8061245a81612ef7565b9150506123ad565b50505050565b600080546001600160a01b038381166001600160a01b0319831681178455604051919092169283917f8be0079c531659141344cd1fd0a4f28419497f9722a3daafe3b4186f6b6457e09190a35050565b82805482825590600052602060002090810192821561250d579160200282015b8281111561250d57825182546001600160a01b0319166001600160a01b039091161782556020909201916001909101906124d8565b5061251992915061257e565b5090565b6040518061010001604052806060815260200160006001600160a01b03168152602001606081526020016000600381111561255a5761255a6128fd565b81526020016000815260200160001515815260200160608152602001600081525090565b5b80821115612519576000815560010161257f565b80356001600160a01b03811681146125aa57600080fd5b919050565b6000602082840312156125c157600080fd5b6125ca82612593565b9392505050565b600080604083850312156125e457600080fd5b823591506125f460208401612593565b90509250929050565b6000806040838503121561261057600080fd5b61261983612593565b946020939093013593505050565b60005b8381101561264257818101518382015260200161262a565b50506000910152565b60008151808452612663816020860160208601612627565b601f01601f19169290920160200192915050565b60808152600061268a608083018761264b565b6001600160a01b038616602084015282810360408401526126ab818661264b565b915050821515606083015295945050505050565b634e487b7160e01b600052604160045260246000fd5b600082601f8301126126e657600080fd5b813567ffffffffffffffff80821115612701576127016126bf565b604051601f8301601f19908116603f01168101908282118183101715612729576127296126bf565b8160405283815286602085880101111561274257600080fd5b836020870160208301376000602085830101528094505050505092915050565b6000806040838503121561277557600080fd5b823567ffffffffffffffff8082111561278d57600080fd5b612799868387016126d5565b935060208501359150808211156127af57600080fd5b506127bc858286016126d5565b9150509250929050565b60008060008060008060c087890312156127df57600080fd5b863567ffffffffffffffff808211156127f757600080fd5b6128038a838b016126d5565b975060208901359650604089013591508082111561282057600080fd5b61282c8a838b016126d5565b9550606089013591508082111561284257600080fd5b61284e8a838b016126d5565b94506080890135935060a089013591508082111561286b57600080fd5b5061287889828a016126d5565b9150509295509295509295565b60006020828403121561289757600080fd5b813567ffffffffffffffff8111156128ae57600080fd5b6128ba848285016126d5565b949350505050565b600080604083850312156128d557600080fd5b6128de83612593565b91506020830135600481106128f257600080fd5b809150509250929050565b634e487b7160e01b600052602160045260246000fd5b6004811061293157634e487b7160e01b600052602160045260246000fd5b9052565b60e08152600061294860e083018a61264b565b6001600160a01b03891660208401528281036040840152612969818961264b565b9150506129796060830187612913565b608082019490945291151560a083015260c090910152949350505050565b6000602082840312156129a957600080fd5b5035919050565b60208152600082516101208060208501526129cf61014085018361264b565b91506020850151604085015260408501516129f560608601826001600160a01b03169052565b506060850151601f1980868503016080870152612a12848361264b565b935060808701519150808685030160a0870152612a2f848361264b565b935060a087015160c087015260c08701519150808685030160e087015250612a57838261264b565b92505060e0850151610100612a6f8187018315159052565b959095015193019290925250919050565b60008060408385031215612a9357600080fd5b612a9c83612593565b91506125f460208401612593565b600080600060608486031215612abf57600080fd5b833567ffffffffffffffff80821115612ad757600080fd5b612ae3878388016126d5565b9450612af160208701612593565b93506040860135915080821115612b0757600080fd5b50612b14868287016126d5565b9150509250925092565b6020808252825182820181905260009190848201906040850190845b81811015612b5657835183529284019291840191600101612b3a565b50909695505050505050565b600081518084526020808501945080840160005b83811015612b9b5781516001600160a01b031687529582019590820190600101612b76565b509495945050505050565b6020815260008251610100806020850152612bc561012085018361264b565b91506020850151612be160408601826001600160a01b03169052565b506040850151601f1980868503016060870152612bfe848361264b565b935060608701519150612c146080870183612913565b608087015160a087015260a08701519150612c3360c087018315159052565b60c08701519150808685030160e087015250612c4f8382612b62565b92505060e085015181850152508091505092915050565b6000610120808352612c7a8184018d61264b565b602084018c90526001600160a01b038b16604085015283810360608501529050612ca4818a61264b565b90508281036080840152612cb8818961264b565b90508660a084015282810360c0840152612cd2818761264b565b94151560e084015250506101000152979650505050505050565b60208082526025908201527f5065744964656e746974793a204f776e6572206964656e74697479206e6f7420604082015264199bdd5b9960da1b606082015260800190565b600181811c90821680612d4557607f821691505b602082108103612d6557634e487b7160e01b600052602260045260246000fd5b50919050565b60008251612d7d818460208701612627565b9190910192915050565b601f821115612dd157600081815260208120601f850160051c81016020861015612dae5750805b601f850160051c820191505b81811015612dcd57828155600101612dba565b5050505b505050565b815167ffffffffffffffff811115612df057612df06126bf565b612e0481612dfe8454612d31565b84612d87565b602080601f831160018114612e395760008415612e215750858301515b600019600386901b1c1916600185901b178555612dcd565b600085815260208120601f198616915b82811015612e6857888601518255948401946001909101908401612e49565b5085821015612e865787850151600019600388901b60f8161c191681555b5050505050600190811b01905550565b604081526000612ea9604083018561264b565b90506125ca6020830184612913565b6020815260006125ca602083018461264b565b634e487b7160e01b600052603260045260246000fd5b634e487b7160e01b600052601160045260246000fd5b600060018201612f0957612f09612ee1565b5060010190565b604081526000612f23604083018561264b565b8281036020840152612f35818561264b565b95945050505050565b8181038181111561103f5761103f612ee1565b634e487b7160e01b600052603160045260246000fd5b6020810161103f828461291356fea264697066735822122060465d536c6e44f3acf248fb5531dd1ebdeeb43f21fd466d0956a0c9c40c4f9964736f6c63430008140033",
  "linkReferences": {},
  "deployedLinkReferences": {}
}